{
  "_format": "hh3-artifact-1",
  "contractName": "Counter",
  "sourceName": "contracts/Counter.sol",
  "abi": [
    {
      "anonymous": false,
      "inputs": [
        {
          "indexed": false,
          "internalType": "uint256",
          "name": "by",
          "type": "uint256"
        }
      ],
      "name": "Increment",
      "type": "event"
    },
    {
      "inputs": [],
      "name": "getCount",
      "outputs": [
        {
          "internalType": "uint256",
          "name": "",
          "type": "uint256"
        }
      ],
      "stateMutability": "view",
      "type": "function"
    },
    {
      "inputs": [],
      "name": "inc",
      "outputs": [],
      "stateMutability": "nonpayable",
      "type": "function"
    },
    {
      "inputs": [
        {
          "internalType": "uint256",
          "name": "by",
          "type": "uint256"
        }
      ],
      "name": "incBy",
      "outputs": [],
      "stateMutability": "nonpayable",
      "type": "function"
    },
    {
      "inputs": [],
      "name": "x",
      "outputs": [
        {
          "internalType": "uint256",
          "name": "",
          "type": "uint256"
        }
      ],
      "stateMutability": "view",
      "type": "function"
    }
  ],
  "bytecode": "0x608060405234801561000f575f80fd5b506103bb8061001d5f395ff3fe608060405234801561000f575f80fd5b506004361061004a575f3560e01c80630c55699c1461004e578063371303c01461006c57806370119d0614610076578063a87d942c14610092575b5f80fd5b6100566100b0565b60405161006391906101ba565b60405180910390f35b6100746100b5565b005b610090600480360381019061008b9190610201565b610107565b005b61009a61019a565b6040516100a791906101ba565b60405180910390f35b5f5481565b60015f808282546100c69190610259565b925050819055507f51af157c2eee40f68107a47a49c32fbbeb0a3c9e5cd37aa56e88e6be92368a8160016040516100fd91906102ce565b60405180910390a1565b5f8111610149576040517f08c379a000000000000000000000000000000000000000000000000000000000815260040161014090610367565b60405180910390fd5b805f808282546101599190610259565b925050819055507f51af157c2eee40f68107a47a49c32fbbeb0a3c9e5cd37aa56e88e6be92368a818160405161018f91906101ba565b60405180910390a150565b5f8054905090565b5f819050919050565b6101b4816101a2565b82525050565b5f6020820190506101cd5f8301846101ab565b92915050565b5f80fd5b6101e0816101a2565b81146101ea575f80fd5b50565b5f813590506101fb816101d7565b92915050565b5f60208284031215610216576102156101d3565b5b5f610223848285016101ed565b91505092915050565b7f4e487b71000000000000000000000000000000000000000000000000000000005f52601160045260245ffd5b5f610263826101a2565b915061026e836101a2565b92508282019050808211156102865761028561022c565b5b92915050565b5f819050919050565b5f819050919050565b5f6102b86102b36102ae8461028c565b610295565b6101a2565b9050919050565b6102c88161029e565b82525050565b5f6020820190506102e15f8301846102bf565b92915050565b5f82825260208201905092915050565b7f696e6342793a20696e6372656d656e742073686f756c6420626520706f7369745f8201527f6976650000000000000000000000000000000000000000000000000000000000602082015250565b5f6103516023836102e7565b915061035c826102f7565b604082019050919050565b5f6020820190508181035f83015261037e81610345565b905091905056fea2646970667358221220cfa42f18c8dbe916b6a80a0875e5398293f8fc96de4677716bd1e3d4a9aaf12c64736f6c63430008170033",
  "linkReferences": {},
  "deployedLinkReferences": {},
  "immutableReferences": {},
  "inputSourceName": "project/contracts/Counter.sol",
  "buildInfoId": "solc-0_8_23-33c5130deec18d9594656a54a02f123e1b453a7b"
}