{
  "_format": "hh3-artifact-1",
  "contractName": "Master",
  "sourceName": "contracts/Master.sol",
  "abi": [
    {
      "anonymous": false,
      "inputs": [
        {
          "indexed": true,
          "internalType": "address",
          "name": "owner",
          "type": "address"
        },
        {
          "indexed": false,
          "internalType": "address",
          "name": "shopAddress",
          "type": "address"
        },
        {
          "indexed": false,
          "internalType": "string",
          "name": "name",
          "type": "string"
        }
      ],
      "name": "ShopCreated",
      "type": "event"
    },
    {
      "inputs": [
        {
          "internalType": "uint256",
          "name": "",
          "type": "uint256"
        }
      ],
      "name": "allShopAddresses",
      "outputs": [
        {
          "internalType": "address",
          "name": "",
          "type": "address"
        }
      ],
      "stateMutability": "view",
      "type": "function"
    },
    {
      "inputs": [
        {
          "internalType": "uint256",
          "name": "",
          "type": "uint256"
        }
      ],
      "name": "allShopNames",
      "outputs": [
        {
          "internalType": "string",
          "name": "",
          "type": "string"
        }
      ],
      "stateMutability": "view",
      "type": "function"
    },
    {
      "inputs": [
        {
          "internalType": "string",
          "name": "_name",
          "type": "string"
        },
        {
          "internalType": "string",
          "name": "_shopType",
          "type": "string"
        },
        {
          "internalType": "string",
          "name": "_description",
          "type": "string"
        },
        {
          "internalType": "string",
          "name": "_configuration",
          "type": "string"
        }
      ],
      "name": "createShop",
      "outputs": [
        {
          "internalType": "address",
          "name": "",
          "type": "address"
        }
      ],
      "stateMutability": "nonpayable",
      "type": "function"
    },
    {
      "inputs": [],
      "name": "getAllShops",
      "outputs": [
        {
          "internalType": "string[]",
          "name": "",
          "type": "string[]"
        }
      ],
      "stateMutability": "view",
      "type": "function"
    },
    {
      "inputs": [
        {
          "internalType": "string",
          "name": "_name",
          "type": "string"
        }
      ],
      "name": "getShopByName",
      "outputs": [
        {
          "internalType": "address",
          "name": "",
          "type": "address"
        }
      ],
      "stateMutability": "view",
      "type": "function"
    },
    {
      "inputs": [
        {
          "internalType": "address",
          "name": "_owner",
          "type": "address"
        }
      ],
      "name": "getShopsByOwner",
      "outputs": [
        {
          "internalType": "address[]",
          "name": "",
          "type": "address[]"
        }
      ],
      "stateMutability": "view",
      "type": "function"
    },
    {
      "inputs": [],
      "name": "owner",
      "outputs": [
        {
          "internalType": "address",
          "name": "",
          "type": "address"
        }
      ],
      "stateMutability": "view",
      "type": "function"
    },
    {
      "inputs": [
        {
          "internalType": "address",
          "name": "",
          "type": "address"
        }
      ],
      "name": "shopOwnerRegistry",
      "outputs": [
        {
          "internalType": "address",
          "name": "",
          "type": "address"
        }
      ],
      "stateMutability": "view",
      "type": "function"
    }
  ],
  "bytecode": "0x608060405234801561000f575f80fd5b5061399d8061001d5f395ff3fe608060405234801562000010575f80fd5b506004361062000092575f3560e01c806395cbc07f116200006157806395cbc07f146200015a578063d5c9b2391462000190578063d7117ee014620001b2578063e0eb33e114620001e85762000092565b80633847c28c1462000096578063664f03b014620000cc5780637192636914620001025780638da5cb5b1462000138575b5f80fd5b620000b46004803603810190620000ae919062000a41565b6200021e565b604051620000c3919062000ab4565b60405180910390f35b620000ea6004803603810190620000e4919062000b39565b6200025a565b604051620000f9919062000ab4565b60405180910390f35b6200012060048036038101906200011a919062000c63565b62000425565b6040516200012f919062000ab4565b60405180910390f35b6200014262000455565b60405162000151919062000ab4565b60405180910390f35b62000178600480360381019062000172919062000a41565b62000478565b60405162000187919062000d27565b60405180910390f35b6200019a62000527565b604051620001a9919062000e62565b60405180910390f35b620001d06004803603810190620001ca919062000c63565b62000605565b604051620001df919062000f4b565b60405180910390f35b62000206600480360381019062000200919062000f6d565b620008cd565b60405162000215919062000ab4565b60405180910390f35b600281815481106200022e575f80fd5b905f5260205f20015f915054906101000a900473ffffffffffffffffffffffffffffffffffffffff1681565b5f808989898989898989336040516200027390620009f3565b620002879998979695949392919062001000565b604051809103905ff080158015620002a1573d5f803e3d5ffd5b5090505f81905060018b8b90918060018154018082558091505060019003905f5260205f20015f909192909192909192909192509182620002e4929190620012da565b50600281908060018154018082558091505060019003905f5260205f20015f9091909190916101000a81548173ffffffffffffffffffffffffffffffffffffffff021916908373ffffffffffffffffffffffffffffffffffffffff1602179055503360035f8373ffffffffffffffffffffffffffffffffffffffff1673ffffffffffffffffffffffffffffffffffffffff1681526020019081526020015f205f6101000a81548173ffffffffffffffffffffffffffffffffffffffff021916908373ffffffffffffffffffffffffffffffffffffffff1602179055503373ffffffffffffffffffffffffffffffffffffffff167fc23f1fa5dbe852f32a018b91715035160eb6070001a41b817e4310e83370f10c828d8d6040516200040c93929190620013bc565b60405180910390a2809250505098975050505050505050565b6003602052805f5260405f205f915054906101000a900473ffffffffffffffffffffffffffffffffffffffff1681565b5f8054906101000a900473ffffffffffffffffffffffffffffffffffffffff1681565b6001818154811062000488575f80fd5b905f5260205f20015f915090508054620004a290620010e3565b80601f0160208091040260200160405190810160405280929190818152602001828054620004d090620010e3565b80156200051f5780601f10620004f5576101008083540402835291602001916200051f565b820191905f5260205f20905b8154815290600101906020018083116200050157829003601f168201915b505050505081565b60606001805480602002602001604051908101604052809291908181526020015f905b82821015620005fc578382905f5260205f200180546200056a90620010e3565b80601f01602080910402602001604051908101604052809291908181526020018280546200059890620010e3565b8015620005e75780601f10620005bd57610100808354040283529160200191620005e7565b820191905f5260205f20905b815481529060010190602001808311620005c957829003601f168201915b5050505050815260200190600101906200054a565b50505050905090565b60605f60028054905067ffffffffffffffff8111156200062a576200062962001089565b5b604051908082528060200260200182016040528015620006595781602001602082028036833780820191505090505b5090505f805b600280549050811015620007e9578473ffffffffffffffffffffffffffffffffffffffff1660035f600284815481106200069e576200069d620013f0565b5b905f5260205f20015f9054906101000a900473ffffffffffffffffffffffffffffffffffffffff1673ffffffffffffffffffffffffffffffffffffffff1673ffffffffffffffffffffffffffffffffffffffff1681526020019081526020015f205f9054906101000a900473ffffffffffffffffffffffffffffffffffffffff1673ffffffffffffffffffffffffffffffffffffffff1603620007db5760028181548110620007525762000751620013f0565b5b905f5260205f20015f9054906101000a900473ffffffffffffffffffffffffffffffffffffffff1683838151811062000790576200078f620013f0565b5b602002602001019073ffffffffffffffffffffffffffffffffffffffff16908173ffffffffffffffffffffffffffffffffffffffff16815250508180620007d7906200144a565b9250505b80806001019150506200065f565b505f8167ffffffffffffffff81111562000808576200080762001089565b5b604051908082528060200260200182016040528015620008375781602001602082028036833780820191505090505b5090505f5b82811015620008c1578381815181106200085b576200085a620013f0565b5b6020026020010151828281518110620008795762000878620013f0565b5b602002602001019073ffffffffffffffffffffffffffffffffffffffff16908173ffffffffffffffffffffffffffffffffffffffff168152505080806001019150506200083c565b50809350505050919050565b5f805f90505b600180549050811015620009af578383604051602001620008f6929190620014c8565b6040516020818303038152906040528051906020012060018281548110620009235762000922620013f0565b5b905f5260205f20016040516020016200093d91906200156e565b6040516020818303038152906040528051906020012003620009a1576002818154811062000970576200096f620013f0565b5b905f5260205f20015f9054906101000a900473ffffffffffffffffffffffffffffffffffffffff16915050620009ed565b8080600101915050620008d3565b506040517f08c379a0000000000000000000000000000000000000000000000000000000008152600401620009e490620015d4565b60405180910390fd5b92915050565b61237380620015f583390190565b5f80fd5b5f80fd5b5f819050919050565b62000a1d8162000a09565b811462000a28575f80fd5b50565b5f8135905062000a3b8162000a12565b92915050565b5f6020828403121562000a595762000a5862000a01565b5b5f62000a688482850162000a2b565b91505092915050565b5f73ffffffffffffffffffffffffffffffffffffffff82169050919050565b5f62000a9c8262000a71565b9050919050565b62000aae8162000a90565b82525050565b5f60208201905062000ac95f83018462000aa3565b92915050565b5f80fd5b5f80fd5b5f80fd5b5f8083601f84011262000af35762000af262000acf565b5b8235905067ffffffffffffffff81111562000b135762000b1262000ad3565b5b60208301915083600182028301111562000b325762000b3162000ad7565b5b9250929050565b5f805f805f805f806080898b03121562000b585762000b5762000a01565b5b5f89013567ffffffffffffffff81111562000b785762000b7762000a05565b5b62000b868b828c0162000adb565b9850985050602089013567ffffffffffffffff81111562000bac5762000bab62000a05565b5b62000bba8b828c0162000adb565b9650965050604089013567ffffffffffffffff81111562000be05762000bdf62000a05565b5b62000bee8b828c0162000adb565b9450945050606089013567ffffffffffffffff81111562000c145762000c1362000a05565b5b62000c228b828c0162000adb565b92509250509295985092959890939650565b62000c3f8162000a90565b811462000c4a575f80fd5b50565b5f8135905062000c5d8162000c34565b92915050565b5f6020828403121562000c7b5762000c7a62000a01565b5b5f62000c8a8482850162000c4d565b91505092915050565b5f81519050919050565b5f82825260208201905092915050565b5f5b8381101562000ccc57808201518184015260208101905062000caf565b5f8484015250505050565b5f601f19601f8301169050919050565b5f62000cf38262000c93565b62000cff818562000c9d565b935062000d1181856020860162000cad565b62000d1c8162000cd7565b840191505092915050565b5f6020820190508181035f83015262000d41818462000ce7565b905092915050565b5f81519050919050565b5f82825260208201905092915050565b5f819050602082019050919050565b5f82825260208201905092915050565b5f62000d8e8262000c93565b62000d9a818562000d72565b935062000dac81856020860162000cad565b62000db78162000cd7565b840191505092915050565b5f62000dcf838362000d82565b905092915050565b5f602082019050919050565b5f62000def8262000d49565b62000dfb818562000d53565b93508360208202850162000e0f8562000d63565b805f5b8581101562000e50578484038952815162000e2e858262000dc2565b945062000e3b8362000dd7565b925060208a0199505060018101905062000e12565b50829750879550505050505092915050565b5f6020820190508181035f83015262000e7c818462000de3565b905092915050565b5f81519050919050565b5f82825260208201905092915050565b5f819050602082019050919050565b62000eb88162000a90565b82525050565b5f62000ecb838362000ead565b60208301905092915050565b5f602082019050919050565b5f62000eef8262000e84565b62000efb818562000e8e565b935062000f088362000e9e565b805f5b8381101562000f3e57815162000f22888262000ebe565b975062000f2f8362000ed7565b92505060018101905062000f0b565b5085935050505092915050565b5f6020820190508181035f83015262000f65818462000ee3565b905092915050565b5f806020838503121562000f865762000f8562000a01565b5b5f83013567ffffffffffffffff81111562000fa65762000fa562000a05565b5b62000fb48582860162000adb565b92509250509250929050565b828183375f83830152505050565b5f62000fdb838562000c9d565b935062000fea83858462000fc0565b62000ff58362000cd7565b840190509392505050565b5f60a0820190508181035f8301526200101b818b8d62000fce565b905081810360208301526200103281898b62000fce565b905081810360408301526200104981878962000fce565b905081810360608301526200106081858762000fce565b905062001071608083018462000aa3565b9a9950505050505050505050565b5f82905092915050565b7f4e487b71000000000000000000000000000000000000000000000000000000005f52604160045260245ffd5b7f4e487b71000000000000000000000000000000000000000000000000000000005f52602260045260245ffd5b5f6002820490506001821680620010fb57607f821691505b602082108103620011115762001110620010b6565b5b50919050565b5f819050815f5260205f209050919050565b5f6020601f8301049050919050565b5f82821b905092915050565b5f60088302620011757fffffffffffffffffffffffffffffffffffffffffffffffffffffffffffffffff8262001138565b62001181868362001138565b95508019841693508086168417925050509392505050565b5f819050919050565b5f620011c2620011bc620011b68462000a09565b62001199565b62000a09565b9050919050565b5f819050919050565b620011dd83620011a2565b620011f5620011ec82620011c9565b84845462001144565b825550505050565b5f90565b6200120b620011fd565b62001218818484620011d2565b505050565b5b818110156200123f57620012335f8262001201565b6001810190506200121e565b5050565b601f8211156200128e57620012588162001117565b620012638462001129565b8101602085101562001273578190505b6200128b620012828562001129565b8301826200121d565b50505b505050565b5f82821c905092915050565b5f620012b05f198460080262001293565b1980831691505092915050565b5f620012ca83836200129f565b9150826002028217905092915050565b620012e683836200107f565b67ffffffffffffffff81111562001302576200130162001089565b5b6200130e8254620010e3565b6200131b82828562001243565b5f601f8311600181146200134d575f841562001338578287013590505b620013448582620012bd565b865550620013b3565b601f1984166200135d8662001117565b5f5b8281101562001386578489013582556001820191506020850194506020810190506200135f565b86831015620013a65784890135620013a2601f8916826200129f565b8355505b6001600288020188555050505b50505050505050565b5f604082019050620013d15f83018662000aa3565b8181036020830152620013e681848662000fce565b9050949350505050565b7f4e487b71000000000000000000000000000000000000000000000000000000005f52603260045260245ffd5b7f4e487b71000000000000000000000000000000000000000000000000000000005f52601160045260245ffd5b5f620014568262000a09565b91507fffffffffffffffffffffffffffffffffffffffffffffffffffffffffffffffff82036200148b576200148a6200141d565b5b600182019050919050565b5f81905092915050565b5f620014ad838562001496565b9350620014bc83858462000fc0565b82840190509392505050565b5f620014d6828486620014a0565b91508190509392505050565b5f8154620014f081620010e3565b620014fc818662001496565b9450600182165f81146200151957600181146200152f5762001565565b60ff198316865281151582028601935062001565565b6200153a8562001117565b5f5b838110156200155d578154818901526001820191506020810190506200153c565b838801955050505b50505092915050565b5f6200157b8284620014e2565b915081905092915050565b7f53686f70206e6f7420666f756e640000000000000000000000000000000000005f82015250565b5f620015bc600e8362000c9d565b9150620015c98262001586565b602082019050919050565b5f6020820190508181035f830152620015ed81620015ae565b905091905056fe608060405234801562000010575f80fd5b5060405162002373380380620023738339818101604052810190620000369190620002bc565b805f806101000a81548173ffffffffffffffffffffffffffffffffffffffff021916908373ffffffffffffffffffffffffffffffffffffffff1602179055508460039081620000869190620005f3565b508360049081620000989190620005f3565b508260059081620000aa9190620005f3565b508160069081620000bc9190620005f3565b505f6001819055505f6002819055505050505050620006d7565b5f604051905090565b5f80fd5b5f80fd5b5f80fd5b5f80fd5b5f601f19601f8301169050919050565b7f4e487b71000000000000000000000000000000000000000000000000000000005f52604160045260245ffd5b6200013782620000ef565b810181811067ffffffffffffffff82111715620001595762000158620000ff565b5b80604052505050565b5f6200016d620000d6565b90506200017b82826200012c565b919050565b5f67ffffffffffffffff8211156200019d576200019c620000ff565b5b620001a882620000ef565b9050602081019050919050565b5f5b83811015620001d4578082015181840152602081019050620001b7565b5f8484015250505050565b5f620001f5620001ef8462000180565b62000162565b905082815260208101848484011115620002145762000213620000eb565b5b62000221848285620001b5565b509392505050565b5f82601f83011262000240576200023f620000e7565b5b815162000252848260208601620001df565b91505092915050565b5f73ffffffffffffffffffffffffffffffffffffffff82169050919050565b5f62000286826200025b565b9050919050565b62000298816200027a565b8114620002a3575f80fd5b50565b5f81519050620002b6816200028d565b92915050565b5f805f805f60a08688031215620002d857620002d7620000df565b5b5f86015167ffffffffffffffff811115620002f857620002f7620000e3565b5b620003068882890162000229565b955050602086015167ffffffffffffffff8111156200032a5762000329620000e3565b5b620003388882890162000229565b945050604086015167ffffffffffffffff8111156200035c576200035b620000e3565b5b6200036a8882890162000229565b935050606086015167ffffffffffffffff8111156200038e576200038d620000e3565b5b6200039c8882890162000229565b9250506080620003af88828901620002a6565b9150509295509295909350565b5f81519050919050565b7f4e487b71000000000000000000000000000000000000000000000000000000005f52602260045260245ffd5b5f60028204905060018216806200040b57607f821691505b602082108103620004215762000420620003c6565b5b50919050565b5f819050815f5260205f209050919050565b5f6020601f8301049050919050565b5f82821b905092915050565b5f60088302620004857fffffffffffffffffffffffffffffffffffffffffffffffffffffffffffffffff8262000448565b62000491868362000448565b95508019841693508086168417925050509392505050565b5f819050919050565b5f819050919050565b5f620004db620004d5620004cf84620004a9565b620004b2565b620004a9565b9050919050565b5f819050919050565b620004f683620004bb565b6200050e6200050582620004e2565b84845462000454565b825550505050565b5f90565b6200052462000516565b62000531818484620004eb565b505050565b5b8181101562000558576200054c5f826200051a565b60018101905062000537565b5050565b601f821115620005a757620005718162000427565b6200057c8462000439565b810160208510156200058c578190505b620005a46200059b8562000439565b83018262000536565b50505b505050565b5f82821c905092915050565b5f620005c95f1984600802620005ac565b1980831691505092915050565b5f620005e38383620005b8565b9150826002028217905092915050565b620005fe82620003bc565b67ffffffffffffffff8111156200061a5762000619620000ff565b5b620006268254620003f3565b620006338282856200055c565b5f60209050601f83116001811462000669575f841562000654578287015190505b620006608582620005d6565b865550620006cf565b601f198416620006798662000427565b5f5b82811015620006a2578489015182556001820191506020850194506020810190506200067b565b86831015620006c25784890151620006be601f891682620005b8565b8355505b6001600288020188555050505b505050505050565b611c8e80620006e55f395ff3fe608060405234801561000f575f80fd5b5060043610610109575f3560e01c806375dceb27116100a0578063a440f2691161006f578063a440f26914610259578063a85c38ef14610277578063bfb231d2146102ac578063d1118f5a146102e0578063e0f6ef87146102fe57610109565b806375dceb27146101f95780638da5cb5b1461021557806397b54cc2146102335780639dfc3dd11461023d57610109565b80635ee95cae116100dc5780635ee95cae146101855780636c70bee9146101a15780636db51302146101bf5780637284e416146101db57610109565b80632156a96c1461010d5780632453ffa81461012b5780634a348da9146101495780634ba1d6aa14610167575b5f80fd5b61011561031c565b6040516101229190610f3a565b60405180910390f35b610133610364565b6040516101409190610f3a565b60405180910390f35b61015161036a565b60405161015e9190610f3a565b60405180910390f35b61016f610373565b60405161017c919061113b565b60405180910390f35b61019f600480360381019061019a919061118d565b610576565b005b6101a96106d5565b6040516101b69190611200565b60405180910390f35b6101d960048036038101906101d49190611281565b610761565b005b6101e3610930565b6040516101f09190611200565b60405180910390f35b610213600480360381019061020e919061134e565b6109bc565b005b61021d610b16565b60405161022a9190611423565b60405180910390f35b61023b610b39565b005b6102576004803603810190610252919061143c565b610b3b565b005b610261610c29565b60405161026e9190611200565b60405180910390f35b610291600480360381019061028c919061118d565b610cb5565b6040516102a396959493929190611489565b60405180910390f35b6102c660048036038101906102c1919061118d565b610d18565b6040516102d79594939291906114e8565b60405180910390f35b6102e8610e62565b6040516102f59190611200565b60405180910390f35b610306610eee565b6040516103139190610f3a565b60405180910390f35b5f805f90505f5b60025481101561035c5760085f8281526020019081526020015f20600301548261034d9190611574565b91508080600101915050610323565b508091505090565b60025481565b5f600154905090565b60605f60015467ffffffffffffffff811115610392576103916115a7565b5b6040519080825280602002602001820160405280156103cb57816020015b6103b8610ef4565b8152602001906001900390816103b05790505b5090505f5b60015481101561056e5760075f8281526020019081526020015f206040518060a00160405290815f8201805461040590611601565b80601f016020809104026020016040519081016040528092919081815260200182805461043190611601565b801561047c5780601f106104535761010080835404028352916020019161047c565b820191905f5260205f20905b81548152906001019060200180831161045f57829003601f168201915b505050505081526020016001820154815260200160028201548152602001600382015f9054906101000a900460ff161515151581526020016004820180546104c390611601565b80601f01602080910402602001604051908101604052809291908181526020018280546104ef90611601565b801561053a5780601f106105115761010080835404028352916020019161053a565b820191905f5260205f20905b81548152906001019060200180831161051d57829003601f168201915b50505050508152505082828151811061055657610555611631565b5b602002602001018190525080806001019150506103d0565b508091505090565b5f8054906101000a900473ffffffffffffffffffffffffffffffffffffffff1673ffffffffffffffffffffffffffffffffffffffff163373ffffffffffffffffffffffffffffffffffffffff1614610603576040517f08c379a00000000000000000000000000000000000000000000000000000000081526004016105fa906116a8565b60405180910390fd5b6001548110610647576040517f08c379a000000000000000000000000000000000000000000000000000000000815260040161063e90611710565b60405180910390fd5b60075f8281526020019081526020015f206003015f9054906101000a900460ff166106a7576040517f08c379a000000000000000000000000000000000000000000000000000000000815260040161069e90611778565b60405180910390fd5b5f60075f8381526020019081526020015f206003015f6101000a81548160ff02191690831515021790555050565b600680546106e290611601565b80601f016020809104026020016040519081016040528092919081815260200182805461070e90611601565b80156107595780601f1061073057610100808354040283529160200191610759565b820191905f5260205f20905b81548152906001019060200180831161073c57829003601f168201915b505050505081565b5f8054906101000a900473ffffffffffffffffffffffffffffffffffffffff1673ffffffffffffffffffffffffffffffffffffffff163373ffffffffffffffffffffffffffffffffffffffff16146107ee576040517f08c379a00000000000000000000000000000000000000000000000000000000081526004016107e5906117e0565b60405180910390fd5b6040518060a0016040528085858080601f0160208091040260200160405190810160405280939291908181526020018383808284375f81840152601f19601f82011690508083019250505050505050815260200187815260200186815260200160011515815260200183838080601f0160208091040260200160405190810160405280939291908181526020018383808284375f81840152601f19601f8201169050808301925050505050505081525060075f60015481526020019081526020015f205f820151815f0190816108c4919061199b565b5060208201518160010155604082015181600201556060820151816003015f6101000a81548160ff021916908315150217905550608082015181600401908161090d919061199b565b5090505060015f81548092919061092390611a6a565b9190505550505050505050565b6005805461093d90611601565b80601f016020809104026020016040519081016040528092919081815260200182805461096990611601565b80156109b45780601f1061098b576101008083540402835291602001916109b4565b820191905f5260205f20905b81548152906001019060200180831161099757829003601f168201915b505050505081565b5f8054906101000a900473ffffffffffffffffffffffffffffffffffffffff1673ffffffffffffffffffffffffffffffffffffffff163373ffffffffffffffffffffffffffffffffffffffff1614610a49576040517f08c379a0000000000000000000000000000000000000000000000000000000008152600401610a4090611afb565b60405180910390fd5b6001548610610a8d576040517f08c379a0000000000000000000000000000000000000000000000000000000008152600401610a8490611710565b60405180910390fd5b8460075f8881526020019081526020015f20600101819055508360075f8881526020019081526020015f20600201819055508260075f8881526020019081526020015f206003015f6101000a81548160ff021916908315150217905550818160075f8981526020019081526020015f206004019182610b0d929190611b23565b50505050505050565b5f8054906101000a900473ffffffffffffffffffffffffffffffffffffffff1681565b565b5f8054906101000a900473ffffffffffffffffffffffffffffffffffffffff1673ffffffffffffffffffffffffffffffffffffffff163373ffffffffffffffffffffffffffffffffffffffff1614610bc8576040517f08c379a0000000000000000000000000000000000000000000000000000000008152600401610bbf90611c3a565b60405180910390fd5b6001548210610c0c576040517f08c379a0000000000000000000000000000000000000000000000000000000008152600401610c0390611710565b60405180910390fd5b8060075f8481526020019081526020015f20600201819055505050565b60048054610c3690611601565b80601f0160208091040260200160405190810160405280929190818152602001828054610c6290611601565b8015610cad5780601f10610c8457610100808354040283529160200191610cad565b820191905f5260205f20905b815481529060010190602001808311610c9057829003601f168201915b505050505081565b6008602052805f5260405f205f91509050805f015f9054906101000a900473ffffffffffffffffffffffffffffffffffffffff1690806001015490806002015490806003015490806004015490806005015f9054906101000a900460ff16905086565b6007602052805f5260405f205f91509050805f018054610d3790611601565b80601f0160208091040260200160405190810160405280929190818152602001828054610d6390611601565b8015610dae5780601f10610d8557610100808354040283529160200191610dae565b820191905f5260205f20905b815481529060010190602001808311610d9157829003601f168201915b505050505090806001015490806002015490806003015f9054906101000a900460ff1690806004018054610de190611601565b80601f0160208091040260200160405190810160405280929190818152602001828054610e0d90611601565b8015610e585780601f10610e2f57610100808354040283529160200191610e58565b820191905f5260205f20905b815481529060010190602001808311610e3b57829003601f168201915b5050505050905085565b60038054610e6f90611601565b80601f0160208091040260200160405190810160405280929190818152602001828054610e9b90611601565b8015610ee65780601f10610ebd57610100808354040283529160200191610ee6565b820191905f5260205f20905b815481529060010190602001808311610ec957829003601f168201915b505050505081565b60015481565b6040518060a00160405280606081526020015f81526020015f81526020015f15158152602001606081525090565b5f819050919050565b610f3481610f22565b82525050565b5f602082019050610f4d5f830184610f2b565b92915050565b5f81519050919050565b5f82825260208201905092915050565b5f819050602082019050919050565b5f81519050919050565b5f82825260208201905092915050565b5f5b83811015610fb3578082015181840152602081019050610f98565b5f8484015250505050565b5f601f19601f8301169050919050565b5f610fd882610f7c565b610fe28185610f86565b9350610ff2818560208601610f96565b610ffb81610fbe565b840191505092915050565b61100f81610f22565b82525050565b5f8115159050919050565b61102981611015565b82525050565b5f60a083015f8301518482035f8601526110498282610fce565b915050602083015161105e6020860182611006565b5060408301516110716040860182611006565b5060608301516110846060860182611020565b506080830151848203608086015261109c8282610fce565b9150508091505092915050565b5f6110b4838361102f565b905092915050565b5f602082019050919050565b5f6110d282610f53565b6110dc8185610f5d565b9350836020820285016110ee85610f6d565b805f5b85811015611129578484038952815161110a85826110a9565b9450611115836110bc565b925060208a019950506001810190506110f1565b50829750879550505050505092915050565b5f6020820190508181035f83015261115381846110c8565b905092915050565b5f80fd5b5f80fd5b61116c81610f22565b8114611176575f80fd5b50565b5f8135905061118781611163565b92915050565b5f602082840312156111a2576111a161115b565b5b5f6111af84828501611179565b91505092915050565b5f82825260208201905092915050565b5f6111d282610f7c565b6111dc81856111b8565b93506111ec818560208601610f96565b6111f581610fbe565b840191505092915050565b5f6020820190508181035f83015261121881846111c8565b905092915050565b5f80fd5b5f80fd5b5f80fd5b5f8083601f84011261124157611240611220565b5b8235905067ffffffffffffffff81111561125e5761125d611224565b5b60208301915083600182028301111561127a57611279611228565b5b9250929050565b5f805f805f806080878903121561129b5761129a61115b565b5b5f6112a889828a01611179565b96505060206112b989828a01611179565b955050604087013567ffffffffffffffff8111156112da576112d961115f565b5b6112e689828a0161122c565b9450945050606087013567ffffffffffffffff8111156113095761130861115f565b5b61131589828a0161122c565b92509250509295509295509295565b61132d81611015565b8114611337575f80fd5b50565b5f8135905061134881611324565b92915050565b5f805f805f8060a087890312156113685761136761115b565b5b5f61137589828a01611179565b965050602061138689828a01611179565b955050604061139789828a01611179565b94505060606113a889828a0161133a565b935050608087013567ffffffffffffffff8111156113c9576113c861115f565b5b6113d589828a0161122c565b92509250509295509295509295565b5f73ffffffffffffffffffffffffffffffffffffffff82169050919050565b5f61140d826113e4565b9050919050565b61141d81611403565b82525050565b5f6020820190506114365f830184611414565b92915050565b5f80604083850312156114525761145161115b565b5b5f61145f85828601611179565b925050602061147085828601611179565b9150509250929050565b61148381611015565b82525050565b5f60c08201905061149c5f830189611414565b6114a96020830188610f2b565b6114b66040830187610f2b565b6114c36060830186610f2b565b6114d06080830185610f2b565b6114dd60a083018461147a565b979650505050505050565b5f60a0820190508181035f83015261150081886111c8565b905061150f6020830187610f2b565b61151c6040830186610f2b565b611529606083018561147a565b818103608083015261153b81846111c8565b90509695505050505050565b7f4e487b71000000000000000000000000000000000000000000000000000000005f52601160045260245ffd5b5f61157e82610f22565b915061158983610f22565b92508282019050808211156115a1576115a0611547565b5b92915050565b7f4e487b71000000000000000000000000000000000000000000000000000000005f52604160045260245ffd5b7f4e487b71000000000000000000000000000000000000000000000000000000005f52602260045260245ffd5b5f600282049050600182168061161857607f821691505b60208210810361162b5761162a6115d4565b5b50919050565b7f4e487b71000000000000000000000000000000000000000000000000000000005f52603260045260245ffd5b7f4f6e6c79206f776e65722063616e2072656d6f76652070726f647563747300005f82015250565b5f611692601e836111b8565b915061169d8261165e565b602082019050919050565b5f6020820190508181035f8301526116bf81611686565b9050919050565b7f50726f6475637420646f6573206e6f74206578697374000000000000000000005f82015250565b5f6116fa6016836111b8565b9150611705826116c6565b602082019050919050565b5f6020820190508181035f830152611727816116ee565b9050919050565b7f50726f6475637420616c72656164792072656d6f7665640000000000000000005f82015250565b5f6117626017836111b8565b915061176d8261172e565b602082019050919050565b5f6020820190508181035f83015261178f81611756565b9050919050565b7f4f6e6c79206f776e65722063616e206164642070726f647563747300000000005f82015250565b5f6117ca601b836111b8565b91506117d582611796565b602082019050919050565b5f6020820190508181035f8301526117f7816117be565b9050919050565b5f819050815f5260205f209050919050565b5f6020601f8301049050919050565b5f82821b905092915050565b5f6008830261185a7fffffffffffffffffffffffffffffffffffffffffffffffffffffffffffffffff8261181f565b611864868361181f565b95508019841693508086168417925050509392505050565b5f819050919050565b5f61189f61189a61189584610f22565b61187c565b610f22565b9050919050565b5f819050919050565b6118b883611885565b6118cc6118c4826118a6565b84845461182b565b825550505050565b5f90565b6118e06118d4565b6118eb8184846118af565b505050565b5b8181101561190e576119035f826118d8565b6001810190506118f1565b5050565b601f82111561195357611924816117fe565b61192d84611810565b8101602085101561193c578190505b61195061194885611810565b8301826118f0565b50505b505050565b5f82821c905092915050565b5f6119735f1984600802611958565b1980831691505092915050565b5f61198b8383611964565b9150826002028217905092915050565b6119a482610f7c565b67ffffffffffffffff8111156119bd576119bc6115a7565b5b6119c78254611601565b6119d2828285611912565b5f60209050601f831160018114611a03575f84156119f1578287015190505b6119fb8582611980565b865550611a62565b601f198416611a11866117fe565b5f5b82811015611a3857848901518255600182019150602085019450602081019050611a13565b86831015611a555784890151611a51601f891682611964565b8355505b6001600288020188555050505b505050505050565b5f611a7482610f22565b91507fffffffffffffffffffffffffffffffffffffffffffffffffffffffffffffffff8203611aa657611aa5611547565b5b600182019050919050565b7f4f6e6c79206f776e65722063616e207570646174652070726f647563747300005f82015250565b5f611ae5601e836111b8565b9150611af082611ab1565b602082019050919050565b5f6020820190508181035f830152611b1281611ad9565b9050919050565b5f82905092915050565b611b2d8383611b19565b67ffffffffffffffff811115611b4657611b456115a7565b5b611b508254611601565b611b5b828285611912565b5f601f831160018114611b88575f8415611b76578287013590505b611b808582611980565b865550611be7565b601f198416611b96866117fe565b5f5b82811015611bbd57848901358255600182019150602085019450602081019050611b98565b86831015611bda5784890135611bd6601f891682611964565b8355505b6001600288020188555050505b50505050505050565b7f4f6e6c79206f776e65722063616e207570646174652073746f636b00000000005f82015250565b5f611c24601b836111b8565b9150611c2f82611bf0565b602082019050919050565b5f6020820190508181035f830152611c5181611c18565b905091905056fea2646970667358221220499538bc728235ee9a347649308428dcd305251dd9360d2f2fbf0c71f843f03664736f6c63430008170033a2646970667358221220f5a132e00614ceb4d40f58e3012671dc5523e50c098863fafa1346fba5e07eed64736f6c63430008170033",
  "linkReferences": {},
  "deployedLinkReferences": {},
  "immutableReferences": {},
  "inputSourceName": "project/contracts/Master.sol",
  "buildInfoId": "solc-0_8_23-4b6c702e2a402d6b61253fa90e012cd09ad5e0a8"
}