{
  "_format": "hh3-artifact-1",
  "contractName": "Master",
  "sourceName": "contracts/Master.sol",
  "abi": [
    {
      "anonymous": false,
      "inputs": [
        {
          "indexed": true,
          "internalType": "address",
          "name": "owner",
          "type": "address"
        },
        {
          "indexed": false,
          "internalType": "address",
          "name": "shopAddress",
          "type": "address"
        },
        {
          "indexed": false,
          "internalType": "string",
          "name": "name",
          "type": "string"
        }
      ],
      "name": "ShopCreated",
      "type": "event"
    },
    {
      "inputs": [
        {
          "internalType": "uint256",
          "name": "",
          "type": "uint256"
        }
      ],
      "name": "allShopAddresses",
      "outputs": [
        {
          "internalType": "address",
          "name": "",
          "type": "address"
        }
      ],
      "stateMutability": "view",
      "type": "function"
    },
    {
      "inputs": [
        {
          "internalType": "uint256",
          "name": "",
          "type": "uint256"
        }
      ],
      "name": "allShopNames",
      "outputs": [
        {
          "internalType": "string",
          "name": "",
          "type": "string"
        }
      ],
      "stateMutability": "view",
      "type": "function"
    },
    {
      "inputs": [
        {
          "components": [
            {
              "internalType": "string",
              "name": "shopName",
              "type": "string"
            },
            {
              "internalType": "string",
              "name": "shopType",
              "type": "string"
            },
            {
              "internalType": "string",
              "name": "description",
              "type": "string"
            },
            {
              "internalType": "string",
              "name": "configuration",
              "type": "string"
            },
            {
              "internalType": "string",
              "name": "thumbnailIpfsHash",
              "type": "string"
            },
            {
              "internalType": "address",
              "name": "owner",
              "type": "address"
            },
            {
              "internalType": "bool",
              "name": "isPublished",
              "type": "bool"
            }
          ],
          "internalType": "struct ShopDetails",
          "name": "_shopDetails",
          "type": "tuple"
        }
      ],
      "name": "createShop",
      "outputs": [
        {
          "internalType": "address",
          "name": "",
          "type": "address"
        }
      ],
      "stateMutability": "nonpayable",
      "type": "function"
    },
    {
      "inputs": [],
      "name": "getAllShops",
      "outputs": [
        {
          "internalType": "string[]",
          "name": "",
          "type": "string[]"
        }
      ],
      "stateMutability": "view",
      "type": "function"
    },
    {
      "inputs": [
        {
          "internalType": "string",
          "name": "_name",
          "type": "string"
        }
      ],
      "name": "getShopByName",
      "outputs": [
        {
          "internalType": "address",
          "name": "",
          "type": "address"
        }
      ],
      "stateMutability": "view",
      "type": "function"
    },
    {
      "inputs": [
        {
          "internalType": "address",
          "name": "_owner",
          "type": "address"
        }
      ],
      "name": "getShopsByOwner",
      "outputs": [
        {
          "internalType": "address[]",
          "name": "",
          "type": "address[]"
        }
      ],
      "stateMutability": "view",
      "type": "function"
    },
    {
      "inputs": [],
      "name": "owner",
      "outputs": [
        {
          "internalType": "address",
          "name": "",
          "type": "address"
        }
      ],
      "stateMutability": "view",
      "type": "function"
    },
    {
      "inputs": [
        {
          "internalType": "address",
          "name": "",
          "type": "address"
        }
      ],
      "name": "shopOwnerRegistry",
      "outputs": [
        {
          "internalType": "address",
          "name": "",
          "type": "address"
        }
      ],
      "stateMutability": "view",
      "type": "function"
    },
    {
      "inputs": [
        {
          "internalType": "address",
          "name": "_shopAddress",
          "type": "address"
        },
        {
          "internalType": "string",
          "name": "_oldName",
          "type": "string"
        },
        {
          "internalType": "string",
          "name": "_newName",
          "type": "string"
        }
      ],
      "name": "updateShopName",
      "outputs": [],
      "stateMutability": "nonpayable",
      "type": "function"
    }
  ],
  "bytecode": "0x608060405234801561000f575f80fd5b506162f48061001d5f395ff3fe608060405234801562000010575f80fd5b50600436106200009e575f3560e01c806395cbc07f116200006d57806395cbc07f1462000150578063bd12a6821462000186578063d5c9b23914620001bc578063d7117ee014620001de578063e0eb33e11462000214576200009e565b80633847c28c14620000a25780637192636914620000d85780638da5cb5b146200010e57806392428d301462000130575b5f80fd5b620000c06004803603810190620000ba919062000bfe565b6200024a565b604051620000cf919062000c71565b60405180910390f35b620000f66004803603810190620000f0919062000cbb565b62000286565b60405162000105919062000c71565b60405180910390f35b62000118620002b6565b60405162000127919062000c71565b60405180910390f35b6200014e600480360381019062000148919062000d55565b620002d9565b005b6200016e600480360381019062000168919062000bfe565b6200047d565b6040516200017d919062000e89565b60405180910390f35b620001a460048036038101906200019e919062001190565b6200052c565b604051620001b3919062000c71565b60405180910390f35b620001c6620006db565b604051620001d59190620012f8565b60405180910390f35b620001fc6004803603810190620001f6919062000cbb565b620007b9565b6040516200020b9190620013e1565b60405180910390f35b6200023260048036038101906200022c919062001403565b62000a81565b60405162000241919062000c71565b60405180910390f35b600281815481106200025a575f80fd5b905f5260205f20015f915054906101000a900473ffffffffffffffffffffffffffffffffffffffff1681565b6003602052805f5260405f205f915054906101000a900473ffffffffffffffffffffffffffffffffffffffff1681565b5f8054906101000a900473ffffffffffffffffffffffffffffffffffffffff1681565b3373ffffffffffffffffffffffffffffffffffffffff1660035f8773ffffffffffffffffffffffffffffffffffffffff1673ffffffffffffffffffffffffffffffffffffffff1681526020019081526020015f205f9054906101000a900473ffffffffffffffffffffffffffffffffffffffff1673ffffffffffffffffffffffffffffffffffffffff1614620003a6576040517f08c379a00000000000000000000000000000000000000000000000000000000081526004016200039d90620014ca565b60405180910390fd5b5f5b60018054905081101562000474578484604051602001620003cb9291906200151c565b6040516020818303038152906040528051906020012060018281548110620003f857620003f762001536565b5b905f5260205f200160405160200162000412919062001662565b6040516020818303038152906040528051906020012003620004665782826001838154811062000447576200044662001536565b5b905f5260205f200191826200045e92919062001835565b505062000476565b8080600101915050620003a8565b505b5050505050565b600181815481106200048d575f80fd5b905f5260205f20015f915090508054620004a79062001590565b80601f0160208091040260200160405190810160405280929190818152602001828054620004d59062001590565b8015620005245780601f10620004fa5761010080835404028352916020019162000524565b820191905f5260205f20905b8154815290600101906020018083116200050657829003601f168201915b505050505081565b5f80826040516200053d9062000ba7565b620005499190620019eb565b604051809103905ff08015801562000563573d5f803e3d5ffd5b5090505f8190506001845f0151908060018154018082558091505060019003905f5260205f20015f909190919091509081620005a0919062001a0d565b50600281908060018154018082558091505060019003905f5260205f20015f9091909190916101000a81548173ffffffffffffffffffffffffffffffffffffffff021916908373ffffffffffffffffffffffffffffffffffffffff1602179055503360035f8373ffffffffffffffffffffffffffffffffffffffff1673ffffffffffffffffffffffffffffffffffffffff1681526020019081526020015f205f6101000a81548173ffffffffffffffffffffffffffffffffffffffff021916908373ffffffffffffffffffffffffffffffffffffffff1602179055503373ffffffffffffffffffffffffffffffffffffffff167fc23f1fa5dbe852f32a018b91715035160eb6070001a41b817e4310e83370f10c82865f0151604051620006c992919062001af1565b60405180910390a28092505050919050565b60606001805480602002602001604051908101604052809291908181526020015f905b82821015620007b0578382905f5260205f200180546200071e9062001590565b80601f01602080910402602001604051908101604052809291908181526020018280546200074c9062001590565b80156200079b5780601f1062000771576101008083540402835291602001916200079b565b820191905f5260205f20905b8154815290600101906020018083116200077d57829003601f168201915b505050505081526020019060010190620006fe565b50505050905090565b60605f60028054905067ffffffffffffffff811115620007de57620007dd62000eaf565b5b6040519080825280602002602001820160405280156200080d5781602001602082028036833780820191505090505b5090505f805b6002805490508110156200099d578473ffffffffffffffffffffffffffffffffffffffff1660035f6002848154811062000852576200085162001536565b5b905f5260205f20015f9054906101000a900473ffffffffffffffffffffffffffffffffffffffff1673ffffffffffffffffffffffffffffffffffffffff1673ffffffffffffffffffffffffffffffffffffffff1681526020019081526020015f205f9054906101000a900473ffffffffffffffffffffffffffffffffffffffff1673ffffffffffffffffffffffffffffffffffffffff16036200098f576002818154811062000906576200090562001536565b5b905f5260205f20015f9054906101000a900473ffffffffffffffffffffffffffffffffffffffff1683838151811062000944576200094362001536565b5b602002602001019073ffffffffffffffffffffffffffffffffffffffff16908173ffffffffffffffffffffffffffffffffffffffff168152505081806200098b9062001b50565b9250505b808060010191505062000813565b505f8167ffffffffffffffff811115620009bc57620009bb62000eaf565b5b604051908082528060200260200182016040528015620009eb5781602001602082028036833780820191505090505b5090505f5b8281101562000a755783818151811062000a0f5762000a0e62001536565b5b602002602001015182828151811062000a2d5762000a2c62001536565b5b602002602001019073ffffffffffffffffffffffffffffffffffffffff16908173ffffffffffffffffffffffffffffffffffffffff16815250508080600101915050620009f0565b50809350505050919050565b5f805f90505b60018054905081101562000b6357838360405160200162000aaa9291906200151c565b604051602081830303815290604052805190602001206001828154811062000ad75762000ad662001536565b5b905f5260205f200160405160200162000af1919062001662565b604051602081830303815290604052805190602001200362000b55576002818154811062000b245762000b2362001536565b5b905f5260205f20015f9054906101000a900473ffffffffffffffffffffffffffffffffffffffff1691505062000ba1565b808060010191505062000a87565b506040517f08c379a000000000000000000000000000000000000000000000000000000000815260040162000b989062001bea565b60405180910390fd5b92915050565b6146b48062001c0b83390190565b5f604051905090565b5f80fd5b5f80fd5b5f819050919050565b62000bda8162000bc6565b811462000be5575f80fd5b50565b5f8135905062000bf88162000bcf565b92915050565b5f6020828403121562000c165762000c1562000bbe565b5b5f62000c258482850162000be8565b91505092915050565b5f73ffffffffffffffffffffffffffffffffffffffff82169050919050565b5f62000c598262000c2e565b9050919050565b62000c6b8162000c4d565b82525050565b5f60208201905062000c865f83018462000c60565b92915050565b62000c978162000c4d565b811462000ca2575f80fd5b50565b5f8135905062000cb58162000c8c565b92915050565b5f6020828403121562000cd35762000cd262000bbe565b5b5f62000ce28482850162000ca5565b91505092915050565b5f80fd5b5f80fd5b5f80fd5b5f8083601f84011262000d0f5762000d0e62000ceb565b5b8235905067ffffffffffffffff81111562000d2f5762000d2e62000cef565b5b60208301915083600182028301111562000d4e5762000d4d62000cf3565b5b9250929050565b5f805f805f6060868803121562000d715762000d7062000bbe565b5b5f62000d808882890162000ca5565b955050602086013567ffffffffffffffff81111562000da45762000da362000bc2565b5b62000db28882890162000cf7565b9450945050604086013567ffffffffffffffff81111562000dd85762000dd762000bc2565b5b62000de68882890162000cf7565b92509250509295509295909350565b5f81519050919050565b5f82825260208201905092915050565b5f5b8381101562000e2e57808201518184015260208101905062000e11565b5f8484015250505050565b5f601f19601f8301169050919050565b5f62000e558262000df5565b62000e61818562000dff565b935062000e7381856020860162000e0f565b62000e7e8162000e39565b840191505092915050565b5f6020820190508181035f83015262000ea3818462000e49565b905092915050565b5f80fd5b7f4e487b71000000000000000000000000000000000000000000000000000000005f52604160045260245ffd5b62000ee78262000e39565b810181811067ffffffffffffffff8211171562000f095762000f0862000eaf565b5b80604052505050565b5f62000f1d62000bb5565b905062000f2b828262000edc565b919050565b5f80fd5b5f80fd5b5f67ffffffffffffffff82111562000f555762000f5462000eaf565b5b62000f608262000e39565b9050602081019050919050565b828183375f83830152505050565b5f62000f9162000f8b8462000f38565b62000f12565b90508281526020810184848401111562000fb05762000faf62000f34565b5b62000fbd84828562000f6d565b509392505050565b5f82601f83011262000fdc5762000fdb62000ceb565b5b813562000fee84826020860162000f7b565b91505092915050565b5f8115159050919050565b6200100d8162000ff7565b811462001018575f80fd5b50565b5f813590506200102b8162001002565b92915050565b5f60e0828403121562001049576200104862000eab565b5b6200105560e062000f12565b90505f82013567ffffffffffffffff81111562001077576200107662000f30565b5b620010858482850162000fc5565b5f83015250602082013567ffffffffffffffff811115620010ab57620010aa62000f30565b5b620010b98482850162000fc5565b602083015250604082013567ffffffffffffffff811115620010e057620010df62000f30565b5b620010ee8482850162000fc5565b604083015250606082013567ffffffffffffffff81111562001115576200111462000f30565b5b620011238482850162000fc5565b606083015250608082013567ffffffffffffffff8111156200114a576200114962000f30565b5b620011588482850162000fc5565b60808301525060a06200116e8482850162000ca5565b60a08301525060c062001184848285016200101b565b60c08301525092915050565b5f60208284031215620011a857620011a762000bbe565b5b5f82013567ffffffffffffffff811115620011c857620011c762000bc2565b5b620011d68482850162001031565b91505092915050565b5f81519050919050565b5f82825260208201905092915050565b5f819050602082019050919050565b5f82825260208201905092915050565b5f620012248262000df5565b62001230818562001208565b93506200124281856020860162000e0f565b6200124d8162000e39565b840191505092915050565b5f62001265838362001218565b905092915050565b5f602082019050919050565b5f6200128582620011df565b620012918185620011e9565b935083602082028501620012a585620011f9565b805f5b85811015620012e65784840389528151620012c4858262001258565b9450620012d1836200126d565b925060208a01995050600181019050620012a8565b50829750879550505050505092915050565b5f6020820190508181035f83015262001312818462001279565b905092915050565b5f81519050919050565b5f82825260208201905092915050565b5f819050602082019050919050565b6200134e8162000c4d565b82525050565b5f62001361838362001343565b60208301905092915050565b5f602082019050919050565b5f62001385826200131a565b62001391818562001324565b93506200139e8362001334565b805f5b83811015620013d4578151620013b8888262001354565b9750620013c5836200136d565b925050600181019050620013a1565b5085935050505092915050565b5f6020820190508181035f830152620013fb818462001379565b905092915050565b5f80602083850312156200141c576200141b62000bbe565b5b5f83013567ffffffffffffffff8111156200143c576200143b62000bc2565b5b6200144a8582860162000cf7565b92509250509250929050565b7f4f6e6c792073686f70206f776e65722063616e2075706461746520746865206e5f8201527f616d650000000000000000000000000000000000000000000000000000000000602082015250565b5f620014b260238362000dff565b9150620014bf8262001456565b604082019050919050565b5f6020820190508181035f830152620014e381620014a4565b9050919050565b5f81905092915050565b5f620015018385620014ea565b93506200151083858462000f6d565b82840190509392505050565b5f6200152a828486620014f4565b91508190509392505050565b7f4e487b71000000000000000000000000000000000000000000000000000000005f52603260045260245ffd5b7f4e487b71000000000000000000000000000000000000000000000000000000005f52602260045260245ffd5b5f6002820490506001821680620015a857607f821691505b602082108103620015be57620015bd62001563565b5b50919050565b5f819050815f5260205f209050919050565b5f8154620015e48162001590565b620015f08186620014ea565b9450600182165f81146200160d5760018114620016235762001659565b60ff198316865281151582028601935062001659565b6200162e85620015c4565b5f5b83811015620016515781548189015260018201915060208101905062001630565b838801955050505b50505092915050565b5f6200166f8284620015d6565b915081905092915050565b5f82905092915050565b5f6020601f8301049050919050565b5f82821b905092915050565b5f60088302620016d07fffffffffffffffffffffffffffffffffffffffffffffffffffffffffffffffff8262001693565b620016dc868362001693565b95508019841693508086168417925050509392505050565b5f819050919050565b5f6200171d62001717620017118462000bc6565b620016f4565b62000bc6565b9050919050565b5f819050919050565b6200173883620016fd565b62001750620017478262001724565b8484546200169f565b825550505050565b5f90565b6200176662001758565b620017738184846200172d565b505050565b5b818110156200179a576200178e5f826200175c565b60018101905062001779565b5050565b601f821115620017e957620017b381620015c4565b620017be8462001684565b81016020851015620017ce578190505b620017e6620017dd8562001684565b83018262001778565b50505b505050565b5f82821c905092915050565b5f6200180b5f1984600802620017ee565b1980831691505092915050565b5f620018258383620017fa565b9150826002028217905092915050565b6200184183836200167a565b67ffffffffffffffff8111156200185d576200185c62000eaf565b5b62001869825462001590565b620018768282856200179e565b5f601f831160018114620018a8575f841562001893578287013590505b6200189f858262001818565b8655506200190e565b601f198416620018b886620015c4565b5f5b82811015620018e157848901358255600182019150602085019450602081019050620018ba565b86831015620019015784890135620018fd601f891682620017fa565b8355505b6001600288020188555050505b50505050505050565b620019228162000ff7565b82525050565b5f60e083015f8301518482035f86015262001944828262001218565b9150506020830151848203602086015262001960828262001218565b915050604083015184820360408601526200197c828262001218565b9150506060830151848203606086015262001998828262001218565b91505060808301518482036080860152620019b4828262001218565b91505060a0830151620019cb60a086018262001343565b5060c0830151620019e060c086018262001917565b508091505092915050565b5f6020820190508181035f83015262001a05818462001928565b905092915050565b62001a188262000df5565b67ffffffffffffffff81111562001a345762001a3362000eaf565b5b62001a40825462001590565b62001a4d8282856200179e565b5f60209050601f83116001811462001a83575f841562001a6e578287015190505b62001a7a858262001818565b86555062001ae9565b601f19841662001a9386620015c4565b5f5b8281101562001abc5784890151825560018201915060208501945060208101905062001a95565b8683101562001adc578489015162001ad8601f891682620017fa565b8355505b6001600288020188555050505b505050505050565b5f60408201905062001b065f83018562000c60565b818103602083015262001b1a818462000e49565b90509392505050565b7f4e487b71000000000000000000000000000000000000000000000000000000005f52601160045260245ffd5b5f62001b5c8262000bc6565b91507fffffffffffffffffffffffffffffffffffffffffffffffffffffffffffffffff820362001b915762001b9062001b23565b5b600182019050919050565b7f53686f70206e6f7420666f756e640000000000000000000000000000000000005f82015250565b5f62001bd2600e8362000dff565b915062001bdf8262001b9c565b602082019050919050565b5f6020820190508181035f83015262001c038162001bc4565b905091905056fe608060405234801562000010575f80fd5b50604051620046b4380380620046b48339818101604052810190620000369190620004b3565b805f80820151815f0190816200004d919062000739565b50602082015181600101908162000065919062000739565b5060408201518160020190816200007d919062000739565b50606082015181600301908162000095919062000739565b506080820151816004019081620000ad919062000739565b5060a0820151816005015f6101000a81548173ffffffffffffffffffffffffffffffffffffffff021916908373ffffffffffffffffffffffffffffffffffffffff16021790555060c08201518160050160146101000a81548160ff0219169083151502179055509050505f6006819055505f600781905550506200081d565b5f604051905090565b5f80fd5b5f80fd5b5f80fd5b5f601f19601f8301169050919050565b7f4e487b71000000000000000000000000000000000000000000000000000000005f52604160045260245ffd5b620001898262000141565b810181811067ffffffffffffffff82111715620001ab57620001aa62000151565b5b80604052505050565b5f620001bf6200012c565b9050620001cd82826200017e565b919050565b5f80fd5b5f80fd5b5f80fd5b5f67ffffffffffffffff821115620001fb57620001fa62000151565b5b620002068262000141565b9050602081019050919050565b5f5b838110156200023257808201518184015260208101905062000215565b5f8484015250505050565b5f620002536200024d84620001de565b620001b4565b905082815260208101848484011115620002725762000271620001da565b5b6200027f84828562000213565b509392505050565b5f82601f8301126200029e576200029d620001d6565b5b8151620002b08482602086016200023d565b91505092915050565b5f73ffffffffffffffffffffffffffffffffffffffff82169050919050565b5f620002e482620002b9565b9050919050565b620002f681620002d8565b811462000301575f80fd5b50565b5f815190506200031481620002eb565b92915050565b5f8115159050919050565b62000330816200031a565b81146200033b575f80fd5b50565b5f815190506200034e8162000325565b92915050565b5f60e082840312156200036c576200036b6200013d565b5b6200037860e0620001b4565b90505f82015167ffffffffffffffff8111156200039a5762000399620001d2565b5b620003a88482850162000287565b5f83015250602082015167ffffffffffffffff811115620003ce57620003cd620001d2565b5b620003dc8482850162000287565b602083015250604082015167ffffffffffffffff811115620004035762000402620001d2565b5b620004118482850162000287565b604083015250606082015167ffffffffffffffff811115620004385762000437620001d2565b5b620004468482850162000287565b606083015250608082015167ffffffffffffffff8111156200046d576200046c620001d2565b5b6200047b8482850162000287565b60808301525060a0620004918482850162000304565b60a08301525060c0620004a7848285016200033e565b60c08301525092915050565b5f60208284031215620004cb57620004ca62000135565b5b5f82015167ffffffffffffffff811115620004eb57620004ea62000139565b5b620004f98482850162000354565b91505092915050565b5f81519050919050565b7f4e487b71000000000000000000000000000000000000000000000000000000005f52602260045260245ffd5b5f60028204905060018216806200055157607f821691505b6020821081036200056757620005666200050c565b5b50919050565b5f819050815f5260205f209050919050565b5f6020601f8301049050919050565b5f82821b905092915050565b5f60088302620005cb7fffffffffffffffffffffffffffffffffffffffffffffffffffffffffffffffff826200058e565b620005d786836200058e565b95508019841693508086168417925050509392505050565b5f819050919050565b5f819050919050565b5f620006216200061b6200061584620005ef565b620005f8565b620005ef565b9050919050565b5f819050919050565b6200063c8362000601565b620006546200064b8262000628565b8484546200059a565b825550505050565b5f90565b6200066a6200065c565b6200067781848462000631565b505050565b5b818110156200069e57620006925f8262000660565b6001810190506200067d565b5050565b601f821115620006ed57620006b7816200056d565b620006c2846200057f565b81016020851015620006d2578190505b620006ea620006e1856200057f565b8301826200067c565b50505b505050565b5f82821c905092915050565b5f6200070f5f1984600802620006f2565b1980831691505092915050565b5f620007298383620006fe565b9150826002028217905092915050565b620007448262000502565b67ffffffffffffffff81111562000760576200075f62000151565b5b6200076c825462000539565b62000779828285620006a2565b5f60209050601f831160018114620007af575f84156200079a578287015190505b620007a685826200071c565b86555062000815565b601f198416620007bf866200056d565b5f5b82811015620007e857848901518255600182019150602085019450602081019050620007c1565b8683101562000808578489015162000804601f891682620006fe565b8355505b6001600288020188555050505b505050505050565b613e89806200082b5f395ff3fe608060405234801561000f575f80fd5b5060043610610114575f3560e01c8063a5cb2b01116100a0578063cdc4777d1161006f578063cdc4777d146102a0578063ce740618146102bc578063d8470f92146102e0578063e0f6ef87146102fc578063eb88676e1461031a57610114565b8063a5cb2b01146101fa578063a85c38ef14610216578063bfb231d21461024b578063c89a9b151461028257610114565b806349ce62b3116100e757806349ce62b31461017a5780634a348da9146101845780634ba1d6aa146101a2578063762d680e146101c0578063a21dd86d146101de57610114565b80632156a96c146101185780632197e883146101365780632453ffa81461014057806330c25c061461015e575b5f80fd5b610120610336565b60405161012d9190612362565b60405180910390f35b61013e61037e565b005b61014861047e565b6040516101559190612362565b60405180910390f35b61017860048036038101906101739190612796565b610484565b005b610182610731565b005b61018c610833565b6040516101999190612362565b60405180910390f35b6101aa61083c565b6040516101b79190612ad0565b60405180910390f35b6101c8610cc4565b6040516101d59190612be4565b60405180910390f35b6101f860048036038101906101f39190612c04565b61101c565b005b610214600480360381019061020f9190612d1e565b6112c5565b005b610230600480360381019061022b9190612e21565b611697565b60405161024296959493929190612ea3565b60405180910390f35b61026560048036038101906102609190612e21565b611880565b604051610279989796959493929190612f26565b60405180910390f35b61028a611b6e565b6040516102979190612fc5565b60405180910390f35b6102ba60048036038101906102b59190612fde565b611b86565b005b6102c4611d0c565b6040516102d79796959493929190613038565b60405180910390f35b6102fa60048036038101906102f591906130c8565b612004565b005b6103046120bc565b6040516103119190612362565b60405180910390f35b610334600480360381019061032f9190613197565b6120c2565b005b5f805f90505f5b6007548110156103765760095f8281526020019081526020015f2060030154826103679190613235565b9150808060010191505061033d565b508091505090565b5f6005015f9054906101000a900473ffffffffffffffffffffffffffffffffffffffff1673ffffffffffffffffffffffffffffffffffffffff163373ffffffffffffffffffffffffffffffffffffffff161461040f576040517f08c379a0000000000000000000000000000000000000000000000000000000008152600401610406906132b2565b60405180910390fd5b5f60050160149054906101000a900460ff16610460576040517f08c379a00000000000000000000000000000000000000000000000000000000081526004016104579061331a565b60405180910390fd5b5f8060050160146101000a81548160ff021916908315150217905550565b60075481565b5f6005015f9054906101000a900473ffffffffffffffffffffffffffffffffffffffff1673ffffffffffffffffffffffffffffffffffffffff163373ffffffffffffffffffffffffffffffffffffffff1614610515576040517f08c379a000000000000000000000000000000000000000000000000000000000815260040161050c90613382565b60405180910390fd5b604051806101200160405280825f01518152602001826020015181526020018260400151815260200182606001518152602001826080015181526020018260a00151151581526020018260c0015181526020018260e0015181526020018261010001515167ffffffffffffffff811115610592576105916123a0565b5b6040519080825280602002602001820160405280156105c557816020015b60608152602001906001900390816105b05790505b5081525060085f60065481526020019081526020015f205f820151815f0190816105ef919061359a565b506020820151816001019081610605919061359a565b50604082015181600201908161061b919061359a565b50606082015181600301556080820151816004015560a0820151816005015f6101000a81548160ff02191690831515021790555060c0820151816006019081610664919061359a565b5060e082015181600701908161067a919061359a565b506101008201518160080190805190602001906106989291906121da565b509050505f5b816101000151518110156107165781610100015181815181106106c4576106c3613669565b5b602002602001015160085f60065481526020019081526020015f2060080182815481106106f4576106f3613669565b5b905f5260205f20019081610708919061359a565b50808060010191505061069e565b5060065f81548092919061072990613696565b919050555050565b5f6005015f9054906101000a900473ffffffffffffffffffffffffffffffffffffffff1673ffffffffffffffffffffffffffffffffffffffff163373ffffffffffffffffffffffffffffffffffffffff16146107c2576040517f08c379a00000000000000000000000000000000000000000000000000000000081526004016107b990613727565b60405180910390fd5b5f60050160149054906101000a900460ff1615610814576040517f08c379a000000000000000000000000000000000000000000000000000000000815260040161080b9061378f565b60405180910390fd5b60015f60050160146101000a81548160ff021916908315150217905550565b5f600654905090565b60605f60065467ffffffffffffffff81111561085b5761085a6123a0565b5b60405190808252806020026020018201604052801561089457816020015b610881612231565b8152602001906001900390816108795790505b5090505f5b600654811015610cbc5760085f8281526020019081526020015f20604051806101200160405290815f820180546108cf906133cd565b80601f01602080910402602001604051908101604052809291908181526020018280546108fb906133cd565b80156109465780601f1061091d57610100808354040283529160200191610946565b820191905f5260205f20905b81548152906001019060200180831161092957829003601f168201915b5050505050815260200160018201805461095f906133cd565b80601f016020809104026020016040519081016040528092919081815260200182805461098b906133cd565b80156109d65780601f106109ad576101008083540402835291602001916109d6565b820191905f5260205f20905b8154815290600101906020018083116109b957829003601f168201915b505050505081526020016002820180546109ef906133cd565b80601f0160208091040260200160405190810160405280929190818152602001828054610a1b906133cd565b8015610a665780601f10610a3d57610100808354040283529160200191610a66565b820191905f5260205f20905b815481529060010190602001808311610a4957829003601f168201915b505050505081526020016003820154815260200160048201548152602001600582015f9054906101000a900460ff16151515158152602001600682018054610aad906133cd565b80601f0160208091040260200160405190810160405280929190818152602001828054610ad9906133cd565b8015610b245780601f10610afb57610100808354040283529160200191610b24565b820191905f5260205f20905b815481529060010190602001808311610b0757829003601f168201915b50505050508152602001600782018054610b3d906133cd565b80601f0160208091040260200160405190810160405280929190818152602001828054610b69906133cd565b8015610bb45780601f10610b8b57610100808354040283529160200191610bb4565b820191905f5260205f20905b815481529060010190602001808311610b9757829003601f168201915b5050505050815260200160088201805480602002602001604051908101604052809291908181526020015f905b82821015610c89578382905f5260205f20018054610bfe906133cd565b80601f0160208091040260200160405190810160405280929190818152602001828054610c2a906133cd565b8015610c755780601f10610c4c57610100808354040283529160200191610c75565b820191905f5260205f20905b815481529060010190602001808311610c5857829003601f168201915b505050505081526020019060010190610be1565b5050505081525050828281518110610ca457610ca3613669565b5b60200260200101819052508080600101915050610899565b508091505090565b610ccc61227c565b5f6040518060e00160405290815f82018054610ce7906133cd565b80601f0160208091040260200160405190810160405280929190818152602001828054610d13906133cd565b8015610d5e5780601f10610d3557610100808354040283529160200191610d5e565b820191905f5260205f20905b815481529060010190602001808311610d4157829003601f168201915b50505050508152602001600182018054610d77906133cd565b80601f0160208091040260200160405190810160405280929190818152602001828054610da3906133cd565b8015610dee5780601f10610dc557610100808354040283529160200191610dee565b820191905f5260205f20905b815481529060010190602001808311610dd157829003601f168201915b50505050508152602001600282018054610e07906133cd565b80601f0160208091040260200160405190810160405280929190818152602001828054610e33906133cd565b8015610e7e5780601f10610e5557610100808354040283529160200191610e7e565b820191905f5260205f20905b815481529060010190602001808311610e6157829003601f168201915b50505050508152602001600382018054610e97906133cd565b80601f0160208091040260200160405190810160405280929190818152602001828054610ec3906133cd565b8015610f0e5780601f10610ee557610100808354040283529160200191610f0e565b820191905f5260205f20905b815481529060010190602001808311610ef157829003601f168201915b50505050508152602001600482018054610f27906133cd565b80601f0160208091040260200160405190810160405280929190818152602001828054610f53906133cd565b8015610f9e5780601f10610f7557610100808354040283529160200191610f9e565b820191905f5260205f20905b815481529060010190602001808311610f8157829003601f168201915b50505050508152602001600582015f9054906101000a900473ffffffffffffffffffffffffffffffffffffffff1673ffffffffffffffffffffffffffffffffffffffff1673ffffffffffffffffffffffffffffffffffffffff1681526020016005820160149054906101000a900460ff161515151581525050905090565b5f6005015f9054906101000a900473ffffffffffffffffffffffffffffffffffffffff1673ffffffffffffffffffffffffffffffffffffffff163373ffffffffffffffffffffffffffffffffffffffff16146110ad576040517f08c379a00000000000000000000000000000000000000000000000000000000081526004016110a4906137f7565b60405180910390fd5b60065481106110f1576040517f08c379a00000000000000000000000000000000000000000000000000000000081526004016110e89061385f565b60405180910390fd5b816020015160085f8381526020019081526020015f206001019081611116919061359a565b50816040015160085f8381526020019081526020015f20600201908161113c919061359a565b50816060015160085f8381526020019081526020015f2060030181905550816080015160085f8381526020019081526020015f20600401819055508160a0015160085f8381526020019081526020015f206005015f6101000a81548160ff0219169083151502179055508160e0015160085f8381526020019081526020015f2060070190816111cb919061359a565b508161010001515167ffffffffffffffff8111156111ec576111eb6123a0565b5b60405190808252806020026020018201604052801561121f57816020015b606081526020019060019003908161120a5790505b5060085f8381526020019081526020015f2060080190805190602001906112479291906121da565b505f5b826101000151518110156112c05782610100015181815181106112705761126f613669565b5b602002602001015160085f8481526020019081526020015f20600801828154811061129e5761129d613669565b5b905f5260205f200190816112b2919061359a565b50808060010191505061124a565b505050565b8351855114611309576040517f08c379a0000000000000000000000000000000000000000000000000000000008152600401611300906138ed565b60405180910390fd5b825185511461134d576040517f08c379a00000000000000000000000000000000000000000000000000000000081526004016113449061397b565b60405180910390fd5b5f855111611390576040517f08c379a0000000000000000000000000000000000000000000000000000000008152600401611387906139e3565b60405180910390fd5b5f5b855181101561168f575f8682815181106113af576113ae613669565b5b602002602001015190505f8683815181106113cd576113cc613669565b5b602002602001015190505f8684815181106113eb576113ea613669565b5b602002602001015190505f805f5b60065481101561145157858051906020012060085f8381526020019081526020015f205f0160405161142b9190613a9d565b6040518091039020036114445760019250809150611451565b80806001019150506113f9565b5081611492576040517f08c379a00000000000000000000000000000000000000000000000000000000081526004016114899061385f565b60405180910390fd5b60085f8281526020019081526020015f206005015f9054906101000a900460ff166114f2576040517f08c379a00000000000000000000000000000000000000000000000000000000081526004016114e990613afd565b60405180910390fd5b8360085f8381526020019081526020015f20600401541015611549576040517f08c379a000000000000000000000000000000000000000000000000000000000815260040161154090613b65565b60405180910390fd5b6040518060c001604052803373ffffffffffffffffffffffffffffffffffffffff1681526020018681526020018581526020018481526020018981526020018881525060095f60075481526020019081526020015f205f820151815f015f6101000a81548173ffffffffffffffffffffffffffffffffffffffff021916908373ffffffffffffffffffffffffffffffffffffffff16021790555060208201518160010190816115f8919061359a565b5060408201518160020155606082015181600301556080820151816004019081611622919061359a565b5060a0820151816005019081611638919061359a565b509050508360085f8381526020019081526020015f206004015f82825461165f9190613b83565b9250508190555060075f81548092919061167890613696565b919050555050505050508080600101915050611392565b505050505050565b6009602052805f5260405f205f91509050805f015f9054906101000a900473ffffffffffffffffffffffffffffffffffffffff16908060010180546116db906133cd565b80601f0160208091040260200160405190810160405280929190818152602001828054611707906133cd565b80156117525780601f1061172957610100808354040283529160200191611752565b820191905f5260205f20905b81548152906001019060200180831161173557829003601f168201915b505050505090806002015490806003015490806004018054611773906133cd565b80601f016020809104026020016040519081016040528092919081815260200182805461179f906133cd565b80156117ea5780601f106117c1576101008083540402835291602001916117ea565b820191905f5260205f20905b8154815290600101906020018083116117cd57829003601f168201915b5050505050908060050180546117ff906133cd565b80601f016020809104026020016040519081016040528092919081815260200182805461182b906133cd565b80156118765780601f1061184d57610100808354040283529160200191611876565b820191905f5260205f20905b81548152906001019060200180831161185957829003601f168201915b5050505050905086565b6008602052805f5260405f205f91509050805f01805461189f906133cd565b80601f01602080910402602001604051908101604052809291908181526020018280546118cb906133cd565b80156119165780601f106118ed57610100808354040283529160200191611916565b820191905f5260205f20905b8154815290600101906020018083116118f957829003601f168201915b50505050509080600101805461192b906133cd565b80601f0160208091040260200160405190810160405280929190818152602001828054611957906133cd565b80156119a25780601f10611979576101008083540402835291602001916119a2565b820191905f5260205f20905b81548152906001019060200180831161198557829003601f168201915b5050505050908060020180546119b7906133cd565b80601f01602080910402602001604051908101604052809291908181526020018280546119e3906133cd565b8015611a2e5780601f10611a0557610100808354040283529160200191611a2e565b820191905f5260205f20905b815481529060010190602001808311611a1157829003601f168201915b505050505090806003015490806004015490806005015f9054906101000a900460ff1690806006018054611a61906133cd565b80601f0160208091040260200160405190810160405280929190818152602001828054611a8d906133cd565b8015611ad85780601f10611aaf57610100808354040283529160200191611ad8565b820191905f5260205f20905b815481529060010190602001808311611abb57829003601f168201915b505050505090806007018054611aed906133cd565b80601f0160208091040260200160405190810160405280929190818152602001828054611b19906133cd565b8015611b645780601f10611b3b57610100808354040283529160200191611b64565b820191905f5260205f20905b815481529060010190602001808311611b4757829003601f168201915b5050505050905088565b5f8060050160149054906101000a900460ff16905090565b5f6005015f9054906101000a900473ffffffffffffffffffffffffffffffffffffffff1673ffffffffffffffffffffffffffffffffffffffff163373ffffffffffffffffffffffffffffffffffffffff1614611c17576040517f08c379a0000000000000000000000000000000000000000000000000000000008152600401611c0e90613c00565b60405180910390fd5b6006548210611c5b576040517f08c379a0000000000000000000000000000000000000000000000000000000008152600401611c529061385f565b60405180910390fd5b60085f8381526020019081526020015f206005015f9054906101000a900460ff16611cbb576040517f08c379a0000000000000000000000000000000000000000000000000000000008152600401611cb290613c68565b60405180910390fd5b5f60085f8481526020019081526020015f206005015f6101000a81548160ff0219169083151502179055508060085f8481526020019081526020015f206007019081611d07919061359a565b505050565b5f805f018054611d1b906133cd565b80601f0160208091040260200160405190810160405280929190818152602001828054611d47906133cd565b8015611d925780601f10611d6957610100808354040283529160200191611d92565b820191905f5260205f20905b815481529060010190602001808311611d7557829003601f168201915b505050505090806001018054611da7906133cd565b80601f0160208091040260200160405190810160405280929190818152602001828054611dd3906133cd565b8015611e1e5780601f10611df557610100808354040283529160200191611e1e565b820191905f5260205f20905b815481529060010190602001808311611e0157829003601f168201915b505050505090806002018054611e33906133cd565b80601f0160208091040260200160405190810160405280929190818152602001828054611e5f906133cd565b8015611eaa5780601f10611e8157610100808354040283529160200191611eaa565b820191905f5260205f20905b815481529060010190602001808311611e8d57829003601f168201915b505050505090806003018054611ebf906133cd565b80601f0160208091040260200160405190810160405280929190818152602001828054611eeb906133cd565b8015611f365780601f10611f0d57610100808354040283529160200191611f36565b820191905f5260205f20905b815481529060010190602001808311611f1957829003601f168201915b505050505090806004018054611f4b906133cd565b80601f0160208091040260200160405190810160405280929190818152602001828054611f77906133cd565b8015611fc25780601f10611f9957610100808354040283529160200191611fc2565b820191905f5260205f20905b815481529060010190602001808311611fa557829003601f168201915b505050505090806005015f9054906101000a900473ffffffffffffffffffffffffffffffffffffffff16908060050160149054906101000a900460ff16905087565b5f6005015f9054906101000a900473ffffffffffffffffffffffffffffffffffffffff1673ffffffffffffffffffffffffffffffffffffffff163373ffffffffffffffffffffffffffffffffffffffff1614612095576040517f08c379a000000000000000000000000000000000000000000000000000000000815260040161208c90613cf6565b60405180910390fd5b815f60030190816120a6919061359a565b50805f800190816120b7919061359a565b505050565b60065481565b5f6005015f9054906101000a900473ffffffffffffffffffffffffffffffffffffffff1673ffffffffffffffffffffffffffffffffffffffff163373ffffffffffffffffffffffffffffffffffffffff1614612153576040517f08c379a000000000000000000000000000000000000000000000000000000000815260040161214a90613d5e565b60405180910390fd5b6006548410612197576040517f08c379a000000000000000000000000000000000000000000000000000000000815260040161218e9061385f565b60405180910390fd5b8260085f8681526020019081526020015f2060040181905550818160085f8781526020019081526020015f2060070191826121d3929190613d86565b5050505050565b828054828255905f5260205f20908101928215612220579160200282015b8281111561221f57825182908161220f919061359a565b50916020019190600101906121f8565b5b50905061222d91906122cf565b5090565b6040518061012001604052806060815260200160608152602001606081526020015f81526020015f81526020015f151581526020016060815260200160608152602001606081525090565b6040518060e0016040528060608152602001606081526020016060815260200160608152602001606081526020015f73ffffffffffffffffffffffffffffffffffffffff1681526020015f151581525090565b5b808211156122ee575f81816122e591906122f2565b506001016122d0565b5090565b5080546122fe906133cd565b5f825580601f1061230f575061232c565b601f0160209004905f5260205f209081019061232b919061232f565b5b50565b5b80821115612346575f815f905550600101612330565b5090565b5f819050919050565b61235c8161234a565b82525050565b5f6020820190506123755f830184612353565b92915050565b5f604051905090565b5f80fd5b5f80fd5b5f80fd5b5f601f19601f8301169050919050565b7f4e487b71000000000000000000000000000000000000000000000000000000005f52604160045260245ffd5b6123d682612390565b810181811067ffffffffffffffff821117156123f5576123f46123a0565b5b80604052505050565b5f61240761237b565b905061241382826123cd565b919050565b5f80fd5b5f80fd5b5f80fd5b5f67ffffffffffffffff82111561243e5761243d6123a0565b5b61244782612390565b9050602081019050919050565b828183375f83830152505050565b5f61247461246f84612424565b6123fe565b9050828152602081018484840111156124905761248f612420565b5b61249b848285612454565b509392505050565b5f82601f8301126124b7576124b661241c565b5b81356124c7848260208601612462565b91505092915050565b6124d98161234a565b81146124e3575f80fd5b50565b5f813590506124f4816124d0565b92915050565b5f8115159050919050565b61250e816124fa565b8114612518575f80fd5b50565b5f8135905061252981612505565b92915050565b5f67ffffffffffffffff821115612549576125486123a0565b5b602082029050602081019050919050565b5f80fd5b5f61257061256b8461252f565b6123fe565b905080838252602082019050602084028301858111156125935761259261255a565b5b835b818110156125da57803567ffffffffffffffff8111156125b8576125b761241c565b5b8086016125c589826124a3565b85526020850194505050602081019050612595565b5050509392505050565b5f82601f8301126125f8576125f761241c565b5b813561260884826020860161255e565b91505092915050565b5f61012082840312156126275761262661238c565b5b6126326101206123fe565b90505f82013567ffffffffffffffff81111561265157612650612418565b5b61265d848285016124a3565b5f83015250602082013567ffffffffffffffff8111156126805761267f612418565b5b61268c848285016124a3565b602083015250604082013567ffffffffffffffff8111156126b0576126af612418565b5b6126bc848285016124a3565b60408301525060606126d0848285016124e6565b60608301525060806126e4848285016124e6565b60808301525060a06126f88482850161251b565b60a08301525060c082013567ffffffffffffffff81111561271c5761271b612418565b5b612728848285016124a3565b60c08301525060e082013567ffffffffffffffff81111561274c5761274b612418565b5b612758848285016124a3565b60e08301525061010082013567ffffffffffffffff81111561277d5761277c612418565b5b612789848285016125e4565b6101008301525092915050565b5f602082840312156127ab576127aa612384565b5b5f82013567ffffffffffffffff8111156127c8576127c7612388565b5b6127d484828501612611565b91505092915050565b5f81519050919050565b5f82825260208201905092915050565b5f819050602082019050919050565b5f81519050919050565b5f82825260208201905092915050565b5f5b8381101561283d578082015181840152602081019050612822565b5f8484015250505050565b5f61285282612806565b61285c8185612810565b935061286c818560208601612820565b61287581612390565b840191505092915050565b6128898161234a565b82525050565b612898816124fa565b82525050565b5f81519050919050565b5f82825260208201905092915050565b5f819050602082019050919050565b5f6128d28383612848565b905092915050565b5f602082019050919050565b5f6128f08261289e565b6128fa81856128a8565b93508360208202850161290c856128b8565b805f5b85811015612947578484038952815161292885826128c7565b9450612933836128da565b925060208a0199505060018101905061290f565b50829750879550505050505092915050565b5f61012083015f8301518482035f8601526129748282612848565b9150506020830151848203602086015261298e8282612848565b915050604083015184820360408601526129a88282612848565b91505060608301516129bd6060860182612880565b5060808301516129d06080860182612880565b5060a08301516129e360a086018261288f565b5060c083015184820360c08601526129fb8282612848565b91505060e083015184820360e0860152612a158282612848565b915050610100830151848203610100860152612a3182826128e6565b9150508091505092915050565b5f612a498383612959565b905092915050565b5f602082019050919050565b5f612a67826127dd565b612a7181856127e7565b935083602082028501612a83856127f7565b805f5b85811015612abe5784840389528151612a9f8582612a3e565b9450612aaa83612a51565b925060208a01995050600181019050612a86565b50829750879550505050505092915050565b5f6020820190508181035f830152612ae88184612a5d565b905092915050565b5f73ffffffffffffffffffffffffffffffffffffffff82169050919050565b5f612b1982612af0565b9050919050565b612b2981612b0f565b82525050565b5f60e083015f8301518482035f860152612b498282612848565b91505060208301518482036020860152612b638282612848565b91505060408301518482036040860152612b7d8282612848565b91505060608301518482036060860152612b978282612848565b91505060808301518482036080860152612bb18282612848565b91505060a0830151612bc660a0860182612b20565b5060c0830151612bd960c086018261288f565b508091505092915050565b5f6020820190508181035f830152612bfc8184612b2f565b905092915050565b5f8060408385031215612c1a57612c19612384565b5b5f83013567ffffffffffffffff811115612c3757612c36612388565b5b612c4385828601612611565b9250506020612c54858286016124e6565b9150509250929050565b5f67ffffffffffffffff821115612c7857612c776123a0565b5b602082029050602081019050919050565b5f612c9b612c9684612c5e565b6123fe565b90508083825260208201905060208402830185811115612cbe57612cbd61255a565b5b835b81811015612ce75780612cd388826124e6565b845260208401935050602081019050612cc0565b5050509392505050565b5f82601f830112612d0557612d0461241c565b5b8135612d15848260208601612c89565b91505092915050565b5f805f805f60a08688031215612d3757612d36612384565b5b5f86013567ffffffffffffffff811115612d5457612d53612388565b5b612d60888289016125e4565b955050602086013567ffffffffffffffff811115612d8157612d80612388565b5b612d8d88828901612cf1565b945050604086013567ffffffffffffffff811115612dae57612dad612388565b5b612dba88828901612cf1565b935050606086013567ffffffffffffffff811115612ddb57612dda612388565b5b612de7888289016124a3565b925050608086013567ffffffffffffffff811115612e0857612e07612388565b5b612e14888289016124a3565b9150509295509295909350565b5f60208284031215612e3657612e35612384565b5b5f612e43848285016124e6565b91505092915050565b612e5581612b0f565b82525050565b5f82825260208201905092915050565b5f612e7582612806565b612e7f8185612e5b565b9350612e8f818560208601612820565b612e9881612390565b840191505092915050565b5f60c082019050612eb65f830189612e4c565b8181036020830152612ec88188612e6b565b9050612ed76040830187612353565b612ee46060830186612353565b8181036080830152612ef68185612e6b565b905081810360a0830152612f0a8184612e6b565b9050979650505050505050565b612f20816124fa565b82525050565b5f610100820190508181035f830152612f3f818b612e6b565b90508181036020830152612f53818a612e6b565b90508181036040830152612f678189612e6b565b9050612f766060830188612353565b612f836080830187612353565b612f9060a0830186612f17565b81810360c0830152612fa28185612e6b565b905081810360e0830152612fb68184612e6b565b90509998505050505050505050565b5f602082019050612fd85f830184612f17565b92915050565b5f8060408385031215612ff457612ff3612384565b5b5f613001858286016124e6565b925050602083013567ffffffffffffffff81111561302257613021612388565b5b61302e858286016124a3565b9150509250929050565b5f60e0820190508181035f830152613050818a612e6b565b905081810360208301526130648189612e6b565b905081810360408301526130788188612e6b565b9050818103606083015261308c8187612e6b565b905081810360808301526130a08186612e6b565b90506130af60a0830185612e4c565b6130bc60c0830184612f17565b98975050505050505050565b5f80604083850312156130de576130dd612384565b5b5f83013567ffffffffffffffff8111156130fb576130fa612388565b5b613107858286016124a3565b925050602083013567ffffffffffffffff81111561312857613127612388565b5b613134858286016124a3565b9150509250929050565b5f80fd5b5f8083601f8401126131575761315661241c565b5b8235905067ffffffffffffffff8111156131745761317361313e565b5b6020830191508360018202830111156131905761318f61255a565b5b9250929050565b5f805f80606085870312156131af576131ae612384565b5b5f6131bc878288016124e6565b94505060206131cd878288016124e6565b935050604085013567ffffffffffffffff8111156131ee576131ed612388565b5b6131fa87828801613142565b925092505092959194509250565b7f4e487b71000000000000000000000000000000000000000000000000000000005f52601160045260245ffd5b5f61323f8261234a565b915061324a8361234a565b925082820190508082111561326257613261613208565b5b92915050565b7f4f6e6c79206f776e65722063616e20756e7075626c6973682073686f700000005f82015250565b5f61329c601d83612e5b565b91506132a782613268565b602082019050919050565b5f6020820190508181035f8301526132c981613290565b9050919050565b7f53686f70206973206e6f74207075626c697368656400000000000000000000005f82015250565b5f613304601583612e5b565b915061330f826132d0565b602082019050919050565b5f6020820190508181035f830152613331816132f8565b9050919050565b7f4f6e6c79206f776e65722063616e206164642070726f647563747300000000005f82015250565b5f61336c601b83612e5b565b915061337782613338565b602082019050919050565b5f6020820190508181035f83015261339981613360565b9050919050565b7f4e487b71000000000000000000000000000000000000000000000000000000005f52602260045260245ffd5b5f60028204905060018216806133e457607f821691505b6020821081036133f7576133f66133a0565b5b50919050565b5f819050815f5260205f209050919050565b5f6020601f8301049050919050565b5f82821b905092915050565b5f600883026134597fffffffffffffffffffffffffffffffffffffffffffffffffffffffffffffffff8261341e565b613463868361341e565b95508019841693508086168417925050509392505050565b5f819050919050565b5f61349e6134996134948461234a565b61347b565b61234a565b9050919050565b5f819050919050565b6134b783613484565b6134cb6134c3826134a5565b84845461342a565b825550505050565b5f90565b6134df6134d3565b6134ea8184846134ae565b505050565b5b8181101561350d576135025f826134d7565b6001810190506134f0565b5050565b601f82111561355257613523816133fd565b61352c8461340f565b8101602085101561353b578190505b61354f6135478561340f565b8301826134ef565b50505b505050565b5f82821c905092915050565b5f6135725f1984600802613557565b1980831691505092915050565b5f61358a8383613563565b9150826002028217905092915050565b6135a382612806565b67ffffffffffffffff8111156135bc576135bb6123a0565b5b6135c682546133cd565b6135d1828285613511565b5f60209050601f831160018114613602575f84156135f0578287015190505b6135fa858261357f565b865550613661565b601f198416613610866133fd565b5f5b8281101561363757848901518255600182019150602085019450602081019050613612565b868310156136545784890151613650601f891682613563565b8355505b6001600288020188555050505b505050505050565b7f4e487b71000000000000000000000000000000000000000000000000000000005f52603260045260245ffd5b5f6136a08261234a565b91507fffffffffffffffffffffffffffffffffffffffffffffffffffffffffffffffff82036136d2576136d1613208565b5b600182019050919050565b7f4f6e6c79206f776e65722063616e207075626c6973682073686f7000000000005f82015250565b5f613711601b83612e5b565b915061371c826136dd565b602082019050919050565b5f6020820190508181035f83015261373e81613705565b9050919050565b7f53686f7020697320616c7265616479207075626c6973686564000000000000005f82015250565b5f613779601983612e5b565b915061378482613745565b602082019050919050565b5f6020820190508181035f8301526137a68161376d565b9050919050565b7f4f6e6c79206f776e65722063616e207570646174652070726f647563747300005f82015250565b5f6137e1601e83612e5b565b91506137ec826137ad565b602082019050919050565b5f6020820190508181035f83015261380e816137d5565b9050919050565b7f50726f6475637420646f6573206e6f74206578697374000000000000000000005f82015250565b5f613849601683612e5b565b915061385482613815565b602082019050919050565b5f6020820190508181035f8301526138768161383d565b9050919050565b7f4974656d2049447320616e64207175616e746974696573206c656e677468206d5f8201527f69736d6174636800000000000000000000000000000000000000000000000000602082015250565b5f6138d7602783612e5b565b91506138e28261387d565b604082019050919050565b5f6020820190508181035f830152613904816138cb565b9050919050565b7f4974656d2049447320616e6420707269636573206c656e677468206d69736d615f8201527f7463680000000000000000000000000000000000000000000000000000000000602082015250565b5f613965602383612e5b565b91506139708261390b565b604082019050919050565b5f6020820190508181035f83015261399281613959565b9050919050565b7f4e6f206974656d732070726f76696465640000000000000000000000000000005f82015250565b5f6139cd601183612e5b565b91506139d882613999565b602082019050919050565b5f6020820190508181035f8301526139fa816139c1565b9050919050565b5f81905092915050565b5f819050815f5260205f209050919050565b5f8154613a29816133cd565b613a338186613a01565b9450600182165f8114613a4d5760018114613a6257613a94565b60ff1983168652811515820286019350613a94565b613a6b85613a0b565b5f5b83811015613a8c57815481890152600182019150602081019050613a6d565b838801955050505b50505092915050565b5f613aa88284613a1d565b915081905092915050565b7f50726f64756374206973206e6f742061637469766500000000000000000000005f82015250565b5f613ae7601583612e5b565b9150613af282613ab3565b602082019050919050565b5f6020820190508181035f830152613b1481613adb565b9050919050565b7f496e73756666696369656e742073746f636b00000000000000000000000000005f82015250565b5f613b4f601283612e5b565b9150613b5a82613b1b565b602082019050919050565b5f6020820190508181035f830152613b7c81613b43565b9050919050565b5f613b8d8261234a565b9150613b988361234a565b9250828203905081811115613bb057613baf613208565b5b92915050565b7f4f6e6c79206f776e65722063616e2072656d6f76652070726f647563747300005f82015250565b5f613bea601e83612e5b565b9150613bf582613bb6565b602082019050919050565b5f6020820190508181035f830152613c1781613bde565b9050919050565b7f50726f6475637420616c72656164792072656d6f7665640000000000000000005f82015250565b5f613c52601783612e5b565b9150613c5d82613c1e565b602082019050919050565b5f6020820190508181035f830152613c7f81613c46565b9050919050565b7f4f6e6c79206f776e65722063616e207570646174652073686f7020636f6e66695f8201527f6775726174696f6e000000000000000000000000000000000000000000000000602082015250565b5f613ce0602883612e5b565b9150613ceb82613c86565b604082019050919050565b5f6020820190508181035f830152613d0d81613cd4565b9050919050565b7f4f6e6c79206f776e65722063616e207570646174652073746f636b00000000005f82015250565b5f613d48601b83612e5b565b9150613d5382613d14565b602082019050919050565b5f6020820190508181035f830152613d7581613d3c565b9050919050565b5f82905092915050565b613d908383613d7c565b67ffffffffffffffff811115613da957613da86123a0565b5b613db382546133cd565b613dbe828285613511565b5f601f831160018114613deb575f8415613dd9578287013590505b613de3858261357f565b865550613e4a565b601f198416613df9866133fd565b5f5b82811015613e2057848901358255600182019150602085019450602081019050613dfb565b86831015613e3d5784890135613e39601f891682613563565b8355505b6001600288020188555050505b5050505050505056fea26469706673582212203abc0395c6919c1b09dab53b9cc4283860fab5c58b8e0673787385b737d1fb9b64736f6c63430008170033a2646970667358221220d5ae23a3e4b10fe42ab75f0677f6ad8a93e280a0b352ff31667420677d588ade64736f6c63430008170033",
  "linkReferences": {},
  "deployedLinkReferences": {},
  "immutableReferences": {},
  "inputSourceName": "project/contracts/Master.sol",
  "buildInfoId": "solc-0_8_23-15a94136b9001812f029e3aaa9d95d7a7e52e1bd"
}