{
  "_format": "hh3-artifact-1",
  "contractName": "Master",
  "sourceName": "contracts/Master.sol",
  "abi": [
    {
      "anonymous": false,
      "inputs": [
        {
          "indexed": true,
          "internalType": "address",
          "name": "owner",
          "type": "address"
        },
        {
          "indexed": false,
          "internalType": "address",
          "name": "shopAddress",
          "type": "address"
        },
        {
          "indexed": false,
          "internalType": "string",
          "name": "name",
          "type": "string"
        }
      ],
      "name": "ShopCreated",
      "type": "event"
    },
    {
      "inputs": [
        {
          "internalType": "uint256",
          "name": "",
          "type": "uint256"
        }
      ],
      "name": "allShopAddresses",
      "outputs": [
        {
          "internalType": "address",
          "name": "",
          "type": "address"
        }
      ],
      "stateMutability": "view",
      "type": "function"
    },
    {
      "inputs": [
        {
          "internalType": "uint256",
          "name": "",
          "type": "uint256"
        }
      ],
      "name": "allShopNames",
      "outputs": [
        {
          "internalType": "string",
          "name": "",
          "type": "string"
        }
      ],
      "stateMutability": "view",
      "type": "function"
    },
    {
      "inputs": [
        {
          "components": [
            {
              "internalType": "string",
              "name": "shopName",
              "type": "string"
            },
            {
              "internalType": "string",
              "name": "shopType",
              "type": "string"
            },
            {
              "internalType": "string",
              "name": "description",
              "type": "string"
            },
            {
              "internalType": "string",
              "name": "configuration",
              "type": "string"
            },
            {
              "internalType": "string",
              "name": "thumbnailIpfsHash",
              "type": "string"
            },
            {
              "internalType": "address",
              "name": "owner",
              "type": "address"
            },
            {
              "internalType": "bool",
              "name": "isPublished",
              "type": "bool"
            }
          ],
          "internalType": "struct ShopDetails",
          "name": "_shopDetails",
          "type": "tuple"
        }
      ],
      "name": "createShop",
      "outputs": [
        {
          "internalType": "address",
          "name": "",
          "type": "address"
        }
      ],
      "stateMutability": "nonpayable",
      "type": "function"
    },
    {
      "inputs": [],
      "name": "getAllShops",
      "outputs": [
        {
          "internalType": "string[]",
          "name": "",
          "type": "string[]"
        }
      ],
      "stateMutability": "view",
      "type": "function"
    },
    {
      "inputs": [
        {
          "internalType": "string",
          "name": "_name",
          "type": "string"
        }
      ],
      "name": "getShopByName",
      "outputs": [
        {
          "internalType": "address",
          "name": "",
          "type": "address"
        }
      ],
      "stateMutability": "view",
      "type": "function"
    },
    {
      "inputs": [
        {
          "internalType": "address",
          "name": "_owner",
          "type": "address"
        }
      ],
      "name": "getShopsByOwner",
      "outputs": [
        {
          "internalType": "address[]",
          "name": "",
          "type": "address[]"
        }
      ],
      "stateMutability": "view",
      "type": "function"
    },
    {
      "inputs": [],
      "name": "owner",
      "outputs": [
        {
          "internalType": "address",
          "name": "",
          "type": "address"
        }
      ],
      "stateMutability": "view",
      "type": "function"
    },
    {
      "inputs": [
        {
          "internalType": "address",
          "name": "",
          "type": "address"
        }
      ],
      "name": "shopOwnerRegistry",
      "outputs": [
        {
          "internalType": "address",
          "name": "",
          "type": "address"
        }
      ],
      "stateMutability": "view",
      "type": "function"
    }
  ],
  "bytecode": "0x608060405234801561000f575f80fd5b50615eb88061001d5f395ff3fe608060405234801562000010575f80fd5b506004361062000092575f3560e01c8063bd12a6821162000061578063bd12a682146200015a578063d5c9b2391462000190578063d7117ee014620001b2578063e0eb33e114620001e85762000092565b80633847c28c14620000965780637192636914620000cc5780638da5cb5b146200010257806395cbc07f1462000124575b5f80fd5b620000b46004803603810190620000ae919062000a2e565b6200021e565b604051620000c3919062000aa1565b60405180910390f35b620000ea6004803603810190620000e4919062000aeb565b6200025a565b604051620000f9919062000aa1565b60405180910390f35b6200010c6200028a565b6040516200011b919062000aa1565b60405180910390f35b6200014260048036038101906200013c919062000a2e565b620002ad565b60405162000151919062000baf565b60405180910390f35b62000178600480360381019062000172919062000eba565b6200035c565b60405162000187919062000aa1565b60405180910390f35b6200019a6200050b565b604051620001a9919062001022565b60405180910390f35b620001d06004803603810190620001ca919062000aeb565b620005e9565b604051620001df91906200110b565b60405180910390f35b62000206600480360381019062000200919062001193565b620008b1565b60405162000215919062000aa1565b60405180910390f35b600281815481106200022e575f80fd5b905f5260205f20015f915054906101000a900473ffffffffffffffffffffffffffffffffffffffff1681565b6003602052805f5260405f205f915054906101000a900473ffffffffffffffffffffffffffffffffffffffff1681565b5f8054906101000a900473ffffffffffffffffffffffffffffffffffffffff1681565b60018181548110620002bd575f80fd5b905f5260205f20015f915090508054620002d79062001213565b80601f0160208091040260200160405190810160405280929190818152602001828054620003059062001213565b8015620003545780601f106200032a5761010080835404028352916020019162000354565b820191905f5260205f20905b8154815290600101906020018083116200033657829003601f168201915b505050505081565b5f80826040516200036d90620009d7565b6200037991906200131b565b604051809103905ff08015801562000393573d5f803e3d5ffd5b5090505f8190506001845f0151908060018154018082558091505060019003905f5260205f20015f909190919091509081620003d0919062001500565b50600281908060018154018082558091505060019003905f5260205f20015f9091909190916101000a81548173ffffffffffffffffffffffffffffffffffffffff021916908373ffffffffffffffffffffffffffffffffffffffff1602179055503360035f8373ffffffffffffffffffffffffffffffffffffffff1673ffffffffffffffffffffffffffffffffffffffff1681526020019081526020015f205f6101000a81548173ffffffffffffffffffffffffffffffffffffffff021916908373ffffffffffffffffffffffffffffffffffffffff1602179055503373ffffffffffffffffffffffffffffffffffffffff167fc23f1fa5dbe852f32a018b91715035160eb6070001a41b817e4310e83370f10c82865f0151604051620004f9929190620015e4565b60405180910390a28092505050919050565b60606001805480602002602001604051908101604052809291908181526020015f905b82821015620005e0578382905f5260205f200180546200054e9062001213565b80601f01602080910402602001604051908101604052809291908181526020018280546200057c9062001213565b8015620005cb5780601f10620005a157610100808354040283529160200191620005cb565b820191905f5260205f20905b815481529060010190602001808311620005ad57829003601f168201915b5050505050815260200190600101906200052e565b50505050905090565b60605f60028054905067ffffffffffffffff8111156200060e576200060d62000bd5565b5b6040519080825280602002602001820160405280156200063d5781602001602082028036833780820191505090505b5090505f805b600280549050811015620007cd578473ffffffffffffffffffffffffffffffffffffffff1660035f6002848154811062000682576200068162001616565b5b905f5260205f20015f9054906101000a900473ffffffffffffffffffffffffffffffffffffffff1673ffffffffffffffffffffffffffffffffffffffff1673ffffffffffffffffffffffffffffffffffffffff1681526020019081526020015f205f9054906101000a900473ffffffffffffffffffffffffffffffffffffffff1673ffffffffffffffffffffffffffffffffffffffff1603620007bf576002818154811062000736576200073562001616565b5b905f5260205f20015f9054906101000a900473ffffffffffffffffffffffffffffffffffffffff1683838151811062000774576200077362001616565b5b602002602001019073ffffffffffffffffffffffffffffffffffffffff16908173ffffffffffffffffffffffffffffffffffffffff16815250508180620007bb9062001670565b9250505b808060010191505062000643565b505f8167ffffffffffffffff811115620007ec57620007eb62000bd5565b5b6040519080825280602002602001820160405280156200081b5781602001602082028036833780820191505090505b5090505f5b82811015620008a5578381815181106200083f576200083e62001616565b5b60200260200101518282815181106200085d576200085c62001616565b5b602002602001019073ffffffffffffffffffffffffffffffffffffffff16908173ffffffffffffffffffffffffffffffffffffffff1681525050808060010191505062000820565b50809350505050919050565b5f805f90505b60018054905081101562000993578383604051602001620008da929190620016ee565b604051602081830303815290604052805190602001206001828154811062000907576200090662001616565b5b905f5260205f200160405160200162000921919062001794565b604051602081830303815290604052805190602001200362000985576002818154811062000954576200095362001616565b5b905f5260205f20015f9054906101000a900473ffffffffffffffffffffffffffffffffffffffff16915050620009d1565b8080600101915050620008b7565b506040517f08c379a0000000000000000000000000000000000000000000000000000000008152600401620009c890620017fa565b60405180910390fd5b92915050565b614668806200181b83390190565b5f604051905090565b5f80fd5b5f80fd5b5f819050919050565b62000a0a81620009f6565b811462000a15575f80fd5b50565b5f8135905062000a2881620009ff565b92915050565b5f6020828403121562000a465762000a45620009ee565b5b5f62000a558482850162000a18565b91505092915050565b5f73ffffffffffffffffffffffffffffffffffffffff82169050919050565b5f62000a898262000a5e565b9050919050565b62000a9b8162000a7d565b82525050565b5f60208201905062000ab65f83018462000a90565b92915050565b62000ac78162000a7d565b811462000ad2575f80fd5b50565b5f8135905062000ae58162000abc565b92915050565b5f6020828403121562000b035762000b02620009ee565b5b5f62000b128482850162000ad5565b91505092915050565b5f81519050919050565b5f82825260208201905092915050565b5f5b8381101562000b5457808201518184015260208101905062000b37565b5f8484015250505050565b5f601f19601f8301169050919050565b5f62000b7b8262000b1b565b62000b87818562000b25565b935062000b9981856020860162000b35565b62000ba48162000b5f565b840191505092915050565b5f6020820190508181035f83015262000bc9818462000b6f565b905092915050565b5f80fd5b7f4e487b71000000000000000000000000000000000000000000000000000000005f52604160045260245ffd5b62000c0d8262000b5f565b810181811067ffffffffffffffff8211171562000c2f5762000c2e62000bd5565b5b80604052505050565b5f62000c43620009e5565b905062000c51828262000c02565b919050565b5f80fd5b5f80fd5b5f80fd5b5f67ffffffffffffffff82111562000c7f5762000c7e62000bd5565b5b62000c8a8262000b5f565b9050602081019050919050565b828183375f83830152505050565b5f62000cbb62000cb58462000c62565b62000c38565b90508281526020810184848401111562000cda5762000cd962000c5e565b5b62000ce784828562000c97565b509392505050565b5f82601f83011262000d065762000d0562000c5a565b5b813562000d1884826020860162000ca5565b91505092915050565b5f8115159050919050565b62000d378162000d21565b811462000d42575f80fd5b50565b5f8135905062000d558162000d2c565b92915050565b5f60e0828403121562000d735762000d7262000bd1565b5b62000d7f60e062000c38565b90505f82013567ffffffffffffffff81111562000da15762000da062000c56565b5b62000daf8482850162000cef565b5f83015250602082013567ffffffffffffffff81111562000dd55762000dd462000c56565b5b62000de38482850162000cef565b602083015250604082013567ffffffffffffffff81111562000e0a5762000e0962000c56565b5b62000e188482850162000cef565b604083015250606082013567ffffffffffffffff81111562000e3f5762000e3e62000c56565b5b62000e4d8482850162000cef565b606083015250608082013567ffffffffffffffff81111562000e745762000e7362000c56565b5b62000e828482850162000cef565b60808301525060a062000e988482850162000ad5565b60a08301525060c062000eae8482850162000d45565b60c08301525092915050565b5f6020828403121562000ed25762000ed1620009ee565b5b5f82013567ffffffffffffffff81111562000ef25762000ef1620009f2565b5b62000f008482850162000d5b565b91505092915050565b5f81519050919050565b5f82825260208201905092915050565b5f819050602082019050919050565b5f82825260208201905092915050565b5f62000f4e8262000b1b565b62000f5a818562000f32565b935062000f6c81856020860162000b35565b62000f778162000b5f565b840191505092915050565b5f62000f8f838362000f42565b905092915050565b5f602082019050919050565b5f62000faf8262000f09565b62000fbb818562000f13565b93508360208202850162000fcf8562000f23565b805f5b8581101562001010578484038952815162000fee858262000f82565b945062000ffb8362000f97565b925060208a0199505060018101905062000fd2565b50829750879550505050505092915050565b5f6020820190508181035f8301526200103c818462000fa3565b905092915050565b5f81519050919050565b5f82825260208201905092915050565b5f819050602082019050919050565b620010788162000a7d565b82525050565b5f6200108b83836200106d565b60208301905092915050565b5f602082019050919050565b5f620010af8262001044565b620010bb81856200104e565b9350620010c8836200105e565b805f5b83811015620010fe578151620010e288826200107e565b9750620010ef8362001097565b925050600181019050620010cb565b5085935050505092915050565b5f6020820190508181035f830152620011258184620010a3565b905092915050565b5f80fd5b5f80fd5b5f8083601f8401126200114d576200114c62000c5a565b5b8235905067ffffffffffffffff8111156200116d576200116c6200112d565b5b6020830191508360018202830111156200118c576200118b62001131565b5b9250929050565b5f8060208385031215620011ac57620011ab620009ee565b5b5f83013567ffffffffffffffff811115620011cc57620011cb620009f2565b5b620011da8582860162001135565b92509250509250929050565b7f4e487b71000000000000000000000000000000000000000000000000000000005f52602260045260245ffd5b5f60028204905060018216806200122b57607f821691505b602082108103620012415762001240620011e6565b5b50919050565b620012528162000d21565b82525050565b5f60e083015f8301518482035f86015262001274828262000f42565b9150506020830151848203602086015262001290828262000f42565b91505060408301518482036040860152620012ac828262000f42565b91505060608301518482036060860152620012c8828262000f42565b91505060808301518482036080860152620012e4828262000f42565b91505060a0830151620012fb60a08601826200106d565b5060c08301516200131060c086018262001247565b508091505092915050565b5f6020820190508181035f83015262001335818462001258565b905092915050565b5f819050815f5260205f209050919050565b5f6020601f8301049050919050565b5f82821b905092915050565b5f600883026200139b7fffffffffffffffffffffffffffffffffffffffffffffffffffffffffffffffff826200135e565b620013a786836200135e565b95508019841693508086168417925050509392505050565b5f819050919050565b5f620013e8620013e2620013dc84620009f6565b620013bf565b620009f6565b9050919050565b5f819050919050565b6200140383620013c8565b6200141b6200141282620013ef565b8484546200136a565b825550505050565b5f90565b6200143162001423565b6200143e818484620013f8565b505050565b5b818110156200146557620014595f8262001427565b60018101905062001444565b5050565b601f821115620014b4576200147e816200133d565b62001489846200134f565b8101602085101562001499578190505b620014b1620014a8856200134f565b83018262001443565b50505b505050565b5f82821c905092915050565b5f620014d65f1984600802620014b9565b1980831691505092915050565b5f620014f08383620014c5565b9150826002028217905092915050565b6200150b8262000b1b565b67ffffffffffffffff81111562001527576200152662000bd5565b5b62001533825462001213565b6200154082828562001469565b5f60209050601f83116001811462001576575f841562001561578287015190505b6200156d8582620014e3565b865550620015dc565b601f19841662001586866200133d565b5f5b82811015620015af5784890151825560018201915060208501945060208101905062001588565b86831015620015cf5784890151620015cb601f891682620014c5565b8355505b6001600288020188555050505b505050505050565b5f604082019050620015f95f83018562000a90565b81810360208301526200160d818462000b6f565b90509392505050565b7f4e487b71000000000000000000000000000000000000000000000000000000005f52603260045260245ffd5b7f4e487b71000000000000000000000000000000000000000000000000000000005f52601160045260245ffd5b5f6200167c82620009f6565b91507fffffffffffffffffffffffffffffffffffffffffffffffffffffffffffffffff8203620016b157620016b062001643565b5b600182019050919050565b5f81905092915050565b5f620016d38385620016bc565b9350620016e283858462000c97565b82840190509392505050565b5f620016fc828486620016c6565b91508190509392505050565b5f8154620017168162001213565b620017228186620016bc565b9450600182165f81146200173f576001811462001755576200178b565b60ff19831686528115158202860193506200178b565b62001760856200133d565b5f5b83811015620017835781548189015260018201915060208101905062001762565b838801955050505b50505092915050565b5f620017a1828462001708565b915081905092915050565b7f53686f70206e6f7420666f756e640000000000000000000000000000000000005f82015250565b5f620017e2600e8362000b25565b9150620017ef82620017ac565b602082019050919050565b5f6020820190508181035f8301526200181381620017d4565b905091905056fe608060405234801562000010575f80fd5b5060405162004668380380620046688339818101604052810190620000369190620004b3565b805f80820151815f0190816200004d919062000739565b50602082015181600101908162000065919062000739565b5060408201518160020190816200007d919062000739565b50606082015181600301908162000095919062000739565b506080820151816004019081620000ad919062000739565b5060a0820151816005015f6101000a81548173ffffffffffffffffffffffffffffffffffffffff021916908373ffffffffffffffffffffffffffffffffffffffff16021790555060c08201518160050160146101000a81548160ff0219169083151502179055509050505f6006819055505f600781905550506200081d565b5f604051905090565b5f80fd5b5f80fd5b5f80fd5b5f601f19601f8301169050919050565b7f4e487b71000000000000000000000000000000000000000000000000000000005f52604160045260245ffd5b620001898262000141565b810181811067ffffffffffffffff82111715620001ab57620001aa62000151565b5b80604052505050565b5f620001bf6200012c565b9050620001cd82826200017e565b919050565b5f80fd5b5f80fd5b5f80fd5b5f67ffffffffffffffff821115620001fb57620001fa62000151565b5b620002068262000141565b9050602081019050919050565b5f5b838110156200023257808201518184015260208101905062000215565b5f8484015250505050565b5f620002536200024d84620001de565b620001b4565b905082815260208101848484011115620002725762000271620001da565b5b6200027f84828562000213565b509392505050565b5f82601f8301126200029e576200029d620001d6565b5b8151620002b08482602086016200023d565b91505092915050565b5f73ffffffffffffffffffffffffffffffffffffffff82169050919050565b5f620002e482620002b9565b9050919050565b620002f681620002d8565b811462000301575f80fd5b50565b5f815190506200031481620002eb565b92915050565b5f8115159050919050565b62000330816200031a565b81146200033b575f80fd5b50565b5f815190506200034e8162000325565b92915050565b5f60e082840312156200036c576200036b6200013d565b5b6200037860e0620001b4565b90505f82015167ffffffffffffffff8111156200039a5762000399620001d2565b5b620003a88482850162000287565b5f83015250602082015167ffffffffffffffff811115620003ce57620003cd620001d2565b5b620003dc8482850162000287565b602083015250604082015167ffffffffffffffff811115620004035762000402620001d2565b5b620004118482850162000287565b604083015250606082015167ffffffffffffffff811115620004385762000437620001d2565b5b620004468482850162000287565b606083015250608082015167ffffffffffffffff8111156200046d576200046c620001d2565b5b6200047b8482850162000287565b60808301525060a0620004918482850162000304565b60a08301525060c0620004a7848285016200033e565b60c08301525092915050565b5f60208284031215620004cb57620004ca62000135565b5b5f82015167ffffffffffffffff811115620004eb57620004ea62000139565b5b620004f98482850162000354565b91505092915050565b5f81519050919050565b7f4e487b71000000000000000000000000000000000000000000000000000000005f52602260045260245ffd5b5f60028204905060018216806200055157607f821691505b6020821081036200056757620005666200050c565b5b50919050565b5f819050815f5260205f209050919050565b5f6020601f8301049050919050565b5f82821b905092915050565b5f60088302620005cb7fffffffffffffffffffffffffffffffffffffffffffffffffffffffffffffffff826200058e565b620005d786836200058e565b95508019841693508086168417925050509392505050565b5f819050919050565b5f819050919050565b5f620006216200061b6200061584620005ef565b620005f8565b620005ef565b9050919050565b5f819050919050565b6200063c8362000601565b620006546200064b8262000628565b8484546200059a565b825550505050565b5f90565b6200066a6200065c565b6200067781848462000631565b505050565b5b818110156200069e57620006925f8262000660565b6001810190506200067d565b5050565b601f821115620006ed57620006b7816200056d565b620006c2846200057f565b81016020851015620006d2578190505b620006ea620006e1856200057f565b8301826200067c565b50505b505050565b5f82821c905092915050565b5f6200070f5f1984600802620006f2565b1980831691505092915050565b5f620007298383620006fe565b9150826002028217905092915050565b620007448262000502565b67ffffffffffffffff81111562000760576200075f62000151565b5b6200076c825462000539565b62000779828285620006a2565b5f60209050601f831160018114620007af575f84156200079a578287015190505b620007a685826200071c565b86555062000815565b601f198416620007bf866200056d565b5f5b82811015620007e857848901518255600182019150602085019450602081019050620007c1565b8683101562000808578489015162000804601f891682620006fe565b8355505b6001600288020188555050505b505050505050565b613e3d806200082b5f395ff3fe608060405234801561000f575f80fd5b5060043610610114575f3560e01c8063a5cb2b01116100a0578063cdc4777d1161006f578063cdc4777d146102a0578063ce740618146102bc578063d8470f92146102e0578063e0f6ef87146102fc578063eb88676e1461031a57610114565b8063a5cb2b01146101fa578063a85c38ef14610216578063bfb231d21461024b578063c89a9b151461028257610114565b806349ce62b3116100e757806349ce62b31461017a5780634a348da9146101845780634ba1d6aa146101a2578063762d680e146101c0578063a21dd86d146101de57610114565b80632156a96c146101185780632197e883146101365780632453ffa81461014057806330c25c061461015e575b5f80fd5b610120610336565b60405161012d9190612316565b60405180910390f35b61013e61037e565b005b61014861047e565b6040516101559190612316565b60405180910390f35b6101786004803603810190610173919061274a565b610484565b005b610182610731565b005b61018c610833565b6040516101999190612316565b60405180910390f35b6101aa61083c565b6040516101b79190612a84565b60405180910390f35b6101c8610cc4565b6040516101d59190612b98565b60405180910390f35b6101f860048036038101906101f39190612bb8565b61101c565b005b610214600480360381019061020f9190612cd2565b611279565b005b610230600480360381019061022b9190612dd5565b61164b565b60405161024296959493929190612e57565b60405180910390f35b61026560048036038101906102609190612dd5565b611834565b604051610279989796959493929190612eda565b60405180910390f35b61028a611b22565b6040516102979190612f79565b60405180910390f35b6102ba60048036038101906102b59190612f92565b611b3a565b005b6102c4611cc0565b6040516102d79796959493929190612fec565b60405180910390f35b6102fa60048036038101906102f5919061307c565b611fb8565b005b610304612070565b6040516103119190612316565b60405180910390f35b610334600480360381019061032f919061314b565b612076565b005b5f805f90505f5b6007548110156103765760095f8281526020019081526020015f20600301548261036791906131e9565b9150808060010191505061033d565b508091505090565b5f6005015f9054906101000a900473ffffffffffffffffffffffffffffffffffffffff1673ffffffffffffffffffffffffffffffffffffffff163373ffffffffffffffffffffffffffffffffffffffff161461040f576040517f08c379a000000000000000000000000000000000000000000000000000000000815260040161040690613266565b60405180910390fd5b5f60050160149054906101000a900460ff16610460576040517f08c379a0000000000000000000000000000000000000000000000000000000008152600401610457906132ce565b60405180910390fd5b5f8060050160146101000a81548160ff021916908315150217905550565b60075481565b5f6005015f9054906101000a900473ffffffffffffffffffffffffffffffffffffffff1673ffffffffffffffffffffffffffffffffffffffff163373ffffffffffffffffffffffffffffffffffffffff1614610515576040517f08c379a000000000000000000000000000000000000000000000000000000000815260040161050c90613336565b60405180910390fd5b604051806101200160405280825f01518152602001826020015181526020018260400151815260200182606001518152602001826080015181526020018260a00151151581526020018260c0015181526020018260e0015181526020018261010001515167ffffffffffffffff81111561059257610591612354565b5b6040519080825280602002602001820160405280156105c557816020015b60608152602001906001900390816105b05790505b5081525060085f60065481526020019081526020015f205f820151815f0190816105ef919061354e565b506020820151816001019081610605919061354e565b50604082015181600201908161061b919061354e565b50606082015181600301556080820151816004015560a0820151816005015f6101000a81548160ff02191690831515021790555060c0820151816006019081610664919061354e565b5060e082015181600701908161067a919061354e565b5061010082015181600801908051906020019061069892919061218e565b509050505f5b816101000151518110156107165781610100015181815181106106c4576106c361361d565b5b602002602001015160085f60065481526020019081526020015f2060080182815481106106f4576106f361361d565b5b905f5260205f20019081610708919061354e565b50808060010191505061069e565b5060065f8154809291906107299061364a565b919050555050565b5f6005015f9054906101000a900473ffffffffffffffffffffffffffffffffffffffff1673ffffffffffffffffffffffffffffffffffffffff163373ffffffffffffffffffffffffffffffffffffffff16146107c2576040517f08c379a00000000000000000000000000000000000000000000000000000000081526004016107b9906136db565b60405180910390fd5b5f60050160149054906101000a900460ff1615610814576040517f08c379a000000000000000000000000000000000000000000000000000000000815260040161080b90613743565b60405180910390fd5b60015f60050160146101000a81548160ff021916908315150217905550565b5f600654905090565b60605f60065467ffffffffffffffff81111561085b5761085a612354565b5b60405190808252806020026020018201604052801561089457816020015b6108816121e5565b8152602001906001900390816108795790505b5090505f5b600654811015610cbc5760085f8281526020019081526020015f20604051806101200160405290815f820180546108cf90613381565b80601f01602080910402602001604051908101604052809291908181526020018280546108fb90613381565b80156109465780601f1061091d57610100808354040283529160200191610946565b820191905f5260205f20905b81548152906001019060200180831161092957829003601f168201915b5050505050815260200160018201805461095f90613381565b80601f016020809104026020016040519081016040528092919081815260200182805461098b90613381565b80156109d65780601f106109ad576101008083540402835291602001916109d6565b820191905f5260205f20905b8154815290600101906020018083116109b957829003601f168201915b505050505081526020016002820180546109ef90613381565b80601f0160208091040260200160405190810160405280929190818152602001828054610a1b90613381565b8015610a665780601f10610a3d57610100808354040283529160200191610a66565b820191905f5260205f20905b815481529060010190602001808311610a4957829003601f168201915b505050505081526020016003820154815260200160048201548152602001600582015f9054906101000a900460ff16151515158152602001600682018054610aad90613381565b80601f0160208091040260200160405190810160405280929190818152602001828054610ad990613381565b8015610b245780601f10610afb57610100808354040283529160200191610b24565b820191905f5260205f20905b815481529060010190602001808311610b0757829003601f168201915b50505050508152602001600782018054610b3d90613381565b80601f0160208091040260200160405190810160405280929190818152602001828054610b6990613381565b8015610bb45780601f10610b8b57610100808354040283529160200191610bb4565b820191905f5260205f20905b815481529060010190602001808311610b9757829003601f168201915b5050505050815260200160088201805480602002602001604051908101604052809291908181526020015f905b82821015610c89578382905f5260205f20018054610bfe90613381565b80601f0160208091040260200160405190810160405280929190818152602001828054610c2a90613381565b8015610c755780601f10610c4c57610100808354040283529160200191610c75565b820191905f5260205f20905b815481529060010190602001808311610c5857829003601f168201915b505050505081526020019060010190610be1565b5050505081525050828281518110610ca457610ca361361d565b5b60200260200101819052508080600101915050610899565b508091505090565b610ccc612230565b5f6040518060e00160405290815f82018054610ce790613381565b80601f0160208091040260200160405190810160405280929190818152602001828054610d1390613381565b8015610d5e5780601f10610d3557610100808354040283529160200191610d5e565b820191905f5260205f20905b815481529060010190602001808311610d4157829003601f168201915b50505050508152602001600182018054610d7790613381565b80601f0160208091040260200160405190810160405280929190818152602001828054610da390613381565b8015610dee5780601f10610dc557610100808354040283529160200191610dee565b820191905f5260205f20905b815481529060010190602001808311610dd157829003601f168201915b50505050508152602001600282018054610e0790613381565b80601f0160208091040260200160405190810160405280929190818152602001828054610e3390613381565b8015610e7e5780601f10610e5557610100808354040283529160200191610e7e565b820191905f5260205f20905b815481529060010190602001808311610e6157829003601f168201915b50505050508152602001600382018054610e9790613381565b80601f0160208091040260200160405190810160405280929190818152602001828054610ec390613381565b8015610f0e5780601f10610ee557610100808354040283529160200191610f0e565b820191905f5260205f20905b815481529060010190602001808311610ef157829003601f168201915b50505050508152602001600482018054610f2790613381565b80601f0160208091040260200160405190810160405280929190818152602001828054610f5390613381565b8015610f9e5780601f10610f7557610100808354040283529160200191610f9e565b820191905f5260205f20905b815481529060010190602001808311610f8157829003601f168201915b50505050508152602001600582015f9054906101000a900473ffffffffffffffffffffffffffffffffffffffff1673ffffffffffffffffffffffffffffffffffffffff1673ffffffffffffffffffffffffffffffffffffffff1681526020016005820160149054906101000a900460ff161515151581525050905090565b5f6005015f9054906101000a900473ffffffffffffffffffffffffffffffffffffffff1673ffffffffffffffffffffffffffffffffffffffff163373ffffffffffffffffffffffffffffffffffffffff16146110ad576040517f08c379a00000000000000000000000000000000000000000000000000000000081526004016110a4906137ab565b60405180910390fd5b60065481106110f1576040517f08c379a00000000000000000000000000000000000000000000000000000000081526004016110e890613813565b60405180910390fd5b816060015160085f8381526020019081526020015f2060030181905550816080015160085f8381526020019081526020015f20600401819055508160a0015160085f8381526020019081526020015f206005015f6101000a81548160ff0219169083151502179055508160e0015160085f8381526020019081526020015f20600701908161117f919061354e565b508161010001515167ffffffffffffffff8111156111a05761119f612354565b5b6040519080825280602002602001820160405280156111d357816020015b60608152602001906001900390816111be5790505b5060085f8381526020019081526020015f2060080190805190602001906111fb92919061218e565b505f5b826101000151518110156112745782610100015181815181106112245761122361361d565b5b602002602001015160085f8481526020019081526020015f2060080182815481106112525761125161361d565b5b905f5260205f20019081611266919061354e565b5080806001019150506111fe565b505050565b83518551146112bd576040517f08c379a00000000000000000000000000000000000000000000000000000000081526004016112b4906138a1565b60405180910390fd5b8251855114611301576040517f08c379a00000000000000000000000000000000000000000000000000000000081526004016112f89061392f565b60405180910390fd5b5f855111611344576040517f08c379a000000000000000000000000000000000000000000000000000000000815260040161133b90613997565b60405180910390fd5b5f5b8551811015611643575f8682815181106113635761136261361d565b5b602002602001015190505f8683815181106113815761138061361d565b5b602002602001015190505f86848151811061139f5761139e61361d565b5b602002602001015190505f805f5b60065481101561140557858051906020012060085f8381526020019081526020015f205f016040516113df9190613a51565b6040518091039020036113f85760019250809150611405565b80806001019150506113ad565b5081611446576040517f08c379a000000000000000000000000000000000000000000000000000000000815260040161143d90613813565b60405180910390fd5b60085f8281526020019081526020015f206005015f9054906101000a900460ff166114a6576040517f08c379a000000000000000000000000000000000000000000000000000000000815260040161149d90613ab1565b60405180910390fd5b8360085f8381526020019081526020015f206004015410156114fd576040517f08c379a00000000000000000000000000000000000000000000000000000000081526004016114f490613b19565b60405180910390fd5b6040518060c001604052803373ffffffffffffffffffffffffffffffffffffffff1681526020018681526020018581526020018481526020018981526020018881525060095f60075481526020019081526020015f205f820151815f015f6101000a81548173ffffffffffffffffffffffffffffffffffffffff021916908373ffffffffffffffffffffffffffffffffffffffff16021790555060208201518160010190816115ac919061354e565b50604082015181600201556060820151816003015560808201518160040190816115d6919061354e565b5060a08201518160050190816115ec919061354e565b509050508360085f8381526020019081526020015f206004015f8282546116139190613b37565b9250508190555060075f81548092919061162c9061364a565b919050555050505050508080600101915050611346565b505050505050565b6009602052805f5260405f205f91509050805f015f9054906101000a900473ffffffffffffffffffffffffffffffffffffffff169080600101805461168f90613381565b80601f01602080910402602001604051908101604052809291908181526020018280546116bb90613381565b80156117065780601f106116dd57610100808354040283529160200191611706565b820191905f5260205f20905b8154815290600101906020018083116116e957829003601f168201915b50505050509080600201549080600301549080600401805461172790613381565b80601f016020809104026020016040519081016040528092919081815260200182805461175390613381565b801561179e5780601f106117755761010080835404028352916020019161179e565b820191905f5260205f20905b81548152906001019060200180831161178157829003601f168201915b5050505050908060050180546117b390613381565b80601f01602080910402602001604051908101604052809291908181526020018280546117df90613381565b801561182a5780601f106118015761010080835404028352916020019161182a565b820191905f5260205f20905b81548152906001019060200180831161180d57829003601f168201915b5050505050905086565b6008602052805f5260405f205f91509050805f01805461185390613381565b80601f016020809104026020016040519081016040528092919081815260200182805461187f90613381565b80156118ca5780601f106118a1576101008083540402835291602001916118ca565b820191905f5260205f20905b8154815290600101906020018083116118ad57829003601f168201915b5050505050908060010180546118df90613381565b80601f016020809104026020016040519081016040528092919081815260200182805461190b90613381565b80156119565780601f1061192d57610100808354040283529160200191611956565b820191905f5260205f20905b81548152906001019060200180831161193957829003601f168201915b50505050509080600201805461196b90613381565b80601f016020809104026020016040519081016040528092919081815260200182805461199790613381565b80156119e25780601f106119b9576101008083540402835291602001916119e2565b820191905f5260205f20905b8154815290600101906020018083116119c557829003601f168201915b505050505090806003015490806004015490806005015f9054906101000a900460ff1690806006018054611a1590613381565b80601f0160208091040260200160405190810160405280929190818152602001828054611a4190613381565b8015611a8c5780601f10611a6357610100808354040283529160200191611a8c565b820191905f5260205f20905b815481529060010190602001808311611a6f57829003601f168201915b505050505090806007018054611aa190613381565b80601f0160208091040260200160405190810160405280929190818152602001828054611acd90613381565b8015611b185780601f10611aef57610100808354040283529160200191611b18565b820191905f5260205f20905b815481529060010190602001808311611afb57829003601f168201915b5050505050905088565b5f8060050160149054906101000a900460ff16905090565b5f6005015f9054906101000a900473ffffffffffffffffffffffffffffffffffffffff1673ffffffffffffffffffffffffffffffffffffffff163373ffffffffffffffffffffffffffffffffffffffff1614611bcb576040517f08c379a0000000000000000000000000000000000000000000000000000000008152600401611bc290613bb4565b60405180910390fd5b6006548210611c0f576040517f08c379a0000000000000000000000000000000000000000000000000000000008152600401611c0690613813565b60405180910390fd5b60085f8381526020019081526020015f206005015f9054906101000a900460ff16611c6f576040517f08c379a0000000000000000000000000000000000000000000000000000000008152600401611c6690613c1c565b60405180910390fd5b5f60085f8481526020019081526020015f206005015f6101000a81548160ff0219169083151502179055508060085f8481526020019081526020015f206007019081611cbb919061354e565b505050565b5f805f018054611ccf90613381565b80601f0160208091040260200160405190810160405280929190818152602001828054611cfb90613381565b8015611d465780601f10611d1d57610100808354040283529160200191611d46565b820191905f5260205f20905b815481529060010190602001808311611d2957829003601f168201915b505050505090806001018054611d5b90613381565b80601f0160208091040260200160405190810160405280929190818152602001828054611d8790613381565b8015611dd25780601f10611da957610100808354040283529160200191611dd2565b820191905f5260205f20905b815481529060010190602001808311611db557829003601f168201915b505050505090806002018054611de790613381565b80601f0160208091040260200160405190810160405280929190818152602001828054611e1390613381565b8015611e5e5780601f10611e3557610100808354040283529160200191611e5e565b820191905f5260205f20905b815481529060010190602001808311611e4157829003601f168201915b505050505090806003018054611e7390613381565b80601f0160208091040260200160405190810160405280929190818152602001828054611e9f90613381565b8015611eea5780601f10611ec157610100808354040283529160200191611eea565b820191905f5260205f20905b815481529060010190602001808311611ecd57829003601f168201915b505050505090806004018054611eff90613381565b80601f0160208091040260200160405190810160405280929190818152602001828054611f2b90613381565b8015611f765780601f10611f4d57610100808354040283529160200191611f76565b820191905f5260205f20905b815481529060010190602001808311611f5957829003601f168201915b505050505090806005015f9054906101000a900473ffffffffffffffffffffffffffffffffffffffff16908060050160149054906101000a900460ff16905087565b5f6005015f9054906101000a900473ffffffffffffffffffffffffffffffffffffffff1673ffffffffffffffffffffffffffffffffffffffff163373ffffffffffffffffffffffffffffffffffffffff1614612049576040517f08c379a000000000000000000000000000000000000000000000000000000000815260040161204090613caa565b60405180910390fd5b815f600301908161205a919061354e565b50805f8001908161206b919061354e565b505050565b60065481565b5f6005015f9054906101000a900473ffffffffffffffffffffffffffffffffffffffff1673ffffffffffffffffffffffffffffffffffffffff163373ffffffffffffffffffffffffffffffffffffffff1614612107576040517f08c379a00000000000000000000000000000000000000000000000000000000081526004016120fe90613d12565b60405180910390fd5b600654841061214b576040517f08c379a000000000000000000000000000000000000000000000000000000000815260040161214290613813565b60405180910390fd5b8260085f8681526020019081526020015f2060040181905550818160085f8781526020019081526020015f206007019182612187929190613d3a565b5050505050565b828054828255905f5260205f209081019282156121d4579160200282015b828111156121d35782518290816121c3919061354e565b50916020019190600101906121ac565b5b5090506121e19190612283565b5090565b6040518061012001604052806060815260200160608152602001606081526020015f81526020015f81526020015f151581526020016060815260200160608152602001606081525090565b6040518060e0016040528060608152602001606081526020016060815260200160608152602001606081526020015f73ffffffffffffffffffffffffffffffffffffffff1681526020015f151581525090565b5b808211156122a2575f818161229991906122a6565b50600101612284565b5090565b5080546122b290613381565b5f825580601f106122c357506122e0565b601f0160209004905f5260205f20908101906122df91906122e3565b5b50565b5b808211156122fa575f815f9055506001016122e4565b5090565b5f819050919050565b612310816122fe565b82525050565b5f6020820190506123295f830184612307565b92915050565b5f604051905090565b5f80fd5b5f80fd5b5f80fd5b5f601f19601f8301169050919050565b7f4e487b71000000000000000000000000000000000000000000000000000000005f52604160045260245ffd5b61238a82612344565b810181811067ffffffffffffffff821117156123a9576123a8612354565b5b80604052505050565b5f6123bb61232f565b90506123c78282612381565b919050565b5f80fd5b5f80fd5b5f80fd5b5f67ffffffffffffffff8211156123f2576123f1612354565b5b6123fb82612344565b9050602081019050919050565b828183375f83830152505050565b5f612428612423846123d8565b6123b2565b905082815260208101848484011115612444576124436123d4565b5b61244f848285612408565b509392505050565b5f82601f83011261246b5761246a6123d0565b5b813561247b848260208601612416565b91505092915050565b61248d816122fe565b8114612497575f80fd5b50565b5f813590506124a881612484565b92915050565b5f8115159050919050565b6124c2816124ae565b81146124cc575f80fd5b50565b5f813590506124dd816124b9565b92915050565b5f67ffffffffffffffff8211156124fd576124fc612354565b5b602082029050602081019050919050565b5f80fd5b5f61252461251f846124e3565b6123b2565b905080838252602082019050602084028301858111156125475761254661250e565b5b835b8181101561258e57803567ffffffffffffffff81111561256c5761256b6123d0565b5b8086016125798982612457565b85526020850194505050602081019050612549565b5050509392505050565b5f82601f8301126125ac576125ab6123d0565b5b81356125bc848260208601612512565b91505092915050565b5f61012082840312156125db576125da612340565b5b6125e66101206123b2565b90505f82013567ffffffffffffffff811115612605576126046123cc565b5b61261184828501612457565b5f83015250602082013567ffffffffffffffff811115612634576126336123cc565b5b61264084828501612457565b602083015250604082013567ffffffffffffffff811115612664576126636123cc565b5b61267084828501612457565b60408301525060606126848482850161249a565b60608301525060806126988482850161249a565b60808301525060a06126ac848285016124cf565b60a08301525060c082013567ffffffffffffffff8111156126d0576126cf6123cc565b5b6126dc84828501612457565b60c08301525060e082013567ffffffffffffffff811115612700576126ff6123cc565b5b61270c84828501612457565b60e08301525061010082013567ffffffffffffffff811115612731576127306123cc565b5b61273d84828501612598565b6101008301525092915050565b5f6020828403121561275f5761275e612338565b5b5f82013567ffffffffffffffff81111561277c5761277b61233c565b5b612788848285016125c5565b91505092915050565b5f81519050919050565b5f82825260208201905092915050565b5f819050602082019050919050565b5f81519050919050565b5f82825260208201905092915050565b5f5b838110156127f15780820151818401526020810190506127d6565b5f8484015250505050565b5f612806826127ba565b61281081856127c4565b93506128208185602086016127d4565b61282981612344565b840191505092915050565b61283d816122fe565b82525050565b61284c816124ae565b82525050565b5f81519050919050565b5f82825260208201905092915050565b5f819050602082019050919050565b5f61288683836127fc565b905092915050565b5f602082019050919050565b5f6128a482612852565b6128ae818561285c565b9350836020820285016128c08561286c565b805f5b858110156128fb57848403895281516128dc858261287b565b94506128e78361288e565b925060208a019950506001810190506128c3565b50829750879550505050505092915050565b5f61012083015f8301518482035f86015261292882826127fc565b9150506020830151848203602086015261294282826127fc565b9150506040830151848203604086015261295c82826127fc565b91505060608301516129716060860182612834565b5060808301516129846080860182612834565b5060a083015161299760a0860182612843565b5060c083015184820360c08601526129af82826127fc565b91505060e083015184820360e08601526129c982826127fc565b9150506101008301518482036101008601526129e5828261289a565b9150508091505092915050565b5f6129fd838361290d565b905092915050565b5f602082019050919050565b5f612a1b82612791565b612a25818561279b565b935083602082028501612a37856127ab565b805f5b85811015612a725784840389528151612a5385826129f2565b9450612a5e83612a05565b925060208a01995050600181019050612a3a565b50829750879550505050505092915050565b5f6020820190508181035f830152612a9c8184612a11565b905092915050565b5f73ffffffffffffffffffffffffffffffffffffffff82169050919050565b5f612acd82612aa4565b9050919050565b612add81612ac3565b82525050565b5f60e083015f8301518482035f860152612afd82826127fc565b91505060208301518482036020860152612b1782826127fc565b91505060408301518482036040860152612b3182826127fc565b91505060608301518482036060860152612b4b82826127fc565b91505060808301518482036080860152612b6582826127fc565b91505060a0830151612b7a60a0860182612ad4565b5060c0830151612b8d60c0860182612843565b508091505092915050565b5f6020820190508181035f830152612bb08184612ae3565b905092915050565b5f8060408385031215612bce57612bcd612338565b5b5f83013567ffffffffffffffff811115612beb57612bea61233c565b5b612bf7858286016125c5565b9250506020612c088582860161249a565b9150509250929050565b5f67ffffffffffffffff821115612c2c57612c2b612354565b5b602082029050602081019050919050565b5f612c4f612c4a84612c12565b6123b2565b90508083825260208201905060208402830185811115612c7257612c7161250e565b5b835b81811015612c9b5780612c87888261249a565b845260208401935050602081019050612c74565b5050509392505050565b5f82601f830112612cb957612cb86123d0565b5b8135612cc9848260208601612c3d565b91505092915050565b5f805f805f60a08688031215612ceb57612cea612338565b5b5f86013567ffffffffffffffff811115612d0857612d0761233c565b5b612d1488828901612598565b955050602086013567ffffffffffffffff811115612d3557612d3461233c565b5b612d4188828901612ca5565b945050604086013567ffffffffffffffff811115612d6257612d6161233c565b5b612d6e88828901612ca5565b935050606086013567ffffffffffffffff811115612d8f57612d8e61233c565b5b612d9b88828901612457565b925050608086013567ffffffffffffffff811115612dbc57612dbb61233c565b5b612dc888828901612457565b9150509295509295909350565b5f60208284031215612dea57612de9612338565b5b5f612df78482850161249a565b91505092915050565b612e0981612ac3565b82525050565b5f82825260208201905092915050565b5f612e29826127ba565b612e338185612e0f565b9350612e438185602086016127d4565b612e4c81612344565b840191505092915050565b5f60c082019050612e6a5f830189612e00565b8181036020830152612e7c8188612e1f565b9050612e8b6040830187612307565b612e986060830186612307565b8181036080830152612eaa8185612e1f565b905081810360a0830152612ebe8184612e1f565b9050979650505050505050565b612ed4816124ae565b82525050565b5f610100820190508181035f830152612ef3818b612e1f565b90508181036020830152612f07818a612e1f565b90508181036040830152612f1b8189612e1f565b9050612f2a6060830188612307565b612f376080830187612307565b612f4460a0830186612ecb565b81810360c0830152612f568185612e1f565b905081810360e0830152612f6a8184612e1f565b90509998505050505050505050565b5f602082019050612f8c5f830184612ecb565b92915050565b5f8060408385031215612fa857612fa7612338565b5b5f612fb58582860161249a565b925050602083013567ffffffffffffffff811115612fd657612fd561233c565b5b612fe285828601612457565b9150509250929050565b5f60e0820190508181035f830152613004818a612e1f565b905081810360208301526130188189612e1f565b9050818103604083015261302c8188612e1f565b905081810360608301526130408187612e1f565b905081810360808301526130548186612e1f565b905061306360a0830185612e00565b61307060c0830184612ecb565b98975050505050505050565b5f806040838503121561309257613091612338565b5b5f83013567ffffffffffffffff8111156130af576130ae61233c565b5b6130bb85828601612457565b925050602083013567ffffffffffffffff8111156130dc576130db61233c565b5b6130e885828601612457565b9150509250929050565b5f80fd5b5f8083601f84011261310b5761310a6123d0565b5b8235905067ffffffffffffffff811115613128576131276130f2565b5b6020830191508360018202830111156131445761314361250e565b5b9250929050565b5f805f806060858703121561316357613162612338565b5b5f6131708782880161249a565b94505060206131818782880161249a565b935050604085013567ffffffffffffffff8111156131a2576131a161233c565b5b6131ae878288016130f6565b925092505092959194509250565b7f4e487b71000000000000000000000000000000000000000000000000000000005f52601160045260245ffd5b5f6131f3826122fe565b91506131fe836122fe565b9250828201905080821115613216576132156131bc565b5b92915050565b7f4f6e6c79206f776e65722063616e20756e7075626c6973682073686f700000005f82015250565b5f613250601d83612e0f565b915061325b8261321c565b602082019050919050565b5f6020820190508181035f83015261327d81613244565b9050919050565b7f53686f70206973206e6f74207075626c697368656400000000000000000000005f82015250565b5f6132b8601583612e0f565b91506132c382613284565b602082019050919050565b5f6020820190508181035f8301526132e5816132ac565b9050919050565b7f4f6e6c79206f776e65722063616e206164642070726f647563747300000000005f82015250565b5f613320601b83612e0f565b915061332b826132ec565b602082019050919050565b5f6020820190508181035f83015261334d81613314565b9050919050565b7f4e487b71000000000000000000000000000000000000000000000000000000005f52602260045260245ffd5b5f600282049050600182168061339857607f821691505b6020821081036133ab576133aa613354565b5b50919050565b5f819050815f5260205f209050919050565b5f6020601f8301049050919050565b5f82821b905092915050565b5f6008830261340d7fffffffffffffffffffffffffffffffffffffffffffffffffffffffffffffffff826133d2565b61341786836133d2565b95508019841693508086168417925050509392505050565b5f819050919050565b5f61345261344d613448846122fe565b61342f565b6122fe565b9050919050565b5f819050919050565b61346b83613438565b61347f61347782613459565b8484546133de565b825550505050565b5f90565b613493613487565b61349e818484613462565b505050565b5b818110156134c1576134b65f8261348b565b6001810190506134a4565b5050565b601f821115613506576134d7816133b1565b6134e0846133c3565b810160208510156134ef578190505b6135036134fb856133c3565b8301826134a3565b50505b505050565b5f82821c905092915050565b5f6135265f198460080261350b565b1980831691505092915050565b5f61353e8383613517565b9150826002028217905092915050565b613557826127ba565b67ffffffffffffffff8111156135705761356f612354565b5b61357a8254613381565b6135858282856134c5565b5f60209050601f8311600181146135b6575f84156135a4578287015190505b6135ae8582613533565b865550613615565b601f1984166135c4866133b1565b5f5b828110156135eb578489015182556001820191506020850194506020810190506135c6565b868310156136085784890151613604601f891682613517565b8355505b6001600288020188555050505b505050505050565b7f4e487b71000000000000000000000000000000000000000000000000000000005f52603260045260245ffd5b5f613654826122fe565b91507fffffffffffffffffffffffffffffffffffffffffffffffffffffffffffffffff8203613686576136856131bc565b5b600182019050919050565b7f4f6e6c79206f776e65722063616e207075626c6973682073686f7000000000005f82015250565b5f6136c5601b83612e0f565b91506136d082613691565b602082019050919050565b5f6020820190508181035f8301526136f2816136b9565b9050919050565b7f53686f7020697320616c7265616479207075626c6973686564000000000000005f82015250565b5f61372d601983612e0f565b9150613738826136f9565b602082019050919050565b5f6020820190508181035f83015261375a81613721565b9050919050565b7f4f6e6c79206f776e65722063616e207570646174652070726f647563747300005f82015250565b5f613795601e83612e0f565b91506137a082613761565b602082019050919050565b5f6020820190508181035f8301526137c281613789565b9050919050565b7f50726f6475637420646f6573206e6f74206578697374000000000000000000005f82015250565b5f6137fd601683612e0f565b9150613808826137c9565b602082019050919050565b5f6020820190508181035f83015261382a816137f1565b9050919050565b7f4974656d2049447320616e64207175616e746974696573206c656e677468206d5f8201527f69736d6174636800000000000000000000000000000000000000000000000000602082015250565b5f61388b602783612e0f565b915061389682613831565b604082019050919050565b5f6020820190508181035f8301526138b88161387f565b9050919050565b7f4974656d2049447320616e6420707269636573206c656e677468206d69736d615f8201527f7463680000000000000000000000000000000000000000000000000000000000602082015250565b5f613919602383612e0f565b9150613924826138bf565b604082019050919050565b5f6020820190508181035f8301526139468161390d565b9050919050565b7f4e6f206974656d732070726f76696465640000000000000000000000000000005f82015250565b5f613981601183612e0f565b915061398c8261394d565b602082019050919050565b5f6020820190508181035f8301526139ae81613975565b9050919050565b5f81905092915050565b5f819050815f5260205f209050919050565b5f81546139dd81613381565b6139e781866139b5565b9450600182165f8114613a015760018114613a1657613a48565b60ff1983168652811515820286019350613a48565b613a1f856139bf565b5f5b83811015613a4057815481890152600182019150602081019050613a21565b838801955050505b50505092915050565b5f613a5c82846139d1565b915081905092915050565b7f50726f64756374206973206e6f742061637469766500000000000000000000005f82015250565b5f613a9b601583612e0f565b9150613aa682613a67565b602082019050919050565b5f6020820190508181035f830152613ac881613a8f565b9050919050565b7f496e73756666696369656e742073746f636b00000000000000000000000000005f82015250565b5f613b03601283612e0f565b9150613b0e82613acf565b602082019050919050565b5f6020820190508181035f830152613b3081613af7565b9050919050565b5f613b41826122fe565b9150613b4c836122fe565b9250828203905081811115613b6457613b636131bc565b5b92915050565b7f4f6e6c79206f776e65722063616e2072656d6f76652070726f647563747300005f82015250565b5f613b9e601e83612e0f565b9150613ba982613b6a565b602082019050919050565b5f6020820190508181035f830152613bcb81613b92565b9050919050565b7f50726f6475637420616c72656164792072656d6f7665640000000000000000005f82015250565b5f613c06601783612e0f565b9150613c1182613bd2565b602082019050919050565b5f6020820190508181035f830152613c3381613bfa565b9050919050565b7f4f6e6c79206f776e65722063616e207570646174652073686f7020636f6e66695f8201527f6775726174696f6e000000000000000000000000000000000000000000000000602082015250565b5f613c94602883612e0f565b9150613c9f82613c3a565b604082019050919050565b5f6020820190508181035f830152613cc181613c88565b9050919050565b7f4f6e6c79206f776e65722063616e207570646174652073746f636b00000000005f82015250565b5f613cfc601b83612e0f565b9150613d0782613cc8565b602082019050919050565b5f6020820190508181035f830152613d2981613cf0565b9050919050565b5f82905092915050565b613d448383613d30565b67ffffffffffffffff811115613d5d57613d5c612354565b5b613d678254613381565b613d728282856134c5565b5f601f831160018114613d9f575f8415613d8d578287013590505b613d978582613533565b865550613dfe565b601f198416613dad866133b1565b5f5b82811015613dd457848901358255600182019150602085019450602081019050613daf565b86831015613df15784890135613ded601f891682613517565b8355505b6001600288020188555050505b5050505050505056fea2646970667358221220cec320a8410c65861938c039d48bec70c5a75a0d55cfe6b49f51439a68df6b5a64736f6c63430008170033a264697066735822122046ae169cf5402a4d2f2c3f3707d84b7e497d5289e936d0fdd1d8227e6fa0423e64736f6c63430008170033",
  "linkReferences": {},
  "deployedLinkReferences": {},
  "immutableReferences": {},
  "inputSourceName": "project/contracts/Master.sol",
  "buildInfoId": "solc-0_8_23-c7f24bc8f0bfffcc6ced5bf809237f09037dce04"
}