{
  "_format": "hh3-artifact-1",
  "contractName": "Shop",
  "sourceName": "contracts/Shop.sol",
  "abi": [
    {
      "inputs": [
        {
          "components": [
            {
              "internalType": "string",
              "name": "shopName",
              "type": "string"
            },
            {
              "internalType": "string",
              "name": "shopType",
              "type": "string"
            },
            {
              "internalType": "string",
              "name": "description",
              "type": "string"
            },
            {
              "internalType": "string",
              "name": "configuration",
              "type": "string"
            },
            {
              "internalType": "string",
              "name": "thumbnailIpfsHash",
              "type": "string"
            },
            {
              "internalType": "address",
              "name": "owner",
              "type": "address"
            },
            {
              "internalType": "bool",
              "name": "isPublished",
              "type": "bool"
            }
          ],
          "internalType": "struct ShopDetails",
          "name": "_shopDetails",
          "type": "tuple"
        }
      ],
      "stateMutability": "nonpayable",
      "type": "constructor"
    },
    {
      "inputs": [
        {
          "components": [
            {
              "internalType": "string",
              "name": "id",
              "type": "string"
            },
            {
              "internalType": "string",
              "name": "name",
              "type": "string"
            },
            {
              "internalType": "string",
              "name": "description",
              "type": "string"
            },
            {
              "internalType": "uint256",
              "name": "price",
              "type": "uint256"
            },
            {
              "internalType": "uint256",
              "name": "stock",
              "type": "uint256"
            },
            {
              "internalType": "bool",
              "name": "isActive",
              "type": "bool"
            },
            {
              "internalType": "string",
              "name": "createdAt",
              "type": "string"
            },
            {
              "internalType": "string",
              "name": "updatedAt",
              "type": "string"
            },
            {
              "internalType": "string[]",
              "name": "ipfsHash",
              "type": "string[]"
            }
          ],
          "internalType": "struct Item",
          "name": "_item",
          "type": "tuple"
        }
      ],
      "name": "addProduct",
      "outputs": [],
      "stateMutability": "nonpayable",
      "type": "function"
    },
    {
      "inputs": [],
      "name": "createTransaction",
      "outputs": [],
      "stateMutability": "nonpayable",
      "type": "function"
    },
    {
      "inputs": [],
      "name": "getAllItems",
      "outputs": [
        {
          "components": [
            {
              "internalType": "string",
              "name": "id",
              "type": "string"
            },
            {
              "internalType": "string",
              "name": "name",
              "type": "string"
            },
            {
              "internalType": "string",
              "name": "description",
              "type": "string"
            },
            {
              "internalType": "uint256",
              "name": "price",
              "type": "uint256"
            },
            {
              "internalType": "uint256",
              "name": "stock",
              "type": "uint256"
            },
            {
              "internalType": "bool",
              "name": "isActive",
              "type": "bool"
            },
            {
              "internalType": "string",
              "name": "createdAt",
              "type": "string"
            },
            {
              "internalType": "string",
              "name": "updatedAt",
              "type": "string"
            },
            {
              "internalType": "string[]",
              "name": "ipfsHash",
              "type": "string[]"
            }
          ],
          "internalType": "struct Item[]",
          "name": "",
          "type": "tuple[]"
        }
      ],
      "stateMutability": "view",
      "type": "function"
    },
    {
      "inputs": [],
      "name": "getProductCount",
      "outputs": [
        {
          "internalType": "uint256",
          "name": "",
          "type": "uint256"
        }
      ],
      "stateMutability": "view",
      "type": "function"
    },
    {
      "inputs": [],
      "name": "getShopDetails",
      "outputs": [
        {
          "components": [
            {
              "internalType": "string",
              "name": "shopName",
              "type": "string"
            },
            {
              "internalType": "string",
              "name": "shopType",
              "type": "string"
            },
            {
              "internalType": "string",
              "name": "description",
              "type": "string"
            },
            {
              "internalType": "string",
              "name": "configuration",
              "type": "string"
            },
            {
              "internalType": "string",
              "name": "thumbnailIpfsHash",
              "type": "string"
            },
            {
              "internalType": "address",
              "name": "owner",
              "type": "address"
            },
            {
              "internalType": "bool",
              "name": "isPublished",
              "type": "bool"
            }
          ],
          "internalType": "struct ShopDetails",
          "name": "",
          "type": "tuple"
        }
      ],
      "stateMutability": "view",
      "type": "function"
    },
    {
      "inputs": [],
      "name": "getTotalSales",
      "outputs": [
        {
          "internalType": "uint256",
          "name": "",
          "type": "uint256"
        }
      ],
      "stateMutability": "view",
      "type": "function"
    },
    {
      "inputs": [],
      "name": "isShopPublished",
      "outputs": [
        {
          "internalType": "bool",
          "name": "",
          "type": "bool"
        }
      ],
      "stateMutability": "view",
      "type": "function"
    },
    {
      "inputs": [
        {
          "internalType": "uint256",
          "name": "",
          "type": "uint256"
        }
      ],
      "name": "items",
      "outputs": [
        {
          "internalType": "string",
          "name": "id",
          "type": "string"
        },
        {
          "internalType": "string",
          "name": "name",
          "type": "string"
        },
        {
          "internalType": "string",
          "name": "description",
          "type": "string"
        },
        {
          "internalType": "uint256",
          "name": "price",
          "type": "uint256"
        },
        {
          "internalType": "uint256",
          "name": "stock",
          "type": "uint256"
        },
        {
          "internalType": "bool",
          "name": "isActive",
          "type": "bool"
        },
        {
          "internalType": "string",
          "name": "createdAt",
          "type": "string"
        },
        {
          "internalType": "string",
          "name": "updatedAt",
          "type": "string"
        }
      ],
      "stateMutability": "view",
      "type": "function"
    },
    {
      "inputs": [],
      "name": "orderCount",
      "outputs": [
        {
          "internalType": "uint256",
          "name": "",
          "type": "uint256"
        }
      ],
      "stateMutability": "view",
      "type": "function"
    },
    {
      "inputs": [
        {
          "internalType": "uint256",
          "name": "",
          "type": "uint256"
        }
      ],
      "name": "orders",
      "outputs": [
        {
          "internalType": "address",
          "name": "buyer",
          "type": "address"
        },
        {
          "internalType": "uint256",
          "name": "itemId",
          "type": "uint256"
        },
        {
          "internalType": "uint256",
          "name": "quantity",
          "type": "uint256"
        },
        {
          "internalType": "uint256",
          "name": "totalPrice",
          "type": "uint256"
        },
        {
          "internalType": "uint256",
          "name": "timestamp",
          "type": "uint256"
        },
        {
          "internalType": "bool",
          "name": "isDelivered",
          "type": "bool"
        }
      ],
      "stateMutability": "view",
      "type": "function"
    },
    {
      "inputs": [],
      "name": "productCount",
      "outputs": [
        {
          "internalType": "uint256",
          "name": "",
          "type": "uint256"
        }
      ],
      "stateMutability": "view",
      "type": "function"
    },
    {
      "inputs": [],
      "name": "publishShop",
      "outputs": [],
      "stateMutability": "nonpayable",
      "type": "function"
    },
    {
      "inputs": [
        {
          "internalType": "uint256",
          "name": "_itemId",
          "type": "uint256"
        },
        {
          "internalType": "string",
          "name": "_currentDate",
          "type": "string"
        }
      ],
      "name": "removeProduct",
      "outputs": [],
      "stateMutability": "nonpayable",
      "type": "function"
    },
    {
      "inputs": [],
      "name": "shopDetails",
      "outputs": [
        {
          "internalType": "string",
          "name": "shopName",
          "type": "string"
        },
        {
          "internalType": "string",
          "name": "shopType",
          "type": "string"
        },
        {
          "internalType": "string",
          "name": "description",
          "type": "string"
        },
        {
          "internalType": "string",
          "name": "configuration",
          "type": "string"
        },
        {
          "internalType": "string",
          "name": "thumbnailIpfsHash",
          "type": "string"
        },
        {
          "internalType": "address",
          "name": "owner",
          "type": "address"
        },
        {
          "internalType": "bool",
          "name": "isPublished",
          "type": "bool"
        }
      ],
      "stateMutability": "view",
      "type": "function"
    },
    {
      "inputs": [],
      "name": "unpublishShop",
      "outputs": [],
      "stateMutability": "nonpayable",
      "type": "function"
    },
    {
      "inputs": [
        {
          "components": [
            {
              "internalType": "string",
              "name": "id",
              "type": "string"
            },
            {
              "internalType": "string",
              "name": "name",
              "type": "string"
            },
            {
              "internalType": "string",
              "name": "description",
              "type": "string"
            },
            {
              "internalType": "uint256",
              "name": "price",
              "type": "uint256"
            },
            {
              "internalType": "uint256",
              "name": "stock",
              "type": "uint256"
            },
            {
              "internalType": "bool",
              "name": "isActive",
              "type": "bool"
            },
            {
              "internalType": "string",
              "name": "createdAt",
              "type": "string"
            },
            {
              "internalType": "string",
              "name": "updatedAt",
              "type": "string"
            },
            {
              "internalType": "string[]",
              "name": "ipfsHash",
              "type": "string[]"
            }
          ],
          "internalType": "struct Item",
          "name": "_item",
          "type": "tuple"
        },
        {
          "internalType": "uint256",
          "name": "_itemIndex",
          "type": "uint256"
        }
      ],
      "name": "updateProduct",
      "outputs": [],
      "stateMutability": "nonpayable",
      "type": "function"
    },
    {
      "inputs": [
        {
          "internalType": "string",
          "name": "_newConfig",
          "type": "string"
        },
        {
          "internalType": "string",
          "name": "_shopName",
          "type": "string"
        }
      ],
      "name": "updateShopConfiguration",
      "outputs": [],
      "stateMutability": "nonpayable",
      "type": "function"
    },
    {
      "inputs": [
        {
          "internalType": "uint256",
          "name": "_itemId",
          "type": "uint256"
        },
        {
          "internalType": "uint256",
          "name": "_newStock",
          "type": "uint256"
        },
        {
          "internalType": "string",
          "name": "_currentDate",
          "type": "string"
        }
      ],
      "name": "updateStock",
      "outputs": [],
      "stateMutability": "nonpayable",
      "type": "function"
    }
  ],
  "bytecode": "0x608060405234801562000010575f80fd5b5060405162003bef38038062003bef8339818101604052810190620000369190620004b3565b805f80820151815f0190816200004d919062000739565b50602082015181600101908162000065919062000739565b5060408201518160020190816200007d919062000739565b50606082015181600301908162000095919062000739565b506080820151816004019081620000ad919062000739565b5060a0820151816005015f6101000a81548173ffffffffffffffffffffffffffffffffffffffff021916908373ffffffffffffffffffffffffffffffffffffffff16021790555060c08201518160050160146101000a81548160ff0219169083151502179055509050505f6006819055505f600781905550506200081d565b5f604051905090565b5f80fd5b5f80fd5b5f80fd5b5f601f19601f8301169050919050565b7f4e487b71000000000000000000000000000000000000000000000000000000005f52604160045260245ffd5b620001898262000141565b810181811067ffffffffffffffff82111715620001ab57620001aa62000151565b5b80604052505050565b5f620001bf6200012c565b9050620001cd82826200017e565b919050565b5f80fd5b5f80fd5b5f80fd5b5f67ffffffffffffffff821115620001fb57620001fa62000151565b5b620002068262000141565b9050602081019050919050565b5f5b838110156200023257808201518184015260208101905062000215565b5f8484015250505050565b5f620002536200024d84620001de565b620001b4565b905082815260208101848484011115620002725762000271620001da565b5b6200027f84828562000213565b509392505050565b5f82601f8301126200029e576200029d620001d6565b5b8151620002b08482602086016200023d565b91505092915050565b5f73ffffffffffffffffffffffffffffffffffffffff82169050919050565b5f620002e482620002b9565b9050919050565b620002f681620002d8565b811462000301575f80fd5b50565b5f815190506200031481620002eb565b92915050565b5f8115159050919050565b62000330816200031a565b81146200033b575f80fd5b50565b5f815190506200034e8162000325565b92915050565b5f60e082840312156200036c576200036b6200013d565b5b6200037860e0620001b4565b90505f82015167ffffffffffffffff8111156200039a5762000399620001d2565b5b620003a88482850162000287565b5f83015250602082015167ffffffffffffffff811115620003ce57620003cd620001d2565b5b620003dc8482850162000287565b602083015250604082015167ffffffffffffffff811115620004035762000402620001d2565b5b620004118482850162000287565b604083015250606082015167ffffffffffffffff811115620004385762000437620001d2565b5b620004468482850162000287565b606083015250608082015167ffffffffffffffff8111156200046d576200046c620001d2565b5b6200047b8482850162000287565b60808301525060a0620004918482850162000304565b60a08301525060c0620004a7848285016200033e565b60c08301525092915050565b5f60208284031215620004cb57620004ca62000135565b5b5f82015167ffffffffffffffff811115620004eb57620004ea62000139565b5b620004f98482850162000354565b91505092915050565b5f81519050919050565b7f4e487b71000000000000000000000000000000000000000000000000000000005f52602260045260245ffd5b5f60028204905060018216806200055157607f821691505b6020821081036200056757620005666200050c565b5b50919050565b5f819050815f5260205f209050919050565b5f6020601f8301049050919050565b5f82821b905092915050565b5f60088302620005cb7fffffffffffffffffffffffffffffffffffffffffffffffffffffffffffffffff826200058e565b620005d786836200058e565b95508019841693508086168417925050509392505050565b5f819050919050565b5f819050919050565b5f620006216200061b6200061584620005ef565b620005f8565b620005ef565b9050919050565b5f819050919050565b6200063c8362000601565b620006546200064b8262000628565b8484546200059a565b825550505050565b5f90565b6200066a6200065c565b6200067781848462000631565b505050565b5b818110156200069e57620006925f8262000660565b6001810190506200067d565b5050565b601f821115620006ed57620006b7816200056d565b620006c2846200057f565b81016020851015620006d2578190505b620006ea620006e1856200057f565b8301826200067c565b50505b505050565b5f82821c905092915050565b5f6200070f5f1984600802620006f2565b1980831691505092915050565b5f620007298383620006fe565b9150826002028217905092915050565b620007448262000502565b67ffffffffffffffff81111562000760576200075f62000151565b5b6200076c825462000539565b62000779828285620006a2565b5f60209050601f831160018114620007af575f84156200079a578287015190505b620007a685826200071c565b86555062000815565b601f198416620007bf866200056d565b5f5b82811015620007e857848901518255600182019150602085019450602081019050620007c1565b8683101562000808578489015162000804601f891682620006fe565b8355505b6001600288020188555050505b505050505050565b6133c4806200082b5f395ff3fe608060405234801561000f575f80fd5b5060043610610114575f3560e01c8063a21dd86d116100a0578063cdc4777d1161006f578063cdc4777d1461028e578063ce740618146102aa578063d8470f92146102ce578063e0f6ef87146102ea578063eb88676e1461030857610114565b8063a21dd86d146101e8578063a85c38ef14610204578063bfb231d214610239578063c89a9b151461027057610114565b806349ce62b3116100e757806349ce62b31461017a5780634a348da9146101845780634ba1d6aa146101a2578063762d680e146101c057806397b54cc2146101de57610114565b80632156a96c146101185780632197e883146101365780632453ffa81461014057806330c25c061461015e575b5f80fd5b610120610324565b60405161012d9190611dae565b60405180910390f35b61013e61036c565b005b61014861046c565b6040516101559190611dae565b60405180910390f35b610178600480360381019061017391906121e2565b610472565b005b61018261071f565b005b61018c610821565b6040516101999190611dae565b60405180910390f35b6101aa61082a565b6040516101b7919061251c565b60405180910390f35b6101c8610cb2565b6040516101d59190612630565b60405180910390f35b6101e661100a565b005b61020260048036038101906101fd9190612650565b61100c565b005b61021e600480360381019061021991906126aa565b611269565b604051610230969594939291906126f3565b60405180910390f35b610253600480360381019061024e91906126aa565b6112cc565b60405161026798979695949392919061279a565b60405180910390f35b6102786115ba565b6040516102859190612839565b60405180910390f35b6102a860048036038101906102a39190612852565b6115d2565b005b6102b2611758565b6040516102c597969594939291906128ac565b60405180910390f35b6102e860048036038101906102e3919061293c565b611a50565b005b6102f2611b08565b6040516102ff9190611dae565b60405180910390f35b610322600480360381019061031d9190612a0b565b611b0e565b005b5f805f90505f5b6007548110156103645760095f8281526020019081526020015f2060030154826103559190612aa9565b9150808060010191505061032b565b508091505090565b5f6005015f9054906101000a900473ffffffffffffffffffffffffffffffffffffffff1673ffffffffffffffffffffffffffffffffffffffff163373ffffffffffffffffffffffffffffffffffffffff16146103fd576040517f08c379a00000000000000000000000000000000000000000000000000000000081526004016103f490612b26565b60405180910390fd5b5f60050160149054906101000a900460ff1661044e576040517f08c379a000000000000000000000000000000000000000000000000000000000815260040161044590612b8e565b60405180910390fd5b5f8060050160146101000a81548160ff021916908315150217905550565b60075481565b5f6005015f9054906101000a900473ffffffffffffffffffffffffffffffffffffffff1673ffffffffffffffffffffffffffffffffffffffff163373ffffffffffffffffffffffffffffffffffffffff1614610503576040517f08c379a00000000000000000000000000000000000000000000000000000000081526004016104fa90612bf6565b60405180910390fd5b604051806101200160405280825f01518152602001826020015181526020018260400151815260200182606001518152602001826080015181526020018260a00151151581526020018260c0015181526020018260e0015181526020018261010001515167ffffffffffffffff8111156105805761057f611dec565b5b6040519080825280602002602001820160405280156105b357816020015b606081526020019060019003908161059e5790505b5081525060085f60065481526020019081526020015f205f820151815f0190816105dd9190612e0e565b5060208201518160010190816105f39190612e0e565b5060408201518160020190816106099190612e0e565b50606082015181600301556080820151816004015560a0820151816005015f6101000a81548160ff02191690831515021790555060c08201518160060190816106529190612e0e565b5060e08201518160070190816106689190612e0e565b50610100820151816008019080519060200190610686929190611c26565b509050505f5b816101000151518110156107045781610100015181815181106106b2576106b1612edd565b5b602002602001015160085f60065481526020019081526020015f2060080182815481106106e2576106e1612edd565b5b905f5260205f200190816106f69190612e0e565b50808060010191505061068c565b5060065f81548092919061071790612f0a565b919050555050565b5f6005015f9054906101000a900473ffffffffffffffffffffffffffffffffffffffff1673ffffffffffffffffffffffffffffffffffffffff163373ffffffffffffffffffffffffffffffffffffffff16146107b0576040517f08c379a00000000000000000000000000000000000000000000000000000000081526004016107a790612f9b565b60405180910390fd5b5f60050160149054906101000a900460ff1615610802576040517f08c379a00000000000000000000000000000000000000000000000000000000081526004016107f990613003565b60405180910390fd5b60015f60050160146101000a81548160ff021916908315150217905550565b5f600654905090565b60605f60065467ffffffffffffffff81111561084957610848611dec565b5b60405190808252806020026020018201604052801561088257816020015b61086f611c7d565b8152602001906001900390816108675790505b5090505f5b600654811015610caa5760085f8281526020019081526020015f20604051806101200160405290815f820180546108bd90612c41565b80601f01602080910402602001604051908101604052809291908181526020018280546108e990612c41565b80156109345780601f1061090b57610100808354040283529160200191610934565b820191905f5260205f20905b81548152906001019060200180831161091757829003601f168201915b5050505050815260200160018201805461094d90612c41565b80601f016020809104026020016040519081016040528092919081815260200182805461097990612c41565b80156109c45780601f1061099b576101008083540402835291602001916109c4565b820191905f5260205f20905b8154815290600101906020018083116109a757829003601f168201915b505050505081526020016002820180546109dd90612c41565b80601f0160208091040260200160405190810160405280929190818152602001828054610a0990612c41565b8015610a545780601f10610a2b57610100808354040283529160200191610a54565b820191905f5260205f20905b815481529060010190602001808311610a3757829003601f168201915b505050505081526020016003820154815260200160048201548152602001600582015f9054906101000a900460ff16151515158152602001600682018054610a9b90612c41565b80601f0160208091040260200160405190810160405280929190818152602001828054610ac790612c41565b8015610b125780601f10610ae957610100808354040283529160200191610b12565b820191905f5260205f20905b815481529060010190602001808311610af557829003601f168201915b50505050508152602001600782018054610b2b90612c41565b80601f0160208091040260200160405190810160405280929190818152602001828054610b5790612c41565b8015610ba25780601f10610b7957610100808354040283529160200191610ba2565b820191905f5260205f20905b815481529060010190602001808311610b8557829003601f168201915b5050505050815260200160088201805480602002602001604051908101604052809291908181526020015f905b82821015610c77578382905f5260205f20018054610bec90612c41565b80601f0160208091040260200160405190810160405280929190818152602001828054610c1890612c41565b8015610c635780601f10610c3a57610100808354040283529160200191610c63565b820191905f5260205f20905b815481529060010190602001808311610c4657829003601f168201915b505050505081526020019060010190610bcf565b5050505081525050828281518110610c9257610c91612edd565b5b60200260200101819052508080600101915050610887565b508091505090565b610cba611cc8565b5f6040518060e00160405290815f82018054610cd590612c41565b80601f0160208091040260200160405190810160405280929190818152602001828054610d0190612c41565b8015610d4c5780601f10610d2357610100808354040283529160200191610d4c565b820191905f5260205f20905b815481529060010190602001808311610d2f57829003601f168201915b50505050508152602001600182018054610d6590612c41565b80601f0160208091040260200160405190810160405280929190818152602001828054610d9190612c41565b8015610ddc5780601f10610db357610100808354040283529160200191610ddc565b820191905f5260205f20905b815481529060010190602001808311610dbf57829003601f168201915b50505050508152602001600282018054610df590612c41565b80601f0160208091040260200160405190810160405280929190818152602001828054610e2190612c41565b8015610e6c5780601f10610e4357610100808354040283529160200191610e6c565b820191905f5260205f20905b815481529060010190602001808311610e4f57829003601f168201915b50505050508152602001600382018054610e8590612c41565b80601f0160208091040260200160405190810160405280929190818152602001828054610eb190612c41565b8015610efc5780601f10610ed357610100808354040283529160200191610efc565b820191905f5260205f20905b815481529060010190602001808311610edf57829003601f168201915b50505050508152602001600482018054610f1590612c41565b80601f0160208091040260200160405190810160405280929190818152602001828054610f4190612c41565b8015610f8c5780601f10610f6357610100808354040283529160200191610f8c565b820191905f5260205f20905b815481529060010190602001808311610f6f57829003601f168201915b50505050508152602001600582015f9054906101000a900473ffffffffffffffffffffffffffffffffffffffff1673ffffffffffffffffffffffffffffffffffffffff1673ffffffffffffffffffffffffffffffffffffffff1681526020016005820160149054906101000a900460ff161515151581525050905090565b565b5f6005015f9054906101000a900473ffffffffffffffffffffffffffffffffffffffff1673ffffffffffffffffffffffffffffffffffffffff163373ffffffffffffffffffffffffffffffffffffffff161461109d576040517f08c379a00000000000000000000000000000000000000000000000000000000081526004016110949061306b565b60405180910390fd5b60065481106110e1576040517f08c379a00000000000000000000000000000000000000000000000000000000081526004016110d8906130d3565b60405180910390fd5b816060015160085f8381526020019081526020015f2060030181905550816080015160085f8381526020019081526020015f20600401819055508160a0015160085f8381526020019081526020015f206005015f6101000a81548160ff0219169083151502179055508160e0015160085f8381526020019081526020015f20600701908161116f9190612e0e565b508161010001515167ffffffffffffffff8111156111905761118f611dec565b5b6040519080825280602002602001820160405280156111c357816020015b60608152602001906001900390816111ae5790505b5060085f8381526020019081526020015f2060080190805190602001906111eb929190611c26565b505f5b8261010001515181101561126457826101000151818151811061121457611213612edd565b5b602002602001015160085f8481526020019081526020015f20600801828154811061124257611241612edd565b5b905f5260205f200190816112569190612e0e565b5080806001019150506111ee565b505050565b6009602052805f5260405f205f91509050805f015f9054906101000a900473ffffffffffffffffffffffffffffffffffffffff1690806001015490806002015490806003015490806004015490806005015f9054906101000a900460ff16905086565b6008602052805f5260405f205f91509050805f0180546112eb90612c41565b80601f016020809104026020016040519081016040528092919081815260200182805461131790612c41565b80156113625780601f1061133957610100808354040283529160200191611362565b820191905f5260205f20905b81548152906001019060200180831161134557829003601f168201915b50505050509080600101805461137790612c41565b80601f01602080910402602001604051908101604052809291908181526020018280546113a390612c41565b80156113ee5780601f106113c5576101008083540402835291602001916113ee565b820191905f5260205f20905b8154815290600101906020018083116113d157829003601f168201915b50505050509080600201805461140390612c41565b80601f016020809104026020016040519081016040528092919081815260200182805461142f90612c41565b801561147a5780601f106114515761010080835404028352916020019161147a565b820191905f5260205f20905b81548152906001019060200180831161145d57829003601f168201915b505050505090806003015490806004015490806005015f9054906101000a900460ff16908060060180546114ad90612c41565b80601f01602080910402602001604051908101604052809291908181526020018280546114d990612c41565b80156115245780601f106114fb57610100808354040283529160200191611524565b820191905f5260205f20905b81548152906001019060200180831161150757829003601f168201915b50505050509080600701805461153990612c41565b80601f016020809104026020016040519081016040528092919081815260200182805461156590612c41565b80156115b05780601f10611587576101008083540402835291602001916115b0565b820191905f5260205f20905b81548152906001019060200180831161159357829003601f168201915b5050505050905088565b5f8060050160149054906101000a900460ff16905090565b5f6005015f9054906101000a900473ffffffffffffffffffffffffffffffffffffffff1673ffffffffffffffffffffffffffffffffffffffff163373ffffffffffffffffffffffffffffffffffffffff1614611663576040517f08c379a000000000000000000000000000000000000000000000000000000000815260040161165a9061313b565b60405180910390fd5b60065482106116a7576040517f08c379a000000000000000000000000000000000000000000000000000000000815260040161169e906130d3565b60405180910390fd5b60085f8381526020019081526020015f206005015f9054906101000a900460ff16611707576040517f08c379a00000000000000000000000000000000000000000000000000000000081526004016116fe906131a3565b60405180910390fd5b5f60085f8481526020019081526020015f206005015f6101000a81548160ff0219169083151502179055508060085f8481526020019081526020015f2060070190816117539190612e0e565b505050565b5f805f01805461176790612c41565b80601f016020809104026020016040519081016040528092919081815260200182805461179390612c41565b80156117de5780601f106117b5576101008083540402835291602001916117de565b820191905f5260205f20905b8154815290600101906020018083116117c157829003601f168201915b5050505050908060010180546117f390612c41565b80601f016020809104026020016040519081016040528092919081815260200182805461181f90612c41565b801561186a5780601f106118415761010080835404028352916020019161186a565b820191905f5260205f20905b81548152906001019060200180831161184d57829003601f168201915b50505050509080600201805461187f90612c41565b80601f01602080910402602001604051908101604052809291908181526020018280546118ab90612c41565b80156118f65780601f106118cd576101008083540402835291602001916118f6565b820191905f5260205f20905b8154815290600101906020018083116118d957829003601f168201915b50505050509080600301805461190b90612c41565b80601f016020809104026020016040519081016040528092919081815260200182805461193790612c41565b80156119825780601f1061195957610100808354040283529160200191611982565b820191905f5260205f20905b81548152906001019060200180831161196557829003601f168201915b50505050509080600401805461199790612c41565b80601f01602080910402602001604051908101604052809291908181526020018280546119c390612c41565b8015611a0e5780601f106119e557610100808354040283529160200191611a0e565b820191905f5260205f20905b8154815290600101906020018083116119f157829003601f168201915b505050505090806005015f9054906101000a900473ffffffffffffffffffffffffffffffffffffffff16908060050160149054906101000a900460ff16905087565b5f6005015f9054906101000a900473ffffffffffffffffffffffffffffffffffffffff1673ffffffffffffffffffffffffffffffffffffffff163373ffffffffffffffffffffffffffffffffffffffff1614611ae1576040517f08c379a0000000000000000000000000000000000000000000000000000000008152600401611ad890613231565b60405180910390fd5b815f6003019081611af29190612e0e565b50805f80019081611b039190612e0e565b505050565b60065481565b5f6005015f9054906101000a900473ffffffffffffffffffffffffffffffffffffffff1673ffffffffffffffffffffffffffffffffffffffff163373ffffffffffffffffffffffffffffffffffffffff1614611b9f576040517f08c379a0000000000000000000000000000000000000000000000000000000008152600401611b9690613299565b60405180910390fd5b6006548410611be3576040517f08c379a0000000000000000000000000000000000000000000000000000000008152600401611bda906130d3565b60405180910390fd5b8260085f8681526020019081526020015f2060040181905550818160085f8781526020019081526020015f206007019182611c1f9291906132c1565b5050505050565b828054828255905f5260205f20908101928215611c6c579160200282015b82811115611c6b578251829081611c5b9190612e0e565b5091602001919060010190611c44565b5b509050611c799190611d1b565b5090565b6040518061012001604052806060815260200160608152602001606081526020015f81526020015f81526020015f151581526020016060815260200160608152602001606081525090565b6040518060e0016040528060608152602001606081526020016060815260200160608152602001606081526020015f73ffffffffffffffffffffffffffffffffffffffff1681526020015f151581525090565b5b80821115611d3a575f8181611d319190611d3e565b50600101611d1c565b5090565b508054611d4a90612c41565b5f825580601f10611d5b5750611d78565b601f0160209004905f5260205f2090810190611d779190611d7b565b5b50565b5b80821115611d92575f815f905550600101611d7c565b5090565b5f819050919050565b611da881611d96565b82525050565b5f602082019050611dc15f830184611d9f565b92915050565b5f604051905090565b5f80fd5b5f80fd5b5f80fd5b5f601f19601f8301169050919050565b7f4e487b71000000000000000000000000000000000000000000000000000000005f52604160045260245ffd5b611e2282611ddc565b810181811067ffffffffffffffff82111715611e4157611e40611dec565b5b80604052505050565b5f611e53611dc7565b9050611e5f8282611e19565b919050565b5f80fd5b5f80fd5b5f80fd5b5f67ffffffffffffffff821115611e8a57611e89611dec565b5b611e9382611ddc565b9050602081019050919050565b828183375f83830152505050565b5f611ec0611ebb84611e70565b611e4a565b905082815260208101848484011115611edc57611edb611e6c565b5b611ee7848285611ea0565b509392505050565b5f82601f830112611f0357611f02611e68565b5b8135611f13848260208601611eae565b91505092915050565b611f2581611d96565b8114611f2f575f80fd5b50565b5f81359050611f4081611f1c565b92915050565b5f8115159050919050565b611f5a81611f46565b8114611f64575f80fd5b50565b5f81359050611f7581611f51565b92915050565b5f67ffffffffffffffff821115611f9557611f94611dec565b5b602082029050602081019050919050565b5f80fd5b5f611fbc611fb784611f7b565b611e4a565b90508083825260208201905060208402830185811115611fdf57611fde611fa6565b5b835b8181101561202657803567ffffffffffffffff81111561200457612003611e68565b5b8086016120118982611eef565b85526020850194505050602081019050611fe1565b5050509392505050565b5f82601f83011261204457612043611e68565b5b8135612054848260208601611faa565b91505092915050565b5f610120828403121561207357612072611dd8565b5b61207e610120611e4a565b90505f82013567ffffffffffffffff81111561209d5761209c611e64565b5b6120a984828501611eef565b5f83015250602082013567ffffffffffffffff8111156120cc576120cb611e64565b5b6120d884828501611eef565b602083015250604082013567ffffffffffffffff8111156120fc576120fb611e64565b5b61210884828501611eef565b604083015250606061211c84828501611f32565b606083015250608061213084828501611f32565b60808301525060a061214484828501611f67565b60a08301525060c082013567ffffffffffffffff81111561216857612167611e64565b5b61217484828501611eef565b60c08301525060e082013567ffffffffffffffff81111561219857612197611e64565b5b6121a484828501611eef565b60e08301525061010082013567ffffffffffffffff8111156121c9576121c8611e64565b5b6121d584828501612030565b6101008301525092915050565b5f602082840312156121f7576121f6611dd0565b5b5f82013567ffffffffffffffff81111561221457612213611dd4565b5b6122208482850161205d565b91505092915050565b5f81519050919050565b5f82825260208201905092915050565b5f819050602082019050919050565b5f81519050919050565b5f82825260208201905092915050565b5f5b8381101561228957808201518184015260208101905061226e565b5f8484015250505050565b5f61229e82612252565b6122a8818561225c565b93506122b881856020860161226c565b6122c181611ddc565b840191505092915050565b6122d581611d96565b82525050565b6122e481611f46565b82525050565b5f81519050919050565b5f82825260208201905092915050565b5f819050602082019050919050565b5f61231e8383612294565b905092915050565b5f602082019050919050565b5f61233c826122ea565b61234681856122f4565b93508360208202850161235885612304565b805f5b8581101561239357848403895281516123748582612313565b945061237f83612326565b925060208a0199505060018101905061235b565b50829750879550505050505092915050565b5f61012083015f8301518482035f8601526123c08282612294565b915050602083015184820360208601526123da8282612294565b915050604083015184820360408601526123f48282612294565b915050606083015161240960608601826122cc565b50608083015161241c60808601826122cc565b5060a083015161242f60a08601826122db565b5060c083015184820360c08601526124478282612294565b91505060e083015184820360e08601526124618282612294565b91505061010083015184820361010086015261247d8282612332565b9150508091505092915050565b5f61249583836123a5565b905092915050565b5f602082019050919050565b5f6124b382612229565b6124bd8185612233565b9350836020820285016124cf85612243565b805f5b8581101561250a57848403895281516124eb858261248a565b94506124f68361249d565b925060208a019950506001810190506124d2565b50829750879550505050505092915050565b5f6020820190508181035f83015261253481846124a9565b905092915050565b5f73ffffffffffffffffffffffffffffffffffffffff82169050919050565b5f6125658261253c565b9050919050565b6125758161255b565b82525050565b5f60e083015f8301518482035f8601526125958282612294565b915050602083015184820360208601526125af8282612294565b915050604083015184820360408601526125c98282612294565b915050606083015184820360608601526125e38282612294565b915050608083015184820360808601526125fd8282612294565b91505060a083015161261260a086018261256c565b5060c083015161262560c08601826122db565b508091505092915050565b5f6020820190508181035f830152612648818461257b565b905092915050565b5f806040838503121561266657612665611dd0565b5b5f83013567ffffffffffffffff81111561268357612682611dd4565b5b61268f8582860161205d565b92505060206126a085828601611f32565b9150509250929050565b5f602082840312156126bf576126be611dd0565b5b5f6126cc84828501611f32565b91505092915050565b6126de8161255b565b82525050565b6126ed81611f46565b82525050565b5f60c0820190506127065f8301896126d5565b6127136020830188611d9f565b6127206040830187611d9f565b61272d6060830186611d9f565b61273a6080830185611d9f565b61274760a08301846126e4565b979650505050505050565b5f82825260208201905092915050565b5f61276c82612252565b6127768185612752565b935061278681856020860161226c565b61278f81611ddc565b840191505092915050565b5f610100820190508181035f8301526127b3818b612762565b905081810360208301526127c7818a612762565b905081810360408301526127db8189612762565b90506127ea6060830188611d9f565b6127f76080830187611d9f565b61280460a08301866126e4565b81810360c08301526128168185612762565b905081810360e083015261282a8184612762565b90509998505050505050505050565b5f60208201905061284c5f8301846126e4565b92915050565b5f806040838503121561286857612867611dd0565b5b5f61287585828601611f32565b925050602083013567ffffffffffffffff81111561289657612895611dd4565b5b6128a285828601611eef565b9150509250929050565b5f60e0820190508181035f8301526128c4818a612762565b905081810360208301526128d88189612762565b905081810360408301526128ec8188612762565b905081810360608301526129008187612762565b905081810360808301526129148186612762565b905061292360a08301856126d5565b61293060c08301846126e4565b98975050505050505050565b5f806040838503121561295257612951611dd0565b5b5f83013567ffffffffffffffff81111561296f5761296e611dd4565b5b61297b85828601611eef565b925050602083013567ffffffffffffffff81111561299c5761299b611dd4565b5b6129a885828601611eef565b9150509250929050565b5f80fd5b5f8083601f8401126129cb576129ca611e68565b5b8235905067ffffffffffffffff8111156129e8576129e76129b2565b5b602083019150836001820283011115612a0457612a03611fa6565b5b9250929050565b5f805f8060608587031215612a2357612a22611dd0565b5b5f612a3087828801611f32565b9450506020612a4187828801611f32565b935050604085013567ffffffffffffffff811115612a6257612a61611dd4565b5b612a6e878288016129b6565b925092505092959194509250565b7f4e487b71000000000000000000000000000000000000000000000000000000005f52601160045260245ffd5b5f612ab382611d96565b9150612abe83611d96565b9250828201905080821115612ad657612ad5612a7c565b5b92915050565b7f4f6e6c79206f776e65722063616e20756e7075626c6973682073686f700000005f82015250565b5f612b10601d83612752565b9150612b1b82612adc565b602082019050919050565b5f6020820190508181035f830152612b3d81612b04565b9050919050565b7f53686f70206973206e6f74207075626c697368656400000000000000000000005f82015250565b5f612b78601583612752565b9150612b8382612b44565b602082019050919050565b5f6020820190508181035f830152612ba581612b6c565b9050919050565b7f4f6e6c79206f776e65722063616e206164642070726f647563747300000000005f82015250565b5f612be0601b83612752565b9150612beb82612bac565b602082019050919050565b5f6020820190508181035f830152612c0d81612bd4565b9050919050565b7f4e487b71000000000000000000000000000000000000000000000000000000005f52602260045260245ffd5b5f6002820490506001821680612c5857607f821691505b602082108103612c6b57612c6a612c14565b5b50919050565b5f819050815f5260205f209050919050565b5f6020601f8301049050919050565b5f82821b905092915050565b5f60088302612ccd7fffffffffffffffffffffffffffffffffffffffffffffffffffffffffffffffff82612c92565b612cd78683612c92565b95508019841693508086168417925050509392505050565b5f819050919050565b5f612d12612d0d612d0884611d96565b612cef565b611d96565b9050919050565b5f819050919050565b612d2b83612cf8565b612d3f612d3782612d19565b848454612c9e565b825550505050565b5f90565b612d53612d47565b612d5e818484612d22565b505050565b5b81811015612d8157612d765f82612d4b565b600181019050612d64565b5050565b601f821115612dc657612d9781612c71565b612da084612c83565b81016020851015612daf578190505b612dc3612dbb85612c83565b830182612d63565b50505b505050565b5f82821c905092915050565b5f612de65f1984600802612dcb565b1980831691505092915050565b5f612dfe8383612dd7565b9150826002028217905092915050565b612e1782612252565b67ffffffffffffffff811115612e3057612e2f611dec565b5b612e3a8254612c41565b612e45828285612d85565b5f60209050601f831160018114612e76575f8415612e64578287015190505b612e6e8582612df3565b865550612ed5565b601f198416612e8486612c71565b5f5b82811015612eab57848901518255600182019150602085019450602081019050612e86565b86831015612ec85784890151612ec4601f891682612dd7565b8355505b6001600288020188555050505b505050505050565b7f4e487b71000000000000000000000000000000000000000000000000000000005f52603260045260245ffd5b5f612f1482611d96565b91507fffffffffffffffffffffffffffffffffffffffffffffffffffffffffffffffff8203612f4657612f45612a7c565b5b600182019050919050565b7f4f6e6c79206f776e65722063616e207075626c6973682073686f7000000000005f82015250565b5f612f85601b83612752565b9150612f9082612f51565b602082019050919050565b5f6020820190508181035f830152612fb281612f79565b9050919050565b7f53686f7020697320616c7265616479207075626c6973686564000000000000005f82015250565b5f612fed601983612752565b9150612ff882612fb9565b602082019050919050565b5f6020820190508181035f83015261301a81612fe1565b9050919050565b7f4f6e6c79206f776e65722063616e207570646174652070726f647563747300005f82015250565b5f613055601e83612752565b915061306082613021565b602082019050919050565b5f6020820190508181035f83015261308281613049565b9050919050565b7f50726f6475637420646f6573206e6f74206578697374000000000000000000005f82015250565b5f6130bd601683612752565b91506130c882613089565b602082019050919050565b5f6020820190508181035f8301526130ea816130b1565b9050919050565b7f4f6e6c79206f776e65722063616e2072656d6f76652070726f647563747300005f82015250565b5f613125601e83612752565b9150613130826130f1565b602082019050919050565b5f6020820190508181035f83015261315281613119565b9050919050565b7f50726f6475637420616c72656164792072656d6f7665640000000000000000005f82015250565b5f61318d601783612752565b915061319882613159565b602082019050919050565b5f6020820190508181035f8301526131ba81613181565b9050919050565b7f4f6e6c79206f776e65722063616e207570646174652073686f7020636f6e66695f8201527f6775726174696f6e000000000000000000000000000000000000000000000000602082015250565b5f61321b602883612752565b9150613226826131c1565b604082019050919050565b5f6020820190508181035f8301526132488161320f565b9050919050565b7f4f6e6c79206f776e65722063616e207570646174652073746f636b00000000005f82015250565b5f613283601b83612752565b915061328e8261324f565b602082019050919050565b5f6020820190508181035f8301526132b081613277565b9050919050565b5f82905092915050565b6132cb83836132b7565b67ffffffffffffffff8111156132e4576132e3611dec565b5b6132ee8254612c41565b6132f9828285612d85565b5f601f831160018114613326575f8415613314578287013590505b61331e8582612df3565b865550613385565b601f19841661333486612c71565b5f5b8281101561335b57848901358255600182019150602085019450602081019050613336565b868310156133785784890135613374601f891682612dd7565b8355505b6001600288020188555050505b5050505050505056fea26469706673582212200e545185452d6ed5fc2663c3babcf4603eed424b7f9ffd6562479abec257e1da64736f6c63430008170033",
  "linkReferences": {},
  "deployedLinkReferences": {},
  "immutableReferences": {},
  "inputSourceName": "project/contracts/Shop.sol",
  "buildInfoId": "solc-0_8_23-28c9639553e8c190421e623235a8563aaf926da4"
}