{
  "_format": "hh3-artifact-1",
  "contractName": "Shop",
  "sourceName": "contracts/Shop.sol",
  "abi": [
    {
      "inputs": [
        {
          "components": [
            {
              "internalType": "string",
              "name": "shopName",
              "type": "string"
            },
            {
              "internalType": "string",
              "name": "shopType",
              "type": "string"
            },
            {
              "internalType": "string",
              "name": "description",
              "type": "string"
            },
            {
              "internalType": "string",
              "name": "configuration",
              "type": "string"
            },
            {
              "internalType": "string",
              "name": "thumbnailIpfsHash",
              "type": "string"
            },
            {
              "internalType": "address",
              "name": "owner",
              "type": "address"
            }
          ],
          "internalType": "struct ShopDetails",
          "name": "_shopDetails",
          "type": "tuple"
        }
      ],
      "stateMutability": "nonpayable",
      "type": "constructor"
    },
    {
      "inputs": [
        {
          "components": [
            {
              "internalType": "string",
              "name": "id",
              "type": "string"
            },
            {
              "internalType": "string",
              "name": "name",
              "type": "string"
            },
            {
              "internalType": "string",
              "name": "description",
              "type": "string"
            },
            {
              "internalType": "uint256",
              "name": "price",
              "type": "uint256"
            },
            {
              "internalType": "uint256",
              "name": "stock",
              "type": "uint256"
            },
            {
              "internalType": "bool",
              "name": "isActive",
              "type": "bool"
            },
            {
              "internalType": "string",
              "name": "createdAt",
              "type": "string"
            },
            {
              "internalType": "string",
              "name": "updatedAt",
              "type": "string"
            },
            {
              "internalType": "string[]",
              "name": "ipfsHash",
              "type": "string[]"
            }
          ],
          "internalType": "struct Item",
          "name": "_item",
          "type": "tuple"
        }
      ],
      "name": "addProduct",
      "outputs": [],
      "stateMutability": "nonpayable",
      "type": "function"
    },
    {
      "inputs": [],
      "name": "createTransaction",
      "outputs": [],
      "stateMutability": "nonpayable",
      "type": "function"
    },
    {
      "inputs": [],
      "name": "getAllItems",
      "outputs": [
        {
          "components": [
            {
              "internalType": "string",
              "name": "id",
              "type": "string"
            },
            {
              "internalType": "string",
              "name": "name",
              "type": "string"
            },
            {
              "internalType": "string",
              "name": "description",
              "type": "string"
            },
            {
              "internalType": "uint256",
              "name": "price",
              "type": "uint256"
            },
            {
              "internalType": "uint256",
              "name": "stock",
              "type": "uint256"
            },
            {
              "internalType": "bool",
              "name": "isActive",
              "type": "bool"
            },
            {
              "internalType": "string",
              "name": "createdAt",
              "type": "string"
            },
            {
              "internalType": "string",
              "name": "updatedAt",
              "type": "string"
            },
            {
              "internalType": "string[]",
              "name": "ipfsHash",
              "type": "string[]"
            }
          ],
          "internalType": "struct Item[]",
          "name": "",
          "type": "tuple[]"
        }
      ],
      "stateMutability": "view",
      "type": "function"
    },
    {
      "inputs": [],
      "name": "getProductCount",
      "outputs": [
        {
          "internalType": "uint256",
          "name": "",
          "type": "uint256"
        }
      ],
      "stateMutability": "view",
      "type": "function"
    },
    {
      "inputs": [],
      "name": "getTotalSales",
      "outputs": [
        {
          "internalType": "uint256",
          "name": "",
          "type": "uint256"
        }
      ],
      "stateMutability": "view",
      "type": "function"
    },
    {
      "inputs": [
        {
          "internalType": "uint256",
          "name": "",
          "type": "uint256"
        }
      ],
      "name": "items",
      "outputs": [
        {
          "internalType": "string",
          "name": "id",
          "type": "string"
        },
        {
          "internalType": "string",
          "name": "name",
          "type": "string"
        },
        {
          "internalType": "string",
          "name": "description",
          "type": "string"
        },
        {
          "internalType": "uint256",
          "name": "price",
          "type": "uint256"
        },
        {
          "internalType": "uint256",
          "name": "stock",
          "type": "uint256"
        },
        {
          "internalType": "bool",
          "name": "isActive",
          "type": "bool"
        },
        {
          "internalType": "string",
          "name": "createdAt",
          "type": "string"
        },
        {
          "internalType": "string",
          "name": "updatedAt",
          "type": "string"
        }
      ],
      "stateMutability": "view",
      "type": "function"
    },
    {
      "inputs": [],
      "name": "orderCount",
      "outputs": [
        {
          "internalType": "uint256",
          "name": "",
          "type": "uint256"
        }
      ],
      "stateMutability": "view",
      "type": "function"
    },
    {
      "inputs": [
        {
          "internalType": "uint256",
          "name": "",
          "type": "uint256"
        }
      ],
      "name": "orders",
      "outputs": [
        {
          "internalType": "address",
          "name": "buyer",
          "type": "address"
        },
        {
          "internalType": "uint256",
          "name": "itemId",
          "type": "uint256"
        },
        {
          "internalType": "uint256",
          "name": "quantity",
          "type": "uint256"
        },
        {
          "internalType": "uint256",
          "name": "totalPrice",
          "type": "uint256"
        },
        {
          "internalType": "uint256",
          "name": "timestamp",
          "type": "uint256"
        },
        {
          "internalType": "bool",
          "name": "isDelivered",
          "type": "bool"
        }
      ],
      "stateMutability": "view",
      "type": "function"
    },
    {
      "inputs": [],
      "name": "productCount",
      "outputs": [
        {
          "internalType": "uint256",
          "name": "",
          "type": "uint256"
        }
      ],
      "stateMutability": "view",
      "type": "function"
    },
    {
      "inputs": [
        {
          "internalType": "uint256",
          "name": "_itemId",
          "type": "uint256"
        },
        {
          "internalType": "string",
          "name": "_currentDate",
          "type": "string"
        }
      ],
      "name": "removeProduct",
      "outputs": [],
      "stateMutability": "nonpayable",
      "type": "function"
    },
    {
      "inputs": [],
      "name": "shopDetails",
      "outputs": [
        {
          "internalType": "string",
          "name": "shopName",
          "type": "string"
        },
        {
          "internalType": "string",
          "name": "shopType",
          "type": "string"
        },
        {
          "internalType": "string",
          "name": "description",
          "type": "string"
        },
        {
          "internalType": "string",
          "name": "configuration",
          "type": "string"
        },
        {
          "internalType": "string",
          "name": "thumbnailIpfsHash",
          "type": "string"
        },
        {
          "internalType": "address",
          "name": "owner",
          "type": "address"
        }
      ],
      "stateMutability": "view",
      "type": "function"
    },
    {
      "inputs": [
        {
          "components": [
            {
              "internalType": "string",
              "name": "id",
              "type": "string"
            },
            {
              "internalType": "string",
              "name": "name",
              "type": "string"
            },
            {
              "internalType": "string",
              "name": "description",
              "type": "string"
            },
            {
              "internalType": "uint256",
              "name": "price",
              "type": "uint256"
            },
            {
              "internalType": "uint256",
              "name": "stock",
              "type": "uint256"
            },
            {
              "internalType": "bool",
              "name": "isActive",
              "type": "bool"
            },
            {
              "internalType": "string",
              "name": "createdAt",
              "type": "string"
            },
            {
              "internalType": "string",
              "name": "updatedAt",
              "type": "string"
            },
            {
              "internalType": "string[]",
              "name": "ipfsHash",
              "type": "string[]"
            }
          ],
          "internalType": "struct Item",
          "name": "_item",
          "type": "tuple"
        },
        {
          "internalType": "uint256",
          "name": "_itemIndex",
          "type": "uint256"
        }
      ],
      "name": "updateProduct",
      "outputs": [],
      "stateMutability": "nonpayable",
      "type": "function"
    },
    {
      "inputs": [
        {
          "internalType": "uint256",
          "name": "_itemId",
          "type": "uint256"
        },
        {
          "internalType": "uint256",
          "name": "_newStock",
          "type": "uint256"
        },
        {
          "internalType": "string",
          "name": "_currentDate",
          "type": "string"
        }
      ],
      "name": "updateStock",
      "outputs": [],
      "stateMutability": "nonpayable",
      "type": "function"
    }
  ],
  "bytecode": "0x608060405234801562000010575f80fd5b506040516200308c3803806200308c833981810160405281019062000036919062000443565b805f80820151815f0190816200004d9190620006c9565b506020820151816001019081620000659190620006c9565b5060408201518160020190816200007d9190620006c9565b506060820151816003019081620000959190620006c9565b506080820151816004019081620000ad9190620006c9565b5060a0820151816005015f6101000a81548173ffffffffffffffffffffffffffffffffffffffff021916908373ffffffffffffffffffffffffffffffffffffffff1602179055509050505f6006819055505f60078190555050620007ad565b5f604051905090565b5f80fd5b5f80fd5b5f80fd5b5f601f19601f8301169050919050565b7f4e487b71000000000000000000000000000000000000000000000000000000005f52604160045260245ffd5b620001698262000121565b810181811067ffffffffffffffff821117156200018b576200018a62000131565b5b80604052505050565b5f6200019f6200010c565b9050620001ad82826200015e565b919050565b5f80fd5b5f80fd5b5f80fd5b5f67ffffffffffffffff821115620001db57620001da62000131565b5b620001e68262000121565b9050602081019050919050565b5f5b8381101562000212578082015181840152602081019050620001f5565b5f8484015250505050565b5f620002336200022d84620001be565b62000194565b905082815260208101848484011115620002525762000251620001ba565b5b6200025f848285620001f3565b509392505050565b5f82601f8301126200027e576200027d620001b6565b5b8151620002908482602086016200021d565b91505092915050565b5f73ffffffffffffffffffffffffffffffffffffffff82169050919050565b5f620002c48262000299565b9050919050565b620002d681620002b8565b8114620002e1575f80fd5b50565b5f81519050620002f481620002cb565b92915050565b5f60c082840312156200031257620003116200011d565b5b6200031e60c062000194565b90505f82015167ffffffffffffffff81111562000340576200033f620001b2565b5b6200034e8482850162000267565b5f83015250602082015167ffffffffffffffff811115620003745762000373620001b2565b5b620003828482850162000267565b602083015250604082015167ffffffffffffffff811115620003a957620003a8620001b2565b5b620003b78482850162000267565b604083015250606082015167ffffffffffffffff811115620003de57620003dd620001b2565b5b620003ec8482850162000267565b606083015250608082015167ffffffffffffffff811115620004135762000412620001b2565b5b620004218482850162000267565b60808301525060a06200043784828501620002e4565b60a08301525092915050565b5f602082840312156200045b576200045a62000115565b5b5f82015167ffffffffffffffff8111156200047b576200047a62000119565b5b6200048984828501620002fa565b91505092915050565b5f81519050919050565b7f4e487b71000000000000000000000000000000000000000000000000000000005f52602260045260245ffd5b5f6002820490506001821680620004e157607f821691505b602082108103620004f757620004f66200049c565b5b50919050565b5f819050815f5260205f209050919050565b5f6020601f8301049050919050565b5f82821b905092915050565b5f600883026200055b7fffffffffffffffffffffffffffffffffffffffffffffffffffffffffffffffff826200051e565b6200056786836200051e565b95508019841693508086168417925050509392505050565b5f819050919050565b5f819050919050565b5f620005b1620005ab620005a5846200057f565b62000588565b6200057f565b9050919050565b5f819050919050565b620005cc8362000591565b620005e4620005db82620005b8565b8484546200052a565b825550505050565b5f90565b620005fa620005ec565b62000607818484620005c1565b505050565b5b818110156200062e57620006225f82620005f0565b6001810190506200060d565b5050565b601f8211156200067d576200064781620004fd565b62000652846200050f565b8101602085101562000662578190505b6200067a62000671856200050f565b8301826200060c565b50505b505050565b5f82821c905092915050565b5f6200069f5f198460080262000682565b1980831691505092915050565b5f620006b983836200068e565b9150826002028217905092915050565b620006d48262000492565b67ffffffffffffffff811115620006f057620006ef62000131565b5b620006fc8254620004c9565b6200070982828562000632565b5f60209050601f8311600181146200073f575f84156200072a578287015190505b620007368582620006ac565b865550620007a5565b601f1984166200074f86620004fd565b5f5b82811015620007785784890151825560018201915060208501945060208101905062000751565b8683101562000798578489015162000794601f8916826200068e565b8355505b6001600288020188555050505b505050505050565b6128d180620007bb5f395ff3fe608060405234801561000f575f80fd5b50600436106100cd575f3560e01c8063a21dd86d1161008a578063cdc4777d11610064578063cdc4777d146101f7578063ce74061814610213578063e0f6ef8714610236578063eb88676e14610254576100cd565b8063a21dd86d1461016f578063a85c38ef1461018b578063bfb231d2146101c0576100cd565b80632156a96c146100d15780632453ffa8146100ef57806330c25c061461010d5780634a348da9146101295780634ba1d6aa1461014757806397b54cc214610165575b5f80fd5b6100d9610270565b6040516100e6919061166a565b60405180910390f35b6100f76102b8565b604051610104919061166a565b60405180910390f35b61012760048036038101906101229190611a9e565b6102be565b005b61013161056b565b60405161013e919061166a565b60405180910390f35b61014f610574565b60405161015c9190611dd8565b60405180910390f35b61016d6109fc565b005b61018960048036038101906101849190611df8565b6109fe565b005b6101a560048036038101906101a09190611e52565b610c5b565b6040516101b796959493929190611ecb565b60405180910390f35b6101da60048036038101906101d59190611e52565b610cbe565b6040516101ee989796959493929190611f72565b60405180910390f35b610211600480360381019061020c9190612011565b610fac565b005b61021b611132565b60405161022d9695949392919061206b565b60405180910390f35b61023e611417565b60405161024b919061166a565b60405180910390f35b61026e60048036038101906102699190612146565b61141d565b005b5f805f90505f5b6007548110156102b05760095f8281526020019081526020015f2060030154826102a191906121e4565b91508080600101915050610277565b508091505090565b60075481565b5f6005015f9054906101000a900473ffffffffffffffffffffffffffffffffffffffff1673ffffffffffffffffffffffffffffffffffffffff163373ffffffffffffffffffffffffffffffffffffffff161461034f576040517f08c379a000000000000000000000000000000000000000000000000000000000815260040161034690612261565b60405180910390fd5b604051806101200160405280825f01518152602001826020015181526020018260400151815260200182606001518152602001826080015181526020018260a00151151581526020018260c0015181526020018260e0015181526020018261010001515167ffffffffffffffff8111156103cc576103cb6116a8565b5b6040519080825280602002602001820160405280156103ff57816020015b60608152602001906001900390816103ea5790505b5081525060085f60065481526020019081526020015f205f820151815f0190816104299190612479565b50602082015181600101908161043f9190612479565b5060408201518160020190816104559190612479565b50606082015181600301556080820151816004015560a0820151816005015f6101000a81548160ff02191690831515021790555060c082015181600601908161049e9190612479565b5060e08201518160070190816104b49190612479565b506101008201518160080190805190602001906104d2929190611535565b509050505f5b816101000151518110156105505781610100015181815181106104fe576104fd612548565b5b602002602001015160085f60065481526020019081526020015f20600801828154811061052e5761052d612548565b5b905f5260205f200190816105429190612479565b5080806001019150506104d8565b5060065f81548092919061056390612575565b919050555050565b5f600654905090565b60605f60065467ffffffffffffffff811115610593576105926116a8565b5b6040519080825280602002602001820160405280156105cc57816020015b6105b961158c565b8152602001906001900390816105b15790505b5090505f5b6006548110156109f45760085f8281526020019081526020015f20604051806101200160405290815f82018054610607906122ac565b80601f0160208091040260200160405190810160405280929190818152602001828054610633906122ac565b801561067e5780601f106106555761010080835404028352916020019161067e565b820191905f5260205f20905b81548152906001019060200180831161066157829003601f168201915b50505050508152602001600182018054610697906122ac565b80601f01602080910402602001604051908101604052809291908181526020018280546106c3906122ac565b801561070e5780601f106106e55761010080835404028352916020019161070e565b820191905f5260205f20905b8154815290600101906020018083116106f157829003601f168201915b50505050508152602001600282018054610727906122ac565b80601f0160208091040260200160405190810160405280929190818152602001828054610753906122ac565b801561079e5780601f106107755761010080835404028352916020019161079e565b820191905f5260205f20905b81548152906001019060200180831161078157829003601f168201915b505050505081526020016003820154815260200160048201548152602001600582015f9054906101000a900460ff161515151581526020016006820180546107e5906122ac565b80601f0160208091040260200160405190810160405280929190818152602001828054610811906122ac565b801561085c5780601f106108335761010080835404028352916020019161085c565b820191905f5260205f20905b81548152906001019060200180831161083f57829003601f168201915b50505050508152602001600782018054610875906122ac565b80601f01602080910402602001604051908101604052809291908181526020018280546108a1906122ac565b80156108ec5780601f106108c3576101008083540402835291602001916108ec565b820191905f5260205f20905b8154815290600101906020018083116108cf57829003601f168201915b5050505050815260200160088201805480602002602001604051908101604052809291908181526020015f905b828210156109c1578382905f5260205f20018054610936906122ac565b80601f0160208091040260200160405190810160405280929190818152602001828054610962906122ac565b80156109ad5780601f10610984576101008083540402835291602001916109ad565b820191905f5260205f20905b81548152906001019060200180831161099057829003601f168201915b505050505081526020019060010190610919565b50505050815250508282815181106109dc576109db612548565b5b602002602001018190525080806001019150506105d1565b508091505090565b565b5f6005015f9054906101000a900473ffffffffffffffffffffffffffffffffffffffff1673ffffffffffffffffffffffffffffffffffffffff163373ffffffffffffffffffffffffffffffffffffffff1614610a8f576040517f08c379a0000000000000000000000000000000000000000000000000000000008152600401610a8690612606565b60405180910390fd5b6006548110610ad3576040517f08c379a0000000000000000000000000000000000000000000000000000000008152600401610aca9061266e565b60405180910390fd5b816060015160085f8381526020019081526020015f2060030181905550816080015160085f8381526020019081526020015f20600401819055508160a0015160085f8381526020019081526020015f206005015f6101000a81548160ff0219169083151502179055508160e0015160085f8381526020019081526020015f206007019081610b619190612479565b508161010001515167ffffffffffffffff811115610b8257610b816116a8565b5b604051908082528060200260200182016040528015610bb557816020015b6060815260200190600190039081610ba05790505b5060085f8381526020019081526020015f206008019080519060200190610bdd929190611535565b505f5b82610100015151811015610c56578261010001518181518110610c0657610c05612548565b5b602002602001015160085f8481526020019081526020015f206008018281548110610c3457610c33612548565b5b905f5260205f20019081610c489190612479565b508080600101915050610be0565b505050565b6009602052805f5260405f205f91509050805f015f9054906101000a900473ffffffffffffffffffffffffffffffffffffffff1690806001015490806002015490806003015490806004015490806005015f9054906101000a900460ff16905086565b6008602052805f5260405f205f91509050805f018054610cdd906122ac565b80601f0160208091040260200160405190810160405280929190818152602001828054610d09906122ac565b8015610d545780601f10610d2b57610100808354040283529160200191610d54565b820191905f5260205f20905b815481529060010190602001808311610d3757829003601f168201915b505050505090806001018054610d69906122ac565b80601f0160208091040260200160405190810160405280929190818152602001828054610d95906122ac565b8015610de05780601f10610db757610100808354040283529160200191610de0565b820191905f5260205f20905b815481529060010190602001808311610dc357829003601f168201915b505050505090806002018054610df5906122ac565b80601f0160208091040260200160405190810160405280929190818152602001828054610e21906122ac565b8015610e6c5780601f10610e4357610100808354040283529160200191610e6c565b820191905f5260205f20905b815481529060010190602001808311610e4f57829003601f168201915b505050505090806003015490806004015490806005015f9054906101000a900460ff1690806006018054610e9f906122ac565b80601f0160208091040260200160405190810160405280929190818152602001828054610ecb906122ac565b8015610f165780601f10610eed57610100808354040283529160200191610f16565b820191905f5260205f20905b815481529060010190602001808311610ef957829003601f168201915b505050505090806007018054610f2b906122ac565b80601f0160208091040260200160405190810160405280929190818152602001828054610f57906122ac565b8015610fa25780601f10610f7957610100808354040283529160200191610fa2565b820191905f5260205f20905b815481529060010190602001808311610f8557829003601f168201915b5050505050905088565b5f6005015f9054906101000a900473ffffffffffffffffffffffffffffffffffffffff1673ffffffffffffffffffffffffffffffffffffffff163373ffffffffffffffffffffffffffffffffffffffff161461103d576040517f08c379a0000000000000000000000000000000000000000000000000000000008152600401611034906126d6565b60405180910390fd5b6006548210611081576040517f08c379a00000000000000000000000000000000000000000000000000000000081526004016110789061266e565b60405180910390fd5b60085f8381526020019081526020015f206005015f9054906101000a900460ff166110e1576040517f08c379a00000000000000000000000000000000000000000000000000000000081526004016110d89061273e565b60405180910390fd5b5f60085f8481526020019081526020015f206005015f6101000a81548160ff0219169083151502179055508060085f8481526020019081526020015f20600701908161112d9190612479565b505050565b5f805f018054611141906122ac565b80601f016020809104026020016040519081016040528092919081815260200182805461116d906122ac565b80156111b85780601f1061118f576101008083540402835291602001916111b8565b820191905f5260205f20905b81548152906001019060200180831161119b57829003601f168201915b5050505050908060010180546111cd906122ac565b80601f01602080910402602001604051908101604052809291908181526020018280546111f9906122ac565b80156112445780601f1061121b57610100808354040283529160200191611244565b820191905f5260205f20905b81548152906001019060200180831161122757829003601f168201915b505050505090806002018054611259906122ac565b80601f0160208091040260200160405190810160405280929190818152602001828054611285906122ac565b80156112d05780601f106112a7576101008083540402835291602001916112d0565b820191905f5260205f20905b8154815290600101906020018083116112b357829003601f168201915b5050505050908060030180546112e5906122ac565b80601f0160208091040260200160405190810160405280929190818152602001828054611311906122ac565b801561135c5780601f106113335761010080835404028352916020019161135c565b820191905f5260205f20905b81548152906001019060200180831161133f57829003601f168201915b505050505090806004018054611371906122ac565b80601f016020809104026020016040519081016040528092919081815260200182805461139d906122ac565b80156113e85780601f106113bf576101008083540402835291602001916113e8565b820191905f5260205f20905b8154815290600101906020018083116113cb57829003601f168201915b505050505090806005015f9054906101000a900473ffffffffffffffffffffffffffffffffffffffff16905086565b60065481565b5f6005015f9054906101000a900473ffffffffffffffffffffffffffffffffffffffff1673ffffffffffffffffffffffffffffffffffffffff163373ffffffffffffffffffffffffffffffffffffffff16146114ae576040517f08c379a00000000000000000000000000000000000000000000000000000000081526004016114a5906127a6565b60405180910390fd5b60065484106114f2576040517f08c379a00000000000000000000000000000000000000000000000000000000081526004016114e99061266e565b60405180910390fd5b8260085f8681526020019081526020015f2060040181905550818160085f8781526020019081526020015f20600701918261152e9291906127ce565b5050505050565b828054828255905f5260205f2090810192821561157b579160200282015b8281111561157a57825182908161156a9190612479565b5091602001919060010190611553565b5b50905061158891906115d7565b5090565b6040518061012001604052806060815260200160608152602001606081526020015f81526020015f81526020015f151581526020016060815260200160608152602001606081525090565b5b808211156115f6575f81816115ed91906115fa565b506001016115d8565b5090565b508054611606906122ac565b5f825580601f106116175750611634565b601f0160209004905f5260205f20908101906116339190611637565b5b50565b5b8082111561164e575f815f905550600101611638565b5090565b5f819050919050565b61166481611652565b82525050565b5f60208201905061167d5f83018461165b565b92915050565b5f604051905090565b5f80fd5b5f80fd5b5f80fd5b5f601f19601f8301169050919050565b7f4e487b71000000000000000000000000000000000000000000000000000000005f52604160045260245ffd5b6116de82611698565b810181811067ffffffffffffffff821117156116fd576116fc6116a8565b5b80604052505050565b5f61170f611683565b905061171b82826116d5565b919050565b5f80fd5b5f80fd5b5f80fd5b5f67ffffffffffffffff821115611746576117456116a8565b5b61174f82611698565b9050602081019050919050565b828183375f83830152505050565b5f61177c6117778461172c565b611706565b90508281526020810184848401111561179857611797611728565b5b6117a384828561175c565b509392505050565b5f82601f8301126117bf576117be611724565b5b81356117cf84826020860161176a565b91505092915050565b6117e181611652565b81146117eb575f80fd5b50565b5f813590506117fc816117d8565b92915050565b5f8115159050919050565b61181681611802565b8114611820575f80fd5b50565b5f813590506118318161180d565b92915050565b5f67ffffffffffffffff821115611851576118506116a8565b5b602082029050602081019050919050565b5f80fd5b5f61187861187384611837565b611706565b9050808382526020820190506020840283018581111561189b5761189a611862565b5b835b818110156118e257803567ffffffffffffffff8111156118c0576118bf611724565b5b8086016118cd89826117ab565b8552602085019450505060208101905061189d565b5050509392505050565b5f82601f830112611900576118ff611724565b5b8135611910848260208601611866565b91505092915050565b5f610120828403121561192f5761192e611694565b5b61193a610120611706565b90505f82013567ffffffffffffffff81111561195957611958611720565b5b611965848285016117ab565b5f83015250602082013567ffffffffffffffff81111561198857611987611720565b5b611994848285016117ab565b602083015250604082013567ffffffffffffffff8111156119b8576119b7611720565b5b6119c4848285016117ab565b60408301525060606119d8848285016117ee565b60608301525060806119ec848285016117ee565b60808301525060a0611a0084828501611823565b60a08301525060c082013567ffffffffffffffff811115611a2457611a23611720565b5b611a30848285016117ab565b60c08301525060e082013567ffffffffffffffff811115611a5457611a53611720565b5b611a60848285016117ab565b60e08301525061010082013567ffffffffffffffff811115611a8557611a84611720565b5b611a91848285016118ec565b6101008301525092915050565b5f60208284031215611ab357611ab261168c565b5b5f82013567ffffffffffffffff811115611ad057611acf611690565b5b611adc84828501611919565b91505092915050565b5f81519050919050565b5f82825260208201905092915050565b5f819050602082019050919050565b5f81519050919050565b5f82825260208201905092915050565b5f5b83811015611b45578082015181840152602081019050611b2a565b5f8484015250505050565b5f611b5a82611b0e565b611b648185611b18565b9350611b74818560208601611b28565b611b7d81611698565b840191505092915050565b611b9181611652565b82525050565b611ba081611802565b82525050565b5f81519050919050565b5f82825260208201905092915050565b5f819050602082019050919050565b5f611bda8383611b50565b905092915050565b5f602082019050919050565b5f611bf882611ba6565b611c028185611bb0565b935083602082028501611c1485611bc0565b805f5b85811015611c4f5784840389528151611c308582611bcf565b9450611c3b83611be2565b925060208a01995050600181019050611c17565b50829750879550505050505092915050565b5f61012083015f8301518482035f860152611c7c8282611b50565b91505060208301518482036020860152611c968282611b50565b91505060408301518482036040860152611cb08282611b50565b9150506060830151611cc56060860182611b88565b506080830151611cd86080860182611b88565b5060a0830151611ceb60a0860182611b97565b5060c083015184820360c0860152611d038282611b50565b91505060e083015184820360e0860152611d1d8282611b50565b915050610100830151848203610100860152611d398282611bee565b9150508091505092915050565b5f611d518383611c61565b905092915050565b5f602082019050919050565b5f611d6f82611ae5565b611d798185611aef565b935083602082028501611d8b85611aff565b805f5b85811015611dc65784840389528151611da78582611d46565b9450611db283611d59565b925060208a01995050600181019050611d8e565b50829750879550505050505092915050565b5f6020820190508181035f830152611df08184611d65565b905092915050565b5f8060408385031215611e0e57611e0d61168c565b5b5f83013567ffffffffffffffff811115611e2b57611e2a611690565b5b611e3785828601611919565b9250506020611e48858286016117ee565b9150509250929050565b5f60208284031215611e6757611e6661168c565b5b5f611e74848285016117ee565b91505092915050565b5f73ffffffffffffffffffffffffffffffffffffffff82169050919050565b5f611ea682611e7d565b9050919050565b611eb681611e9c565b82525050565b611ec581611802565b82525050565b5f60c082019050611ede5f830189611ead565b611eeb602083018861165b565b611ef8604083018761165b565b611f05606083018661165b565b611f12608083018561165b565b611f1f60a0830184611ebc565b979650505050505050565b5f82825260208201905092915050565b5f611f4482611b0e565b611f4e8185611f2a565b9350611f5e818560208601611b28565b611f6781611698565b840191505092915050565b5f610100820190508181035f830152611f8b818b611f3a565b90508181036020830152611f9f818a611f3a565b90508181036040830152611fb38189611f3a565b9050611fc2606083018861165b565b611fcf608083018761165b565b611fdc60a0830186611ebc565b81810360c0830152611fee8185611f3a565b905081810360e08301526120028184611f3a565b90509998505050505050505050565b5f80604083850312156120275761202661168c565b5b5f612034858286016117ee565b925050602083013567ffffffffffffffff81111561205557612054611690565b5b612061858286016117ab565b9150509250929050565b5f60c0820190508181035f8301526120838189611f3a565b905081810360208301526120978188611f3a565b905081810360408301526120ab8187611f3a565b905081810360608301526120bf8186611f3a565b905081810360808301526120d38185611f3a565b90506120e260a0830184611ead565b979650505050505050565b5f80fd5b5f8083601f84011261210657612105611724565b5b8235905067ffffffffffffffff811115612123576121226120ed565b5b60208301915083600182028301111561213f5761213e611862565b5b9250929050565b5f805f806060858703121561215e5761215d61168c565b5b5f61216b878288016117ee565b945050602061217c878288016117ee565b935050604085013567ffffffffffffffff81111561219d5761219c611690565b5b6121a9878288016120f1565b925092505092959194509250565b7f4e487b71000000000000000000000000000000000000000000000000000000005f52601160045260245ffd5b5f6121ee82611652565b91506121f983611652565b9250828201905080821115612211576122106121b7565b5b92915050565b7f4f6e6c79206f776e65722063616e206164642070726f647563747300000000005f82015250565b5f61224b601b83611f2a565b915061225682612217565b602082019050919050565b5f6020820190508181035f8301526122788161223f565b9050919050565b7f4e487b71000000000000000000000000000000000000000000000000000000005f52602260045260245ffd5b5f60028204905060018216806122c357607f821691505b6020821081036122d6576122d561227f565b5b50919050565b5f819050815f5260205f209050919050565b5f6020601f8301049050919050565b5f82821b905092915050565b5f600883026123387fffffffffffffffffffffffffffffffffffffffffffffffffffffffffffffffff826122fd565b61234286836122fd565b95508019841693508086168417925050509392505050565b5f819050919050565b5f61237d61237861237384611652565b61235a565b611652565b9050919050565b5f819050919050565b61239683612363565b6123aa6123a282612384565b848454612309565b825550505050565b5f90565b6123be6123b2565b6123c981848461238d565b505050565b5b818110156123ec576123e15f826123b6565b6001810190506123cf565b5050565b601f82111561243157612402816122dc565b61240b846122ee565b8101602085101561241a578190505b61242e612426856122ee565b8301826123ce565b50505b505050565b5f82821c905092915050565b5f6124515f1984600802612436565b1980831691505092915050565b5f6124698383612442565b9150826002028217905092915050565b61248282611b0e565b67ffffffffffffffff81111561249b5761249a6116a8565b5b6124a582546122ac565b6124b08282856123f0565b5f60209050601f8311600181146124e1575f84156124cf578287015190505b6124d9858261245e565b865550612540565b601f1984166124ef866122dc565b5f5b82811015612516578489015182556001820191506020850194506020810190506124f1565b86831015612533578489015161252f601f891682612442565b8355505b6001600288020188555050505b505050505050565b7f4e487b71000000000000000000000000000000000000000000000000000000005f52603260045260245ffd5b5f61257f82611652565b91507fffffffffffffffffffffffffffffffffffffffffffffffffffffffffffffffff82036125b1576125b06121b7565b5b600182019050919050565b7f4f6e6c79206f776e65722063616e207570646174652070726f647563747300005f82015250565b5f6125f0601e83611f2a565b91506125fb826125bc565b602082019050919050565b5f6020820190508181035f83015261261d816125e4565b9050919050565b7f50726f6475637420646f6573206e6f74206578697374000000000000000000005f82015250565b5f612658601683611f2a565b915061266382612624565b602082019050919050565b5f6020820190508181035f8301526126858161264c565b9050919050565b7f4f6e6c79206f776e65722063616e2072656d6f76652070726f647563747300005f82015250565b5f6126c0601e83611f2a565b91506126cb8261268c565b602082019050919050565b5f6020820190508181035f8301526126ed816126b4565b9050919050565b7f50726f6475637420616c72656164792072656d6f7665640000000000000000005f82015250565b5f612728601783611f2a565b9150612733826126f4565b602082019050919050565b5f6020820190508181035f8301526127558161271c565b9050919050565b7f4f6e6c79206f776e65722063616e207570646174652073746f636b00000000005f82015250565b5f612790601b83611f2a565b915061279b8261275c565b602082019050919050565b5f6020820190508181035f8301526127bd81612784565b9050919050565b5f82905092915050565b6127d883836127c4565b67ffffffffffffffff8111156127f1576127f06116a8565b5b6127fb82546122ac565b6128068282856123f0565b5f601f831160018114612833575f8415612821578287013590505b61282b858261245e565b865550612892565b601f198416612841866122dc565b5f5b8281101561286857848901358255600182019150602085019450602081019050612843565b868310156128855784890135612881601f891682612442565b8355505b6001600288020188555050505b5050505050505056fea2646970667358221220229f0c27c851dc55c79f2b471a63d103ba44dd40555ec172007d647bcfd9724a64736f6c63430008170033",
  "linkReferences": {},
  "deployedLinkReferences": {},
  "immutableReferences": {},
  "inputSourceName": "project/contracts/Shop.sol",
  "buildInfoId": "solc-0_8_23-90fb7800da0ffa44c7fbd3935548009b550edcd8"
}