{
  "_format": "hh3-artifact-1",
  "contractName": "Shop",
  "sourceName": "contracts/Shop.sol",
  "abi": [
    {
      "inputs": [
        {
          "components": [
            {
              "internalType": "string",
              "name": "shopName",
              "type": "string"
            },
            {
              "internalType": "string",
              "name": "shopType",
              "type": "string"
            },
            {
              "internalType": "string",
              "name": "description",
              "type": "string"
            },
            {
              "internalType": "string",
              "name": "configuration",
              "type": "string"
            },
            {
              "internalType": "string",
              "name": "thumbnailIpfsHash",
              "type": "string"
            },
            {
              "internalType": "address",
              "name": "owner",
              "type": "address"
            },
            {
              "internalType": "bool",
              "name": "isPublished",
              "type": "bool"
            }
          ],
          "internalType": "struct ShopDetails",
          "name": "_shopDetails",
          "type": "tuple"
        }
      ],
      "stateMutability": "nonpayable",
      "type": "constructor"
    },
    {
      "inputs": [
        {
          "components": [
            {
              "internalType": "string",
              "name": "id",
              "type": "string"
            },
            {
              "internalType": "string",
              "name": "name",
              "type": "string"
            },
            {
              "internalType": "string",
              "name": "description",
              "type": "string"
            },
            {
              "internalType": "uint256",
              "name": "price",
              "type": "uint256"
            },
            {
              "internalType": "uint256",
              "name": "stock",
              "type": "uint256"
            },
            {
              "internalType": "bool",
              "name": "isActive",
              "type": "bool"
            },
            {
              "internalType": "string",
              "name": "createdAt",
              "type": "string"
            },
            {
              "internalType": "string",
              "name": "updatedAt",
              "type": "string"
            },
            {
              "internalType": "string[]",
              "name": "ipfsHash",
              "type": "string[]"
            }
          ],
          "internalType": "struct Item",
          "name": "_item",
          "type": "tuple"
        }
      ],
      "name": "addProduct",
      "outputs": [],
      "stateMutability": "nonpayable",
      "type": "function"
    },
    {
      "inputs": [],
      "name": "createTransaction",
      "outputs": [],
      "stateMutability": "nonpayable",
      "type": "function"
    },
    {
      "inputs": [],
      "name": "getAllItems",
      "outputs": [
        {
          "components": [
            {
              "internalType": "string",
              "name": "id",
              "type": "string"
            },
            {
              "internalType": "string",
              "name": "name",
              "type": "string"
            },
            {
              "internalType": "string",
              "name": "description",
              "type": "string"
            },
            {
              "internalType": "uint256",
              "name": "price",
              "type": "uint256"
            },
            {
              "internalType": "uint256",
              "name": "stock",
              "type": "uint256"
            },
            {
              "internalType": "bool",
              "name": "isActive",
              "type": "bool"
            },
            {
              "internalType": "string",
              "name": "createdAt",
              "type": "string"
            },
            {
              "internalType": "string",
              "name": "updatedAt",
              "type": "string"
            },
            {
              "internalType": "string[]",
              "name": "ipfsHash",
              "type": "string[]"
            }
          ],
          "internalType": "struct Item[]",
          "name": "",
          "type": "tuple[]"
        }
      ],
      "stateMutability": "view",
      "type": "function"
    },
    {
      "inputs": [],
      "name": "getProductCount",
      "outputs": [
        {
          "internalType": "uint256",
          "name": "",
          "type": "uint256"
        }
      ],
      "stateMutability": "view",
      "type": "function"
    },
    {
      "inputs": [],
      "name": "getTotalSales",
      "outputs": [
        {
          "internalType": "uint256",
          "name": "",
          "type": "uint256"
        }
      ],
      "stateMutability": "view",
      "type": "function"
    },
    {
      "inputs": [],
      "name": "isShopPublished",
      "outputs": [
        {
          "internalType": "bool",
          "name": "",
          "type": "bool"
        }
      ],
      "stateMutability": "view",
      "type": "function"
    },
    {
      "inputs": [
        {
          "internalType": "uint256",
          "name": "",
          "type": "uint256"
        }
      ],
      "name": "items",
      "outputs": [
        {
          "internalType": "string",
          "name": "id",
          "type": "string"
        },
        {
          "internalType": "string",
          "name": "name",
          "type": "string"
        },
        {
          "internalType": "string",
          "name": "description",
          "type": "string"
        },
        {
          "internalType": "uint256",
          "name": "price",
          "type": "uint256"
        },
        {
          "internalType": "uint256",
          "name": "stock",
          "type": "uint256"
        },
        {
          "internalType": "bool",
          "name": "isActive",
          "type": "bool"
        },
        {
          "internalType": "string",
          "name": "createdAt",
          "type": "string"
        },
        {
          "internalType": "string",
          "name": "updatedAt",
          "type": "string"
        }
      ],
      "stateMutability": "view",
      "type": "function"
    },
    {
      "inputs": [],
      "name": "orderCount",
      "outputs": [
        {
          "internalType": "uint256",
          "name": "",
          "type": "uint256"
        }
      ],
      "stateMutability": "view",
      "type": "function"
    },
    {
      "inputs": [
        {
          "internalType": "uint256",
          "name": "",
          "type": "uint256"
        }
      ],
      "name": "orders",
      "outputs": [
        {
          "internalType": "address",
          "name": "buyer",
          "type": "address"
        },
        {
          "internalType": "uint256",
          "name": "itemId",
          "type": "uint256"
        },
        {
          "internalType": "uint256",
          "name": "quantity",
          "type": "uint256"
        },
        {
          "internalType": "uint256",
          "name": "totalPrice",
          "type": "uint256"
        },
        {
          "internalType": "uint256",
          "name": "timestamp",
          "type": "uint256"
        },
        {
          "internalType": "bool",
          "name": "isDelivered",
          "type": "bool"
        }
      ],
      "stateMutability": "view",
      "type": "function"
    },
    {
      "inputs": [],
      "name": "productCount",
      "outputs": [
        {
          "internalType": "uint256",
          "name": "",
          "type": "uint256"
        }
      ],
      "stateMutability": "view",
      "type": "function"
    },
    {
      "inputs": [],
      "name": "publishShop",
      "outputs": [],
      "stateMutability": "nonpayable",
      "type": "function"
    },
    {
      "inputs": [
        {
          "internalType": "uint256",
          "name": "_itemId",
          "type": "uint256"
        },
        {
          "internalType": "string",
          "name": "_currentDate",
          "type": "string"
        }
      ],
      "name": "removeProduct",
      "outputs": [],
      "stateMutability": "nonpayable",
      "type": "function"
    },
    {
      "inputs": [],
      "name": "shopDetails",
      "outputs": [
        {
          "internalType": "string",
          "name": "shopName",
          "type": "string"
        },
        {
          "internalType": "string",
          "name": "shopType",
          "type": "string"
        },
        {
          "internalType": "string",
          "name": "description",
          "type": "string"
        },
        {
          "internalType": "string",
          "name": "configuration",
          "type": "string"
        },
        {
          "internalType": "string",
          "name": "thumbnailIpfsHash",
          "type": "string"
        },
        {
          "internalType": "address",
          "name": "owner",
          "type": "address"
        },
        {
          "internalType": "bool",
          "name": "isPublished",
          "type": "bool"
        }
      ],
      "stateMutability": "view",
      "type": "function"
    },
    {
      "inputs": [],
      "name": "unpublishShop",
      "outputs": [],
      "stateMutability": "nonpayable",
      "type": "function"
    },
    {
      "inputs": [
        {
          "components": [
            {
              "internalType": "string",
              "name": "id",
              "type": "string"
            },
            {
              "internalType": "string",
              "name": "name",
              "type": "string"
            },
            {
              "internalType": "string",
              "name": "description",
              "type": "string"
            },
            {
              "internalType": "uint256",
              "name": "price",
              "type": "uint256"
            },
            {
              "internalType": "uint256",
              "name": "stock",
              "type": "uint256"
            },
            {
              "internalType": "bool",
              "name": "isActive",
              "type": "bool"
            },
            {
              "internalType": "string",
              "name": "createdAt",
              "type": "string"
            },
            {
              "internalType": "string",
              "name": "updatedAt",
              "type": "string"
            },
            {
              "internalType": "string[]",
              "name": "ipfsHash",
              "type": "string[]"
            }
          ],
          "internalType": "struct Item",
          "name": "_item",
          "type": "tuple"
        },
        {
          "internalType": "uint256",
          "name": "_itemIndex",
          "type": "uint256"
        }
      ],
      "name": "updateProduct",
      "outputs": [],
      "stateMutability": "nonpayable",
      "type": "function"
    },
    {
      "inputs": [
        {
          "internalType": "uint256",
          "name": "_itemId",
          "type": "uint256"
        },
        {
          "internalType": "uint256",
          "name": "_newStock",
          "type": "uint256"
        },
        {
          "internalType": "string",
          "name": "_currentDate",
          "type": "string"
        }
      ],
      "name": "updateStock",
      "outputs": [],
      "stateMutability": "nonpayable",
      "type": "function"
    }
  ],
  "bytecode": "0x608060405234801562000010575f80fd5b5060405162003554380380620035548339818101604052810190620000369190620004b3565b805f80820151815f0190816200004d919062000739565b50602082015181600101908162000065919062000739565b5060408201518160020190816200007d919062000739565b50606082015181600301908162000095919062000739565b506080820151816004019081620000ad919062000739565b5060a0820151816005015f6101000a81548173ffffffffffffffffffffffffffffffffffffffff021916908373ffffffffffffffffffffffffffffffffffffffff16021790555060c08201518160050160146101000a81548160ff0219169083151502179055509050505f6006819055505f600781905550506200081d565b5f604051905090565b5f80fd5b5f80fd5b5f80fd5b5f601f19601f8301169050919050565b7f4e487b71000000000000000000000000000000000000000000000000000000005f52604160045260245ffd5b620001898262000141565b810181811067ffffffffffffffff82111715620001ab57620001aa62000151565b5b80604052505050565b5f620001bf6200012c565b9050620001cd82826200017e565b919050565b5f80fd5b5f80fd5b5f80fd5b5f67ffffffffffffffff821115620001fb57620001fa62000151565b5b620002068262000141565b9050602081019050919050565b5f5b838110156200023257808201518184015260208101905062000215565b5f8484015250505050565b5f620002536200024d84620001de565b620001b4565b905082815260208101848484011115620002725762000271620001da565b5b6200027f84828562000213565b509392505050565b5f82601f8301126200029e576200029d620001d6565b5b8151620002b08482602086016200023d565b91505092915050565b5f73ffffffffffffffffffffffffffffffffffffffff82169050919050565b5f620002e482620002b9565b9050919050565b620002f681620002d8565b811462000301575f80fd5b50565b5f815190506200031481620002eb565b92915050565b5f8115159050919050565b62000330816200031a565b81146200033b575f80fd5b50565b5f815190506200034e8162000325565b92915050565b5f60e082840312156200036c576200036b6200013d565b5b6200037860e0620001b4565b90505f82015167ffffffffffffffff8111156200039a5762000399620001d2565b5b620003a88482850162000287565b5f83015250602082015167ffffffffffffffff811115620003ce57620003cd620001d2565b5b620003dc8482850162000287565b602083015250604082015167ffffffffffffffff811115620004035762000402620001d2565b5b620004118482850162000287565b604083015250606082015167ffffffffffffffff811115620004385762000437620001d2565b5b620004468482850162000287565b606083015250608082015167ffffffffffffffff8111156200046d576200046c620001d2565b5b6200047b8482850162000287565b60808301525060a0620004918482850162000304565b60a08301525060c0620004a7848285016200033e565b60c08301525092915050565b5f60208284031215620004cb57620004ca62000135565b5b5f82015167ffffffffffffffff811115620004eb57620004ea62000139565b5b620004f98482850162000354565b91505092915050565b5f81519050919050565b7f4e487b71000000000000000000000000000000000000000000000000000000005f52602260045260245ffd5b5f60028204905060018216806200055157607f821691505b6020821081036200056757620005666200050c565b5b50919050565b5f819050815f5260205f209050919050565b5f6020601f8301049050919050565b5f82821b905092915050565b5f60088302620005cb7fffffffffffffffffffffffffffffffffffffffffffffffffffffffffffffffff826200058e565b620005d786836200058e565b95508019841693508086168417925050509392505050565b5f819050919050565b5f819050919050565b5f620006216200061b6200061584620005ef565b620005f8565b620005ef565b9050919050565b5f819050919050565b6200063c8362000601565b620006546200064b8262000628565b8484546200059a565b825550505050565b5f90565b6200066a6200065c565b6200067781848462000631565b505050565b5b818110156200069e57620006925f8262000660565b6001810190506200067d565b5050565b601f821115620006ed57620006b7816200056d565b620006c2846200057f565b81016020851015620006d2578190505b620006ea620006e1856200057f565b8301826200067c565b50505b505050565b5f82821c905092915050565b5f6200070f5f1984600802620006f2565b1980831691505092915050565b5f620007298383620006fe565b9150826002028217905092915050565b620007448262000502565b67ffffffffffffffff81111562000760576200075f62000151565b5b6200076c825462000539565b62000779828285620006a2565b5f60209050601f831160018114620007af575f84156200079a578287015190505b620007a685826200071c565b86555062000815565b601f198416620007bf866200056d565b5f5b82811015620007e857848901518255600182019150602085019450602081019050620007c1565b8683101562000808578489015162000804601f891682620006fe565b8355505b6001600288020188555050505b505050505050565b612d29806200082b5f395ff3fe608060405234801561000f575f80fd5b50600436106100fe575f3560e01c8063a21dd86d11610095578063cdc4777d11610064578063cdc4777d1461025a578063ce74061814610276578063e0f6ef871461029a578063eb88676e146102b8576100fe565b8063a21dd86d146101b4578063a85c38ef146101d0578063bfb231d214610205578063c89a9b151461023c576100fe565b806349ce62b3116100d157806349ce62b3146101645780634a348da91461016e5780634ba1d6aa1461018c57806397b54cc2146101aa576100fe565b80632156a96c146101025780632197e883146101205780632453ffa81461012a57806330c25c0614610148575b5f80fd5b61010a6102d4565b60405161011791906118fb565b60405180910390f35b61012861031c565b005b61013261041c565b60405161013f91906118fb565b60405180910390f35b610162600480360381019061015d9190611d2f565b610422565b005b61016c6106cf565b005b6101766107d1565b60405161018391906118fb565b60405180910390f35b6101946107da565b6040516101a19190612069565b60405180910390f35b6101b2610c62565b005b6101ce60048036038101906101c99190612089565b610c64565b005b6101ea60048036038101906101e591906120e3565b610ec1565b6040516101fc9695949392919061215c565b60405180910390f35b61021f600480360381019061021a91906120e3565b610f24565b604051610233989796959493929190612203565b60405180910390f35b610244611212565b60405161025191906122a2565b60405180910390f35b610274600480360381019061026f91906122bb565b61122a565b005b61027e6113b0565b6040516102919796959493929190612315565b60405180910390f35b6102a26116a8565b6040516102af91906118fb565b60405180910390f35b6102d260048036038101906102cd91906123fe565b6116ae565b005b5f805f90505f5b6007548110156103145760095f8281526020019081526020015f206003015482610305919061249c565b915080806001019150506102db565b508091505090565b5f6005015f9054906101000a900473ffffffffffffffffffffffffffffffffffffffff1673ffffffffffffffffffffffffffffffffffffffff163373ffffffffffffffffffffffffffffffffffffffff16146103ad576040517f08c379a00000000000000000000000000000000000000000000000000000000081526004016103a490612519565b60405180910390fd5b5f60050160149054906101000a900460ff166103fe576040517f08c379a00000000000000000000000000000000000000000000000000000000081526004016103f590612581565b60405180910390fd5b5f8060050160146101000a81548160ff021916908315150217905550565b60075481565b5f6005015f9054906101000a900473ffffffffffffffffffffffffffffffffffffffff1673ffffffffffffffffffffffffffffffffffffffff163373ffffffffffffffffffffffffffffffffffffffff16146104b3576040517f08c379a00000000000000000000000000000000000000000000000000000000081526004016104aa906125e9565b60405180910390fd5b604051806101200160405280825f01518152602001826020015181526020018260400151815260200182606001518152602001826080015181526020018260a00151151581526020018260c0015181526020018260e0015181526020018261010001515167ffffffffffffffff8111156105305761052f611939565b5b60405190808252806020026020018201604052801561056357816020015b606081526020019060019003908161054e5790505b5081525060085f60065481526020019081526020015f205f820151815f01908161058d9190612801565b5060208201518160010190816105a39190612801565b5060408201518160020190816105b99190612801565b50606082015181600301556080820151816004015560a0820151816005015f6101000a81548160ff02191690831515021790555060c08201518160060190816106029190612801565b5060e08201518160070190816106189190612801565b506101008201518160080190805190602001906106369291906117c6565b509050505f5b816101000151518110156106b4578161010001518181518110610662576106616128d0565b5b602002602001015160085f60065481526020019081526020015f206008018281548110610692576106916128d0565b5b905f5260205f200190816106a69190612801565b50808060010191505061063c565b5060065f8154809291906106c7906128fd565b919050555050565b5f6005015f9054906101000a900473ffffffffffffffffffffffffffffffffffffffff1673ffffffffffffffffffffffffffffffffffffffff163373ffffffffffffffffffffffffffffffffffffffff1614610760576040517f08c379a00000000000000000000000000000000000000000000000000000000081526004016107579061298e565b60405180910390fd5b5f60050160149054906101000a900460ff16156107b2576040517f08c379a00000000000000000000000000000000000000000000000000000000081526004016107a9906129f6565b60405180910390fd5b60015f60050160146101000a81548160ff021916908315150217905550565b5f600654905090565b60605f60065467ffffffffffffffff8111156107f9576107f8611939565b5b60405190808252806020026020018201604052801561083257816020015b61081f61181d565b8152602001906001900390816108175790505b5090505f5b600654811015610c5a5760085f8281526020019081526020015f20604051806101200160405290815f8201805461086d90612634565b80601f016020809104026020016040519081016040528092919081815260200182805461089990612634565b80156108e45780601f106108bb576101008083540402835291602001916108e4565b820191905f5260205f20905b8154815290600101906020018083116108c757829003601f168201915b505050505081526020016001820180546108fd90612634565b80601f016020809104026020016040519081016040528092919081815260200182805461092990612634565b80156109745780601f1061094b57610100808354040283529160200191610974565b820191905f5260205f20905b81548152906001019060200180831161095757829003601f168201915b5050505050815260200160028201805461098d90612634565b80601f01602080910402602001604051908101604052809291908181526020018280546109b990612634565b8015610a045780601f106109db57610100808354040283529160200191610a04565b820191905f5260205f20905b8154815290600101906020018083116109e757829003601f168201915b505050505081526020016003820154815260200160048201548152602001600582015f9054906101000a900460ff16151515158152602001600682018054610a4b90612634565b80601f0160208091040260200160405190810160405280929190818152602001828054610a7790612634565b8015610ac25780601f10610a9957610100808354040283529160200191610ac2565b820191905f5260205f20905b815481529060010190602001808311610aa557829003601f168201915b50505050508152602001600782018054610adb90612634565b80601f0160208091040260200160405190810160405280929190818152602001828054610b0790612634565b8015610b525780601f10610b2957610100808354040283529160200191610b52565b820191905f5260205f20905b815481529060010190602001808311610b3557829003601f168201915b5050505050815260200160088201805480602002602001604051908101604052809291908181526020015f905b82821015610c27578382905f5260205f20018054610b9c90612634565b80601f0160208091040260200160405190810160405280929190818152602001828054610bc890612634565b8015610c135780601f10610bea57610100808354040283529160200191610c13565b820191905f5260205f20905b815481529060010190602001808311610bf657829003601f168201915b505050505081526020019060010190610b7f565b5050505081525050828281518110610c4257610c416128d0565b5b60200260200101819052508080600101915050610837565b508091505090565b565b5f6005015f9054906101000a900473ffffffffffffffffffffffffffffffffffffffff1673ffffffffffffffffffffffffffffffffffffffff163373ffffffffffffffffffffffffffffffffffffffff1614610cf5576040517f08c379a0000000000000000000000000000000000000000000000000000000008152600401610cec90612a5e565b60405180910390fd5b6006548110610d39576040517f08c379a0000000000000000000000000000000000000000000000000000000008152600401610d3090612ac6565b60405180910390fd5b816060015160085f8381526020019081526020015f2060030181905550816080015160085f8381526020019081526020015f20600401819055508160a0015160085f8381526020019081526020015f206005015f6101000a81548160ff0219169083151502179055508160e0015160085f8381526020019081526020015f206007019081610dc79190612801565b508161010001515167ffffffffffffffff811115610de857610de7611939565b5b604051908082528060200260200182016040528015610e1b57816020015b6060815260200190600190039081610e065790505b5060085f8381526020019081526020015f206008019080519060200190610e439291906117c6565b505f5b82610100015151811015610ebc578261010001518181518110610e6c57610e6b6128d0565b5b602002602001015160085f8481526020019081526020015f206008018281548110610e9a57610e996128d0565b5b905f5260205f20019081610eae9190612801565b508080600101915050610e46565b505050565b6009602052805f5260405f205f91509050805f015f9054906101000a900473ffffffffffffffffffffffffffffffffffffffff1690806001015490806002015490806003015490806004015490806005015f9054906101000a900460ff16905086565b6008602052805f5260405f205f91509050805f018054610f4390612634565b80601f0160208091040260200160405190810160405280929190818152602001828054610f6f90612634565b8015610fba5780601f10610f9157610100808354040283529160200191610fba565b820191905f5260205f20905b815481529060010190602001808311610f9d57829003601f168201915b505050505090806001018054610fcf90612634565b80601f0160208091040260200160405190810160405280929190818152602001828054610ffb90612634565b80156110465780601f1061101d57610100808354040283529160200191611046565b820191905f5260205f20905b81548152906001019060200180831161102957829003601f168201915b50505050509080600201805461105b90612634565b80601f016020809104026020016040519081016040528092919081815260200182805461108790612634565b80156110d25780601f106110a9576101008083540402835291602001916110d2565b820191905f5260205f20905b8154815290600101906020018083116110b557829003601f168201915b505050505090806003015490806004015490806005015f9054906101000a900460ff169080600601805461110590612634565b80601f016020809104026020016040519081016040528092919081815260200182805461113190612634565b801561117c5780601f106111535761010080835404028352916020019161117c565b820191905f5260205f20905b81548152906001019060200180831161115f57829003601f168201915b50505050509080600701805461119190612634565b80601f01602080910402602001604051908101604052809291908181526020018280546111bd90612634565b80156112085780601f106111df57610100808354040283529160200191611208565b820191905f5260205f20905b8154815290600101906020018083116111eb57829003601f168201915b5050505050905088565b5f8060050160149054906101000a900460ff16905090565b5f6005015f9054906101000a900473ffffffffffffffffffffffffffffffffffffffff1673ffffffffffffffffffffffffffffffffffffffff163373ffffffffffffffffffffffffffffffffffffffff16146112bb576040517f08c379a00000000000000000000000000000000000000000000000000000000081526004016112b290612b2e565b60405180910390fd5b60065482106112ff576040517f08c379a00000000000000000000000000000000000000000000000000000000081526004016112f690612ac6565b60405180910390fd5b60085f8381526020019081526020015f206005015f9054906101000a900460ff1661135f576040517f08c379a000000000000000000000000000000000000000000000000000000000815260040161135690612b96565b60405180910390fd5b5f60085f8481526020019081526020015f206005015f6101000a81548160ff0219169083151502179055508060085f8481526020019081526020015f2060070190816113ab9190612801565b505050565b5f805f0180546113bf90612634565b80601f01602080910402602001604051908101604052809291908181526020018280546113eb90612634565b80156114365780601f1061140d57610100808354040283529160200191611436565b820191905f5260205f20905b81548152906001019060200180831161141957829003601f168201915b50505050509080600101805461144b90612634565b80601f016020809104026020016040519081016040528092919081815260200182805461147790612634565b80156114c25780601f10611499576101008083540402835291602001916114c2565b820191905f5260205f20905b8154815290600101906020018083116114a557829003601f168201915b5050505050908060020180546114d790612634565b80601f016020809104026020016040519081016040528092919081815260200182805461150390612634565b801561154e5780601f106115255761010080835404028352916020019161154e565b820191905f5260205f20905b81548152906001019060200180831161153157829003601f168201915b50505050509080600301805461156390612634565b80601f016020809104026020016040519081016040528092919081815260200182805461158f90612634565b80156115da5780601f106115b1576101008083540402835291602001916115da565b820191905f5260205f20905b8154815290600101906020018083116115bd57829003601f168201915b5050505050908060040180546115ef90612634565b80601f016020809104026020016040519081016040528092919081815260200182805461161b90612634565b80156116665780601f1061163d57610100808354040283529160200191611666565b820191905f5260205f20905b81548152906001019060200180831161164957829003601f168201915b505050505090806005015f9054906101000a900473ffffffffffffffffffffffffffffffffffffffff16908060050160149054906101000a900460ff16905087565b60065481565b5f6005015f9054906101000a900473ffffffffffffffffffffffffffffffffffffffff1673ffffffffffffffffffffffffffffffffffffffff163373ffffffffffffffffffffffffffffffffffffffff161461173f576040517f08c379a000000000000000000000000000000000000000000000000000000000815260040161173690612bfe565b60405180910390fd5b6006548410611783576040517f08c379a000000000000000000000000000000000000000000000000000000000815260040161177a90612ac6565b60405180910390fd5b8260085f8681526020019081526020015f2060040181905550818160085f8781526020019081526020015f2060070191826117bf929190612c26565b5050505050565b828054828255905f5260205f2090810192821561180c579160200282015b8281111561180b5782518290816117fb9190612801565b50916020019190600101906117e4565b5b5090506118199190611868565b5090565b6040518061012001604052806060815260200160608152602001606081526020015f81526020015f81526020015f151581526020016060815260200160608152602001606081525090565b5b80821115611887575f818161187e919061188b565b50600101611869565b5090565b50805461189790612634565b5f825580601f106118a857506118c5565b601f0160209004905f5260205f20908101906118c491906118c8565b5b50565b5b808211156118df575f815f9055506001016118c9565b5090565b5f819050919050565b6118f5816118e3565b82525050565b5f60208201905061190e5f8301846118ec565b92915050565b5f604051905090565b5f80fd5b5f80fd5b5f80fd5b5f601f19601f8301169050919050565b7f4e487b71000000000000000000000000000000000000000000000000000000005f52604160045260245ffd5b61196f82611929565b810181811067ffffffffffffffff8211171561198e5761198d611939565b5b80604052505050565b5f6119a0611914565b90506119ac8282611966565b919050565b5f80fd5b5f80fd5b5f80fd5b5f67ffffffffffffffff8211156119d7576119d6611939565b5b6119e082611929565b9050602081019050919050565b828183375f83830152505050565b5f611a0d611a08846119bd565b611997565b905082815260208101848484011115611a2957611a286119b9565b5b611a348482856119ed565b509392505050565b5f82601f830112611a5057611a4f6119b5565b5b8135611a608482602086016119fb565b91505092915050565b611a72816118e3565b8114611a7c575f80fd5b50565b5f81359050611a8d81611a69565b92915050565b5f8115159050919050565b611aa781611a93565b8114611ab1575f80fd5b50565b5f81359050611ac281611a9e565b92915050565b5f67ffffffffffffffff821115611ae257611ae1611939565b5b602082029050602081019050919050565b5f80fd5b5f611b09611b0484611ac8565b611997565b90508083825260208201905060208402830185811115611b2c57611b2b611af3565b5b835b81811015611b7357803567ffffffffffffffff811115611b5157611b506119b5565b5b808601611b5e8982611a3c565b85526020850194505050602081019050611b2e565b5050509392505050565b5f82601f830112611b9157611b906119b5565b5b8135611ba1848260208601611af7565b91505092915050565b5f6101208284031215611bc057611bbf611925565b5b611bcb610120611997565b90505f82013567ffffffffffffffff811115611bea57611be96119b1565b5b611bf684828501611a3c565b5f83015250602082013567ffffffffffffffff811115611c1957611c186119b1565b5b611c2584828501611a3c565b602083015250604082013567ffffffffffffffff811115611c4957611c486119b1565b5b611c5584828501611a3c565b6040830152506060611c6984828501611a7f565b6060830152506080611c7d84828501611a7f565b60808301525060a0611c9184828501611ab4565b60a08301525060c082013567ffffffffffffffff811115611cb557611cb46119b1565b5b611cc184828501611a3c565b60c08301525060e082013567ffffffffffffffff811115611ce557611ce46119b1565b5b611cf184828501611a3c565b60e08301525061010082013567ffffffffffffffff811115611d1657611d156119b1565b5b611d2284828501611b7d565b6101008301525092915050565b5f60208284031215611d4457611d4361191d565b5b5f82013567ffffffffffffffff811115611d6157611d60611921565b5b611d6d84828501611baa565b91505092915050565b5f81519050919050565b5f82825260208201905092915050565b5f819050602082019050919050565b5f81519050919050565b5f82825260208201905092915050565b5f5b83811015611dd6578082015181840152602081019050611dbb565b5f8484015250505050565b5f611deb82611d9f565b611df58185611da9565b9350611e05818560208601611db9565b611e0e81611929565b840191505092915050565b611e22816118e3565b82525050565b611e3181611a93565b82525050565b5f81519050919050565b5f82825260208201905092915050565b5f819050602082019050919050565b5f611e6b8383611de1565b905092915050565b5f602082019050919050565b5f611e8982611e37565b611e938185611e41565b935083602082028501611ea585611e51565b805f5b85811015611ee05784840389528151611ec18582611e60565b9450611ecc83611e73565b925060208a01995050600181019050611ea8565b50829750879550505050505092915050565b5f61012083015f8301518482035f860152611f0d8282611de1565b91505060208301518482036020860152611f278282611de1565b91505060408301518482036040860152611f418282611de1565b9150506060830151611f566060860182611e19565b506080830151611f696080860182611e19565b5060a0830151611f7c60a0860182611e28565b5060c083015184820360c0860152611f948282611de1565b91505060e083015184820360e0860152611fae8282611de1565b915050610100830151848203610100860152611fca8282611e7f565b9150508091505092915050565b5f611fe28383611ef2565b905092915050565b5f602082019050919050565b5f61200082611d76565b61200a8185611d80565b93508360208202850161201c85611d90565b805f5b8581101561205757848403895281516120388582611fd7565b945061204383611fea565b925060208a0199505060018101905061201f565b50829750879550505050505092915050565b5f6020820190508181035f8301526120818184611ff6565b905092915050565b5f806040838503121561209f5761209e61191d565b5b5f83013567ffffffffffffffff8111156120bc576120bb611921565b5b6120c885828601611baa565b92505060206120d985828601611a7f565b9150509250929050565b5f602082840312156120f8576120f761191d565b5b5f61210584828501611a7f565b91505092915050565b5f73ffffffffffffffffffffffffffffffffffffffff82169050919050565b5f6121378261210e565b9050919050565b6121478161212d565b82525050565b61215681611a93565b82525050565b5f60c08201905061216f5f83018961213e565b61217c60208301886118ec565b61218960408301876118ec565b61219660608301866118ec565b6121a360808301856118ec565b6121b060a083018461214d565b979650505050505050565b5f82825260208201905092915050565b5f6121d582611d9f565b6121df81856121bb565b93506121ef818560208601611db9565b6121f881611929565b840191505092915050565b5f610100820190508181035f83015261221c818b6121cb565b90508181036020830152612230818a6121cb565b9050818103604083015261224481896121cb565b905061225360608301886118ec565b61226060808301876118ec565b61226d60a083018661214d565b81810360c083015261227f81856121cb565b905081810360e083015261229381846121cb565b90509998505050505050505050565b5f6020820190506122b55f83018461214d565b92915050565b5f80604083850312156122d1576122d061191d565b5b5f6122de85828601611a7f565b925050602083013567ffffffffffffffff8111156122ff576122fe611921565b5b61230b85828601611a3c565b9150509250929050565b5f60e0820190508181035f83015261232d818a6121cb565b9050818103602083015261234181896121cb565b9050818103604083015261235581886121cb565b9050818103606083015261236981876121cb565b9050818103608083015261237d81866121cb565b905061238c60a083018561213e565b61239960c083018461214d565b98975050505050505050565b5f80fd5b5f8083601f8401126123be576123bd6119b5565b5b8235905067ffffffffffffffff8111156123db576123da6123a5565b5b6020830191508360018202830111156123f7576123f6611af3565b5b9250929050565b5f805f80606085870312156124165761241561191d565b5b5f61242387828801611a7f565b945050602061243487828801611a7f565b935050604085013567ffffffffffffffff81111561245557612454611921565b5b612461878288016123a9565b925092505092959194509250565b7f4e487b71000000000000000000000000000000000000000000000000000000005f52601160045260245ffd5b5f6124a6826118e3565b91506124b1836118e3565b92508282019050808211156124c9576124c861246f565b5b92915050565b7f4f6e6c79206f776e65722063616e20756e7075626c6973682073686f700000005f82015250565b5f612503601d836121bb565b915061250e826124cf565b602082019050919050565b5f6020820190508181035f830152612530816124f7565b9050919050565b7f53686f70206973206e6f74207075626c697368656400000000000000000000005f82015250565b5f61256b6015836121bb565b915061257682612537565b602082019050919050565b5f6020820190508181035f8301526125988161255f565b9050919050565b7f4f6e6c79206f776e65722063616e206164642070726f647563747300000000005f82015250565b5f6125d3601b836121bb565b91506125de8261259f565b602082019050919050565b5f6020820190508181035f830152612600816125c7565b9050919050565b7f4e487b71000000000000000000000000000000000000000000000000000000005f52602260045260245ffd5b5f600282049050600182168061264b57607f821691505b60208210810361265e5761265d612607565b5b50919050565b5f819050815f5260205f209050919050565b5f6020601f8301049050919050565b5f82821b905092915050565b5f600883026126c07fffffffffffffffffffffffffffffffffffffffffffffffffffffffffffffffff82612685565b6126ca8683612685565b95508019841693508086168417925050509392505050565b5f819050919050565b5f6127056127006126fb846118e3565b6126e2565b6118e3565b9050919050565b5f819050919050565b61271e836126eb565b61273261272a8261270c565b848454612691565b825550505050565b5f90565b61274661273a565b612751818484612715565b505050565b5b81811015612774576127695f8261273e565b600181019050612757565b5050565b601f8211156127b95761278a81612664565b61279384612676565b810160208510156127a2578190505b6127b66127ae85612676565b830182612756565b50505b505050565b5f82821c905092915050565b5f6127d95f19846008026127be565b1980831691505092915050565b5f6127f183836127ca565b9150826002028217905092915050565b61280a82611d9f565b67ffffffffffffffff81111561282357612822611939565b5b61282d8254612634565b612838828285612778565b5f60209050601f831160018114612869575f8415612857578287015190505b61286185826127e6565b8655506128c8565b601f19841661287786612664565b5f5b8281101561289e57848901518255600182019150602085019450602081019050612879565b868310156128bb57848901516128b7601f8916826127ca565b8355505b6001600288020188555050505b505050505050565b7f4e487b71000000000000000000000000000000000000000000000000000000005f52603260045260245ffd5b5f612907826118e3565b91507fffffffffffffffffffffffffffffffffffffffffffffffffffffffffffffffff82036129395761293861246f565b5b600182019050919050565b7f4f6e6c79206f776e65722063616e207075626c6973682073686f7000000000005f82015250565b5f612978601b836121bb565b915061298382612944565b602082019050919050565b5f6020820190508181035f8301526129a58161296c565b9050919050565b7f53686f7020697320616c7265616479207075626c6973686564000000000000005f82015250565b5f6129e06019836121bb565b91506129eb826129ac565b602082019050919050565b5f6020820190508181035f830152612a0d816129d4565b9050919050565b7f4f6e6c79206f776e65722063616e207570646174652070726f647563747300005f82015250565b5f612a48601e836121bb565b9150612a5382612a14565b602082019050919050565b5f6020820190508181035f830152612a7581612a3c565b9050919050565b7f50726f6475637420646f6573206e6f74206578697374000000000000000000005f82015250565b5f612ab06016836121bb565b9150612abb82612a7c565b602082019050919050565b5f6020820190508181035f830152612add81612aa4565b9050919050565b7f4f6e6c79206f776e65722063616e2072656d6f76652070726f647563747300005f82015250565b5f612b18601e836121bb565b9150612b2382612ae4565b602082019050919050565b5f6020820190508181035f830152612b4581612b0c565b9050919050565b7f50726f6475637420616c72656164792072656d6f7665640000000000000000005f82015250565b5f612b806017836121bb565b9150612b8b82612b4c565b602082019050919050565b5f6020820190508181035f830152612bad81612b74565b9050919050565b7f4f6e6c79206f776e65722063616e207570646174652073746f636b00000000005f82015250565b5f612be8601b836121bb565b9150612bf382612bb4565b602082019050919050565b5f6020820190508181035f830152612c1581612bdc565b9050919050565b5f82905092915050565b612c308383612c1c565b67ffffffffffffffff811115612c4957612c48611939565b5b612c538254612634565b612c5e828285612778565b5f601f831160018114612c8b575f8415612c79578287013590505b612c8385826127e6565b865550612cea565b601f198416612c9986612664565b5f5b82811015612cc057848901358255600182019150602085019450602081019050612c9b565b86831015612cdd5784890135612cd9601f8916826127ca565b8355505b6001600288020188555050505b5050505050505056fea26469706673582212208ea4530190bb6bc832cb242d1bb1dfc09c6611feb572229e5da09de129c84fce64736f6c63430008170033",
  "linkReferences": {},
  "deployedLinkReferences": {},
  "immutableReferences": {},
  "inputSourceName": "project/contracts/Shop.sol",
  "buildInfoId": "solc-0_8_23-ff31d1f47257c76ce98d0f7646f8c7584de9a3ed"
}